{
  "contractName": "AccessControlled",
  "abi": [
    {
      "constant": true,
      "inputs": [],
      "name": "giaAddress",
      "outputs": [
        {
          "name": "",
          "type": "address"
        }
      ],
      "payable": false,
      "stateMutability": "view",
      "type": "function"
    },
    {
      "constant": false,
      "inputs": [],
      "name": "renounceOwnership",
      "outputs": [],
      "payable": false,
      "stateMutability": "nonpayable",
      "type": "function"
    },
    {
      "constant": true,
      "inputs": [],
      "name": "geaAddress",
      "outputs": [
        {
          "name": "",
          "type": "address"
        }
      ],
      "payable": false,
      "stateMutability": "view",
      "type": "function"
    },
    {
      "constant": true,
      "inputs": [],
      "name": "owner",
      "outputs": [
        {
          "name": "",
          "type": "address"
        }
      ],
      "payable": false,
      "stateMutability": "view",
      "type": "function"
    },
    {
      "constant": true,
      "inputs": [],
      "name": "isOwner",
      "outputs": [
        {
          "name": "",
          "type": "bool"
        }
      ],
      "payable": false,
      "stateMutability": "view",
      "type": "function"
    },
    {
      "constant": true,
      "inputs": [],
      "name": "taAddress",
      "outputs": [
        {
          "name": "",
          "type": "address"
        }
      ],
      "payable": false,
      "stateMutability": "view",
      "type": "function"
    },
    {
      "constant": false,
      "inputs": [
        {
          "name": "newOwner",
          "type": "address"
        }
      ],
      "name": "transferOwnership",
      "outputs": [],
      "payable": false,
      "stateMutability": "nonpayable",
      "type": "function"
    },
    {
      "anonymous": false,
      "inputs": [
        {
          "indexed": true,
          "name": "previousOwner",
          "type": "address"
        },
        {
          "indexed": true,
          "name": "newOwner",
          "type": "address"
        }
      ],
      "name": "OwnershipTransferred",
      "type": "event"
    },
    {
      "constant": false,
      "inputs": [
        {
          "name": "_geaAddress",
          "type": "address"
        }
      ],
      "name": "setGEA",
      "outputs": [],
      "payable": false,
      "stateMutability": "nonpayable",
      "type": "function"
    },
    {
      "constant": false,
      "inputs": [
        {
          "name": "_giaAddress",
          "type": "address"
        }
      ],
      "name": "setGIA",
      "outputs": [],
      "payable": false,
      "stateMutability": "nonpayable",
      "type": "function"
    },
    {
      "constant": false,
      "inputs": [
        {
          "name": "_taAddress",
          "type": "address"
        }
      ],
      "name": "setTA",
      "outputs": [],
      "payable": false,
      "stateMutability": "nonpayable",
      "type": "function"
    }
  ],
  "bytecode": "0x6080604052336000806101000a81548173ffffffffffffffffffffffffffffffffffffffff021916908373ffffffffffffffffffffffffffffffffffffffff1602179055506000809054906101000a900473ffffffffffffffffffffffffffffffffffffffff1673ffffffffffffffffffffffffffffffffffffffff16600073ffffffffffffffffffffffffffffffffffffffff167f8be0079c531659141344cd1fd0a4f28419497f9722a3daafe3b4186f6b6457e060405160405180910390a36109c6806100cf6000396000f3006080604052600436106100a4576000357c0100000000000000000000000000000000000000000000000000000000900463ffffffff16806316d9ba84146100a95780633d3c2514146100ec578063715018a61461014357806371df70cc1461015a57806379d3365a1461019d5780638da5cb5b146101f45780638f32d59b1461024b578063a3e177311461027a578063e9703929146102bd578063f2fde38b14610314575b600080fd5b3480156100b557600080fd5b506100ea600480360381019080803573ffffffffffffffffffffffffffffffffffffffff169060200190929190505050610357565b005b3480156100f857600080fd5b50610101610479565b604051808273ffffffffffffffffffffffffffffffffffffffff1673ffffffffffffffffffffffffffffffffffffffff16815260200191505060405180910390f35b34801561014f57600080fd5b5061015861049f565b005b34801561016657600080fd5b5061019b600480360381019080803573ffffffffffffffffffffffffffffffffffffffff169060200190929190505050610571565b005b3480156101a957600080fd5b506101b2610693565b604051808273ffffffffffffffffffffffffffffffffffffffff1673ffffffffffffffffffffffffffffffffffffffff16815260200191505060405180910390f35b34801561020057600080fd5b506102096106b9565b604051808273ffffffffffffffffffffffffffffffffffffffff1673ffffffffffffffffffffffffffffffffffffffff16815260200191505060405180910390f35b34801561025757600080fd5b506102606106e2565b604051808215151515815260200191505060405180910390f35b34801561028657600080fd5b506102bb600480360381019080803573ffffffffffffffffffffffffffffffffffffffff169060200190929190505050610739565b005b3480156102c957600080fd5b506102d261085b565b604051808273ffffffffffffffffffffffffffffffffffffffff1673ffffffffffffffffffffffffffffffffffffffff16815260200191505060405180910390f35b34801561032057600080fd5b50610355600480360381019080803573ffffffffffffffffffffffffffffffffffffffff169060200190929190505050610881565b005b61035f6106e2565b151561036a57600080fd5b600073ffffffffffffffffffffffffffffffffffffffff168173ffffffffffffffffffffffffffffffffffffffff1614151515610435576040517f08c379a00000000000000000000000000000000000000000000000000000000081526004018080602001828103825260228152602001807f4e657720616464726573732063616e6e6f74206265207a65726f20616464726581526020017f737300000000000000000000000000000000000000000000000000000000000081525060400191505060405180910390fd5b80600360006101000a81548173ffffffffffffffffffffffffffffffffffffffff021916908373ffffffffffffffffffffffffffffffffffffffff16021790555050565b600260009054906101000a900473ffffffffffffffffffffffffffffffffffffffff1681565b6104a76106e2565b15156104b257600080fd5b600073ffffffffffffffffffffffffffffffffffffffff166000809054906101000a900473ffffffffffffffffffffffffffffffffffffffff1673ffffffffffffffffffffffffffffffffffffffff167f8be0079c531659141344cd1fd0a4f28419497f9722a3daafe3b4186f6b6457e060405160405180910390a360008060006101000a81548173ffffffffffffffffffffffffffffffffffffffff021916908373ffffffffffffffffffffffffffffffffffffffff160217905550565b6105796106e2565b151561058457600080fd5b600073ffffffffffffffffffffffffffffffffffffffff168173ffffffffffffffffffffffffffffffffffffffff161415151561064f576040517f08c379a00000000000000000000000000000000000000000000000000000000081526004018080602001828103825260228152602001807f4e657720616464726573732063616e6e6f74206265207a65726f20616464726581526020017f737300000000000000000000000000000000000000000000000000000000000081525060400191505060405180910390fd5b80600160006101000a81548173ffffffffffffffffffffffffffffffffffffffff021916908373ffffffffffffffffffffffffffffffffffffffff16021790555050565b600160009054906101000a900473ffffffffffffffffffffffffffffffffffffffff1681565b60008060009054906101000a900473ffffffffffffffffffffffffffffffffffffffff16905090565b60008060009054906101000a900473ffffffffffffffffffffffffffffffffffffffff1673ffffffffffffffffffffffffffffffffffffffff163373ffffffffffffffffffffffffffffffffffffffff1614905090565b6107416106e2565b151561074c57600080fd5b600073ffffffffffffffffffffffffffffffffffffffff168173ffffffffffffffffffffffffffffffffffffffff1614151515610817576040517f08c379a00000000000000000000000000000000000000000000000000000000081526004018080602001828103825260228152602001807f4e657720616464726573732063616e6e6f74206265207a65726f20616464726581526020017f737300000000000000000000000000000000000000000000000000000000000081525060400191505060405180910390fd5b80600260006101000a81548173ffffffffffffffffffffffffffffffffffffffff021916908373ffffffffffffffffffffffffffffffffffffffff16021790555050565b600360009054906101000a900473ffffffffffffffffffffffffffffffffffffffff1681565b6108896106e2565b151561089457600080fd5b61089d816108a0565b50565b600073ffffffffffffffffffffffffffffffffffffffff168173ffffffffffffffffffffffffffffffffffffffff16141515156108dc57600080fd5b8073ffffffffffffffffffffffffffffffffffffffff166000809054906101000a900473ffffffffffffffffffffffffffffffffffffffff1673ffffffffffffffffffffffffffffffffffffffff167f8be0079c531659141344cd1fd0a4f28419497f9722a3daafe3b4186f6b6457e060405160405180910390a3806000806101000a81548173ffffffffffffffffffffffffffffffffffffffff021916908373ffffffffffffffffffffffffffffffffffffffff160217905550505600a165627a7a72305820e94ae1a63c0c6932d140bbfe89f525f1f92058d6e7d05966c1ff39fb04a822e80029",
  "source": "pragma solidity ^0.4.24;\n\nimport \"openzeppelin-solidity/contracts/ownership/Ownable.sol\";\n\n/**\n * @dev Extends contracts with identity setters and access-restriction modifiers\n */\ncontract AccessControlled is Ownable {\n  address public geaAddress;\n  address public giaAddress;\n  address public taAddress;\n\n  /**\n   * @dev Access modifier for GEA-only functionality\n   */\n  modifier onlyGEA() {\n    require(msg.sender == geaAddress, \"Only the Galactic Economic Authority may access this function\");\n    _;\n  }\n\n  /**\n   * @dev Access modifier for GEA-only functionality\n   */\n  modifier onlyGIA() {\n    require(msg.sender == giaAddress, \"Only the Galactic Industrial Authority may access this function\");\n    _;\n  }\n\n  /**\n   * @dev Access modifier giving permission to both GEA and GIA\n   */\n  modifier onlyGEAOrGIA {\n    require(\n      msg.sender == geaAddress || msg.sender == giaAddress,\n      \"Only the Galactic Economic Authority or Galactic Industrial Authority may access this function\"\n    );\n    _;\n  }\n\n  /**\n   * @dev Access modifier for TA-only functionality\n   */\n  modifier onlyTA() {\n    require(msg.sender == taAddress, \"Only the Temple Authority may access this function\");\n    _;\n  }\n\n  /**\n   * @dev Assigns address of the Galactic Economic Authority\n   * @param _geaAddress Address of Galactic Economic Authority contract\n   */\n  function setGEA(address _geaAddress) public onlyOwner {\n    require(_geaAddress != address(0), \"New address cannot be zero address\");\n\n    geaAddress = _geaAddress;\n  }\n\n  /**\n   * @dev Assigns address of the Galactic Industrial Authority\n   * @param _giaAddress Address of Galactic Industrial Authority contract\n   */\n  function setGIA(address _giaAddress) public onlyOwner {\n    require(_giaAddress != address(0), \"New address cannot be zero address\");\n\n    giaAddress = _giaAddress;\n  }\n\n  /**\n   * @dev Assigns address of the Temple Authority\n   * @param _taAddress Address of Temple Authority contract\n   */\n  function setTA(address _taAddress) public onlyOwner {\n    require(_taAddress != address(0), \"New address cannot be zero address\");\n\n    taAddress = _taAddress;\n  }\n}",
  "sourcePath": "/Users/jongaspar/Documents/coding/galactonomics/contracts/utils/AccessControlled.sol",
  "compiler": {
    "name": "solc",
    "version": "0.4.24+commit.e67f0147.Emscripten.clang"
  },
  "schemaVersion": "2.0.1",
  "updatedAt": "2018-11-24T02:47:03.380Z"
}