{
  "contractName": "Commodities",
  "abi": [
    {
      "constant": false,
      "inputs": [],
      "name": "renounceOwnership",
      "outputs": [],
      "payable": false,
      "stateMutability": "nonpayable",
      "type": "function"
    },
    {
      "constant": true,
      "inputs": [],
      "name": "owner",
      "outputs": [
        {
          "name": "",
          "type": "address"
        }
      ],
      "payable": false,
      "stateMutability": "view",
      "type": "function"
    },
    {
      "constant": true,
      "inputs": [],
      "name": "isOwner",
      "outputs": [
        {
          "name": "",
          "type": "bool"
        }
      ],
      "payable": false,
      "stateMutability": "view",
      "type": "function"
    },
    {
      "constant": true,
      "inputs": [
        {
          "name": "_id",
          "type": "uint8"
        }
      ],
      "name": "getCommodityInfo",
      "outputs": [
        {
          "name": "name",
          "type": "string"
        },
        {
          "name": "symbol",
          "type": "string"
        }
      ],
      "payable": false,
      "stateMutability": "view",
      "type": "function"
    },
    {
      "constant": false,
      "inputs": [
        {
          "name": "newOwner",
          "type": "address"
        }
      ],
      "name": "transferOwnership",
      "outputs": [],
      "payable": false,
      "stateMutability": "nonpayable",
      "type": "function"
    },
    {
      "constant": true,
      "inputs": [
        {
          "name": "",
          "type": "uint256"
        }
      ],
      "name": "commodities",
      "outputs": [
        {
          "name": "addr",
          "type": "address"
        },
        {
          "name": "_interface",
          "type": "address"
        },
        {
          "name": "miningAmount",
          "type": "uint256"
        },
        {
          "name": "miningTarget",
          "type": "bytes32"
        }
      ],
      "payable": false,
      "stateMutability": "view",
      "type": "function"
    },
    {
      "inputs": [
        {
          "name": "_commodities",
          "type": "address[]"
        }
      ],
      "payable": false,
      "stateMutability": "nonpayable",
      "type": "constructor"
    },
    {
      "payable": false,
      "stateMutability": "nonpayable",
      "type": "fallback"
    },
    {
      "anonymous": false,
      "inputs": [
        {
          "indexed": true,
          "name": "previousOwner",
          "type": "address"
        },
        {
          "indexed": true,
          "name": "newOwner",
          "type": "address"
        }
      ],
      "name": "OwnershipTransferred",
      "type": "event"
    },
    {
      "constant": true,
      "inputs": [
        {
          "name": "_player",
          "type": "address"
        }
      ],
      "name": "getCurrentCargo",
      "outputs": [
        {
          "name": "",
          "type": "uint256"
        }
      ],
      "payable": false,
      "stateMutability": "view",
      "type": "function"
    },
    {
      "constant": true,
      "inputs": [
        {
          "name": "_id",
          "type": "uint8"
        }
      ],
      "name": "get",
      "outputs": [
        {
          "name": "addr",
          "type": "address"
        },
        {
          "name": "name",
          "type": "string"
        },
        {
          "name": "symbol",
          "type": "string"
        },
        {
          "name": "miningAmount",
          "type": "uint256"
        },
        {
          "name": "miningTarget",
          "type": "bytes32"
        }
      ],
      "payable": false,
      "stateMutability": "view",
      "type": "function"
    },
    {
      "constant": true,
      "inputs": [
        {
          "name": "_id",
          "type": "uint8"
        }
      ],
      "name": "getName",
      "outputs": [
        {
          "name": "",
          "type": "string"
        }
      ],
      "payable": false,
      "stateMutability": "view",
      "type": "function"
    },
    {
      "constant": true,
      "inputs": [
        {
          "name": "_id",
          "type": "uint8"
        }
      ],
      "name": "getSymbol",
      "outputs": [
        {
          "name": "",
          "type": "string"
        }
      ],
      "payable": false,
      "stateMutability": "view",
      "type": "function"
    },
    {
      "constant": true,
      "inputs": [
        {
          "name": "_id",
          "type": "uint8"
        }
      ],
      "name": "getMiningAmount",
      "outputs": [
        {
          "name": "",
          "type": "uint256"
        }
      ],
      "payable": false,
      "stateMutability": "view",
      "type": "function"
    },
    {
      "constant": true,
      "inputs": [
        {
          "name": "_id",
          "type": "uint8"
        }
      ],
      "name": "getMiningTarget",
      "outputs": [
        {
          "name": "",
          "type": "bytes32"
        }
      ],
      "payable": false,
      "stateMutability": "view",
      "type": "function"
    },
    {
      "constant": true,
      "inputs": [
        {
          "name": "_id",
          "type": "uint8"
        }
      ],
      "name": "getBalance",
      "outputs": [
        {
          "name": "",
          "type": "uint256"
        }
      ],
      "payable": false,
      "stateMutability": "view",
      "type": "function"
    },
    {
      "constant": true,
      "inputs": [
        {
          "name": "_id",
          "type": "uint8"
        }
      ],
      "name": "getInterface",
      "outputs": [
        {
          "name": "",
          "type": "address"
        }
      ],
      "payable": false,
      "stateMutability": "view",
      "type": "function"
    },
    {
      "constant": true,
      "inputs": [
        {
          "name": "_id",
          "type": "uint8"
        }
      ],
      "name": "getAddress",
      "outputs": [
        {
          "name": "",
          "type": "address"
        }
      ],
      "payable": false,
      "stateMutability": "view",
      "type": "function"
    }
  ],
  "bytecode": "0x608060405234801561001057600080fd5b50604051611690380380611690833981018060405281019080805182019291905050506000336000806101000a81548173ffffffffffffffffffffffffffffffffffffffff021916908373ffffffffffffffffffffffffffffffffffffffff1602179055506000809054906101000a900473ffffffffffffffffffffffffffffffffffffffff1673ffffffffffffffffffffffffffffffffffffffff16600073ffffffffffffffffffffffffffffffffffffffff167f8be0079c531659141344cd1fd0a4f28419497f9722a3daafe3b4186f6b6457e060405160405180910390a3600090505b815181101561026e57608060405190810160405280838381518110151561011957fe5b9060200190602002015173ffffffffffffffffffffffffffffffffffffffff168152602001838381518110151561014c57fe5b9060200190602002015173ffffffffffffffffffffffffffffffffffffffff168152602001611f4081526020017e0fffffffffffffffffffffffffffffffffffffffffffffffffffffffffffff600102600019168152506001826007811015156101b257fe5b6004020160008201518160000160006101000a81548173ffffffffffffffffffffffffffffffffffffffff021916908373ffffffffffffffffffffffffffffffffffffffff16021790555060208201518160010160006101000a81548173ffffffffffffffffffffffffffffffffffffffff021916908373ffffffffffffffffffffffffffffffffffffffff160217905550604082015181600201556060820151816003019060001916905590505080806001019150506100f6565b50506114118061027f6000396000f3006080604052600436106100db576000357c0100000000000000000000000000000000000000000000000000000000900463ffffffff16806358e57e84146100ea57806360583ec514610136578063618b220f146101a657806368f308521461024f578063715018a6146102a65780638da5cb5b146102bd5780638f32d59b1461031457806391a4a66814610343578063afe2652b146103ec578063bcaa0c5514610430578063dfefa78f146104a0578063e3a12480146105b5578063f2fde38b146105f9578063f72d0b3b1461063c578063fcfd84e21461079a575b3480156100e757600080fd5b50005b3480156100f657600080fd5b50610118600480360381019080803560ff169060200190929190505050610850565b60405180826000191660001916815260200191505060405180910390f35b34801561014257600080fd5b50610164600480360381019080803560ff169060200190929190505050610873565b604051808273ffffffffffffffffffffffffffffffffffffffff1673ffffffffffffffffffffffffffffffffffffffff16815260200191505060405180910390f35b3480156101b257600080fd5b506101d4600480360381019080803560ff1690602001909291905050506108b6565b6040518080602001828103825283818151815260200191508051906020019080838360005b838110156102145780820151818401526020810190506101f9565b50505050905090810190601f1680156102415780820380516001836020036101000a031916815260200191505b509250505060405180910390f35b34801561025b57600080fd5b50610290600480360381019080803573ffffffffffffffffffffffffffffffffffffffff1690602001909291905050506109ed565b6040518082815260200191505060405180910390f35b3480156102b257600080fd5b506102bb610b42565b005b3480156102c957600080fd5b506102d2610c14565b604051808273ffffffffffffffffffffffffffffffffffffffff1673ffffffffffffffffffffffffffffffffffffffff16815260200191505060405180910390f35b34801561032057600080fd5b50610329610c3d565b604051808215151515815260200191505060405180910390f35b34801561034f57600080fd5b50610371600480360381019080803560ff169060200190929190505050610c94565b6040518080602001828103825283818151815260200191508051906020019080838360005b838110156103b1578082015181840152602081019050610396565b50505050905090810190601f1680156103de5780820380516001836020036101000a031916815260200191505b509250505060405180910390f35b3480156103f857600080fd5b5061041a600480360381019080803560ff169060200190929190505050610dcb565b6040518082815260200191505060405180910390f35b34801561043c57600080fd5b5061045e600480360381019080803560ff169060200190929190505050610dee565b604051808273ffffffffffffffffffffffffffffffffffffffff1673ffffffffffffffffffffffffffffffffffffffff16815260200191505060405180910390f35b3480156104ac57600080fd5b506104ce600480360381019080803560ff169060200190929190505050610e31565b604051808060200180602001838103835285818151815260200191508051906020019080838360005b838110156105125780820151818401526020810190506104f7565b50505050905090810190601f16801561053f5780820380516001836020036101000a031916815260200191505b50838103825284818151815260200191508051906020019080838360005b8381101561057857808201518184015260208101905061055d565b50505050905090810190601f1680156105a55780820380516001836020036101000a031916815260200191505b5094505050505060405180910390f35b3480156105c157600080fd5b506105e3600480360381019080803560ff169060200190929190505050610e39565b6040518082815260200191505060405180910390f35b34801561060557600080fd5b5061063a600480360381019080803573ffffffffffffffffffffffffffffffffffffffff169060200190929190505050610f51565b005b34801561064857600080fd5b5061066a600480360381019080803560ff169060200190929190505050610f70565b604051808673ffffffffffffffffffffffffffffffffffffffff1673ffffffffffffffffffffffffffffffffffffffff16815260200180602001806020018581526020018460001916600019168152602001838103835287818151815260200191508051906020019080838360005b838110156106f45780820151818401526020810190506106d9565b50505050905090810190601f1680156107215780820380516001836020036101000a031916815260200191505b50838103825286818151815260200191508051906020019080838360005b8381101561075a57808201518184015260208101905061073f565b50505050905090810190601f1680156107875780820380516001836020036101000a031916815260200191505b5097505050505050505060405180910390f35b3480156107a657600080fd5b506107c560048036038101908080359060200190929190505050611255565b604051808573ffffffffffffffffffffffffffffffffffffffff1673ffffffffffffffffffffffffffffffffffffffff1681526020018473ffffffffffffffffffffffffffffffffffffffff1673ffffffffffffffffffffffffffffffffffffffff168152602001838152602001826000191660001916815260200194505050505060405180910390f35b600060018260ff1660078110151561086457fe5b60040201600301549050919050565b600060018260ff1660078110151561088757fe5b6004020160010160009054906101000a900473ffffffffffffffffffffffffffffffffffffffff169050919050565b606060018260ff166007811015156108ca57fe5b6004020160010160009054906101000a900473ffffffffffffffffffffffffffffffffffffffff1673ffffffffffffffffffffffffffffffffffffffff166306fdde036040518163ffffffff167c0100000000000000000000000000000000000000000000000000000000028152600401600060405180830381600087803b15801561095557600080fd5b505af1158015610969573d6000803e3d6000fd5b505050506040513d6000823e3d601f19601f82011682018060405250602081101561099357600080fd5b8101908080516401000000008111156109ab57600080fd5b828101905060208101848111156109c157600080fd5b81518560018202830111640100000000821117156109de57600080fd5b50509291905050509050919050565b600080600080600091505b60078260ff161015610b375760018260ff16600781101515610a1657fe5b6004020160010160009054906101000a900473ffffffffffffffffffffffffffffffffffffffff1673ffffffffffffffffffffffffffffffffffffffff166370a08231866040518263ffffffff167c0100000000000000000000000000000000000000000000000000000000028152600401808273ffffffffffffffffffffffffffffffffffffffff1673ffffffffffffffffffffffffffffffffffffffff168152602001915050602060405180830381600087803b158015610ad857600080fd5b505af1158015610aec573d6000803e3d6000fd5b505050506040513d6020811015610b0257600080fd5b81019080805190602001909291905050509050610b2881846112ca90919063ffffffff16565b925081806001019250506109f8565b829350505050919050565b610b4a610c3d565b1515610b5557600080fd5b600073ffffffffffffffffffffffffffffffffffffffff166000809054906101000a900473ffffffffffffffffffffffffffffffffffffffff1673ffffffffffffffffffffffffffffffffffffffff167f8be0079c531659141344cd1fd0a4f28419497f9722a3daafe3b4186f6b6457e060405160405180910390a360008060006101000a81548173ffffffffffffffffffffffffffffffffffffffff021916908373ffffffffffffffffffffffffffffffffffffffff160217905550565b60008060009054906101000a900473ffffffffffffffffffffffffffffffffffffffff16905090565b60008060009054906101000a900473ffffffffffffffffffffffffffffffffffffffff1673ffffffffffffffffffffffffffffffffffffffff163373ffffffffffffffffffffffffffffffffffffffff1614905090565b606060018260ff16600781101515610ca857fe5b6004020160010160009054906101000a900473ffffffffffffffffffffffffffffffffffffffff1673ffffffffffffffffffffffffffffffffffffffff166395d89b416040518163ffffffff167c0100000000000000000000000000000000000000000000000000000000028152600401600060405180830381600087803b158015610d3357600080fd5b505af1158015610d47573d6000803e3d6000fd5b505050506040513d6000823e3d601f19601f820116820180604052506020811015610d7157600080fd5b810190808051640100000000811115610d8957600080fd5b82810190506020810184811115610d9f57600080fd5b8151856001820283011164010000000082111715610dbc57600080fd5b50509291905050509050919050565b600060018260ff16600781101515610ddf57fe5b60040201600201549050919050565b600060018260ff16600781101515610e0257fe5b6004020160000160009054906101000a900473ffffffffffffffffffffffffffffffffffffffff169050919050565b606080915091565b600060018260ff16600781101515610e4d57fe5b6004020160010160009054906101000a900473ffffffffffffffffffffffffffffffffffffffff1673ffffffffffffffffffffffffffffffffffffffff166370a08231336040518263ffffffff167c0100000000000000000000000000000000000000000000000000000000028152600401808273ffffffffffffffffffffffffffffffffffffffff1673ffffffffffffffffffffffffffffffffffffffff168152602001915050602060405180830381600087803b158015610f0f57600080fd5b505af1158015610f23573d6000803e3d6000fd5b505050506040513d6020811015610f3957600080fd5b81019080805190602001909291905050509050919050565b610f59610c3d565b1515610f6457600080fd5b610f6d816112eb565b50565b600060608060008060018660ff16600781101515610f8a57fe5b6004020160000160009054906101000a900473ffffffffffffffffffffffffffffffffffffffff1660018760ff16600781101515610fc457fe5b6004020160010160009054906101000a900473ffffffffffffffffffffffffffffffffffffffff1673ffffffffffffffffffffffffffffffffffffffff166306fdde036040518163ffffffff167c0100000000000000000000000000000000000000000000000000000000028152600401600060405180830381600087803b15801561104f57600080fd5b505af1158015611063573d6000803e3d6000fd5b505050506040513d6000823e3d601f19601f82011682018060405250602081101561108d57600080fd5b8101908080516401000000008111156110a557600080fd5b828101905060208101848111156110bb57600080fd5b81518560018202830111640100000000821117156110d857600080fd5b505092919050505060018860ff166007811015156110f257fe5b6004020160010160009054906101000a900473ffffffffffffffffffffffffffffffffffffffff1673ffffffffffffffffffffffffffffffffffffffff166395d89b416040518163ffffffff167c0100000000000000000000000000000000000000000000000000000000028152600401600060405180830381600087803b15801561117d57600080fd5b505af1158015611191573d6000803e3d6000fd5b505050506040513d6000823e3d601f19601f8201168201806040525060208110156111bb57600080fd5b8101908080516401000000008111156111d357600080fd5b828101905060208101848111156111e957600080fd5b815185600182028301116401000000008211171561120657600080fd5b505092919050505060018960ff1660078110151561122057fe5b600402016002015460018a60ff1660078110151561123a57fe5b60040201600301549450945094509450945091939590929450565b60018160078110151561126457fe5b600402016000915090508060000160009054906101000a900473ffffffffffffffffffffffffffffffffffffffff16908060010160009054906101000a900473ffffffffffffffffffffffffffffffffffffffff16908060020154908060030154905084565b60008082840190508381101515156112e157600080fd5b8091505092915050565b600073ffffffffffffffffffffffffffffffffffffffff168173ffffffffffffffffffffffffffffffffffffffff161415151561132757600080fd5b8073ffffffffffffffffffffffffffffffffffffffff166000809054906101000a900473ffffffffffffffffffffffffffffffffffffffff1673ffffffffffffffffffffffffffffffffffffffff167f8be0079c531659141344cd1fd0a4f28419497f9722a3daafe3b4186f6b6457e060405160405180910390a3806000806101000a81548173ffffffffffffffffffffffffffffffffffffffff021916908373ffffffffffffffffffffffffffffffffffffffff160217905550505600a165627a7a72305820d22a360292a19ac310ef8d2d2f093d2582a23843f80430d514ef69e9d99954960029",
  "source": "pragma solidity ^0.4.24;\n\nimport \"openzeppelin-solidity/contracts/math/SafeMath.sol\";\nimport \"openzeppelin-solidity/contracts/ownership/Ownable.sol\";\nimport \"./items/Commodity.sol\";\nimport \"./interfaces/ICommodity.sol\";\nimport \"./interfaces/ICommodities.sol\";\n\n/**\n * @title Commodities\n *\n * @notice This contracts holds all data on the commodities\n */\ncontract Commodities is ICommodities, Ownable {\n  using SafeMath for uint;\n\n  struct CommodityData {\n    address addr;\n    ICommodity _interface;\n    uint miningAmount;\n    bytes32 miningTarget;\n  }\n\n  // Array storing all info for each commodity\n  CommodityData[7] public commodities;\n\n  constructor(address[] _commodities) public {\n    for (uint i = 0; i < _commodities.length; i++) {\n      commodities[i] = CommodityData(\n        _commodities[i],\n        ICommodity(_commodities[i]),\n        8000,\n        bytes32(0x000fffffffffffffffffffffffffffffffffffffffffffffffffffffffffffff)\n      );\n    }\n  }\n\n  function getCurrentCargo(address _player) external view returns (uint) {\n    uint currentCargo;\n    for (uint8 i = 0; i < commodities.length; i++) {\n      uint cargoToAdd = commodities[i]._interface.balanceOf(_player);\n      currentCargo = currentCargo.add(cargoToAdd);\n    }\n    return currentCargo;\n  }\n\n  function get(uint8 _id) external view returns (\n    address addr,\n    string name,\n    string symbol,\n    uint miningAmount,\n    bytes32 miningTarget\n  ) {\n    return (\n      commodities[_id].addr,\n      commodities[_id]._interface.name(),\n      commodities[_id]._interface.symbol(),\n      commodities[_id].miningAmount,\n      commodities[_id].miningTarget\n    );\n  }\n\n  function getName(uint8 _id) external view returns (string) {\n    return commodities[_id]._interface.name();\n  }\n\n  function getSymbol(uint8 _id) external view returns (string) {\n    return commodities[_id]._interface.symbol();\n  }\n\n  function getMiningAmount(uint8 _id) external view returns (uint) {\n    return commodities[_id].miningAmount;\n  }\n\n  function getMiningTarget(uint8 _id) external view returns (bytes32) {\n    return commodities[_id].miningTarget;\n  }\n\n  function getBalance(uint8 _id) external view returns (uint) {\n    return commodities[_id]._interface.balanceOf(msg.sender);\n  }\n\n  function getInterface(uint8 _id) external view returns (ICommodity) {\n    return commodities[_id]._interface;\n  }\n\n  function getAddress(uint8 _id) external view returns (address) {\n    return commodities[_id].addr;\n  }\n\n  function() public {}\n}\n",
  "sourcePath": "/Users/jongaspar/Documents/coding/galactonomics/contracts/Commodities.sol",
  "compiler": {
    "name": "solc",
    "version": "0.4.24+commit.e67f0147.Emscripten.clang"
  },
  "schemaVersion": "2.0.1",
  "updatedAt": "2018-11-24T05:02:06.359Z"
}