{
  "contractName": "CommodityInteractor",
  "abi": [
    {
      "constant": true,
      "inputs": [
        {
          "name": "",
          "type": "uint256"
        }
      ],
      "name": "commodities",
      "outputs": [
        {
          "name": "addr",
          "type": "address"
        },
        {
          "name": "_interface",
          "type": "address"
        },
        {
          "name": "miningCost",
          "type": "uint256"
        },
        {
          "name": "miningAmount",
          "type": "uint256"
        },
        {
          "name": "miningDuration",
          "type": "uint256"
        }
      ],
      "payable": false,
      "stateMutability": "view",
      "type": "function"
    },
    {
      "inputs": [
        {
          "name": "_commodityAddresses",
          "type": "address[]"
        }
      ],
      "payable": false,
      "stateMutability": "nonpayable",
      "type": "constructor"
    },
    {
      "constant": true,
      "inputs": [
        {
          "name": "_commodityId",
          "type": "uint8"
        }
      ],
      "name": "getCommodity",
      "outputs": [
        {
          "name": "name",
          "type": "string"
        },
        {
          "name": "symbol",
          "type": "string"
        },
        {
          "name": "addr",
          "type": "address"
        },
        {
          "name": "miningCost",
          "type": "uint256"
        },
        {
          "name": "miningAmount",
          "type": "uint256"
        },
        {
          "name": "miningDuration",
          "type": "uint256"
        }
      ],
      "payable": false,
      "stateMutability": "view",
      "type": "function"
    },
    {
      "constant": true,
      "inputs": [
        {
          "name": "_player",
          "type": "address"
        }
      ],
      "name": "getCurrentCargo",
      "outputs": [
        {
          "name": "",
          "type": "uint256"
        }
      ],
      "payable": false,
      "stateMutability": "view",
      "type": "function"
    },
    {
      "constant": true,
      "inputs": [
        {
          "name": "_id",
          "type": "uint8"
        }
      ],
      "name": "getCommodityInfo",
      "outputs": [
        {
          "name": "name",
          "type": "string"
        },
        {
          "name": "symbol",
          "type": "string"
        }
      ],
      "payable": false,
      "stateMutability": "view",
      "type": "function"
    },
    {
      "constant": true,
      "inputs": [
        {
          "name": "_id",
          "type": "uint8"
        }
      ],
      "name": "getCommodityBalance",
      "outputs": [
        {
          "name": "",
          "type": "uint256"
        }
      ],
      "payable": false,
      "stateMutability": "view",
      "type": "function"
    }
  ],
  "bytecode": "0x608060405234801561001057600080fd5b50604051610efc380380610efc8339810180604052810190808051820192919050505060008090505b60078160ff1610156101a35760a060405190810160405280838360ff1681518110151561006257fe5b9060200190602002015173ffffffffffffffffffffffffffffffffffffffff168152602001838360ff1681518110151561009857fe5b9060200190602002015173ffffffffffffffffffffffffffffffffffffffff168152602001606481526020016103e88152602001600881525060008260ff166007811015156100e357fe5b6005020160008201518160000160006101000a81548173ffffffffffffffffffffffffffffffffffffffff021916908373ffffffffffffffffffffffffffffffffffffffff16021790555060208201518160010160006101000a81548173ffffffffffffffffffffffffffffffffffffffff021916908373ffffffffffffffffffffffffffffffffffffffff1602179055506040820151816002015560608201518160030155608082015181600401559050508080600101915050610039565b5050610d48806101b46000396000f30060806040526004361061006d576000357c0100000000000000000000000000000000000000000000000000000000900463ffffffff16806330609cf91461007257806368f30852146100b6578063dfefa78f1461010d578063f4dc6cee14610222578063fcfd84e21461037f575b600080fd5b34801561007e57600080fd5b506100a0600480360381019080803560ff169060200190929190505050610434565b6040518082815260200191505060405180910390f35b3480156100c257600080fd5b506100f7600480360381019080803573ffffffffffffffffffffffffffffffffffffffff16906020019092919050505061054b565b6040518082815260200191505060405180910390f35b34801561011957600080fd5b5061013b600480360381019080803560ff1690602001909291905050506106a0565b604051808060200180602001838103835285818151815260200191508051906020019080838360005b8381101561017f578082015181840152602081019050610164565b50505050905090810190601f1680156101ac5780820380516001836020036101000a031916815260200191505b50838103825284818151815260200191508051906020019080838360005b838110156101e55780820151818401526020810190506101ca565b50505050905090810190601f1680156102125780820380516001836020036101000a031916815260200191505b5094505050505060405180910390f35b34801561022e57600080fd5b50610250600480360381019080803560ff169060200190929190505050610908565b6040518080602001806020018773ffffffffffffffffffffffffffffffffffffffff1673ffffffffffffffffffffffffffffffffffffffff168152602001868152602001858152602001848152602001838103835289818151815260200191508051906020019080838360005b838110156102d85780820151818401526020810190506102bd565b50505050905090810190601f1680156103055780820380516001836020036101000a031916815260200191505b50838103825288818151815260200191508051906020019080838360005b8381101561033e578082015181840152602081019050610323565b50505050905090810190601f16801561036b5780820380516001836020036101000a031916815260200191505b509850505050505050505060405180910390f35b34801561038b57600080fd5b506103aa60048036038101908080359060200190929190505050610c24565b604051808673ffffffffffffffffffffffffffffffffffffffff1673ffffffffffffffffffffffffffffffffffffffff1681526020018573ffffffffffffffffffffffffffffffffffffffff1673ffffffffffffffffffffffffffffffffffffffff1681526020018481526020018381526020018281526020019550505050505060405180910390f35b6000808260ff1660078110151561044757fe5b6005020160010160009054906101000a900473ffffffffffffffffffffffffffffffffffffffff1673ffffffffffffffffffffffffffffffffffffffff166370a08231336040518263ffffffff167c0100000000000000000000000000000000000000000000000000000000028152600401808273ffffffffffffffffffffffffffffffffffffffff1673ffffffffffffffffffffffffffffffffffffffff168152602001915050602060405180830381600087803b15801561050957600080fd5b505af115801561051d573d6000803e3d6000fd5b505050506040513d602081101561053357600080fd5b81019080805190602001909291905050509050919050565b600080600080600091505b60078260ff1610156106955760008260ff1660078110151561057457fe5b6005020160010160009054906101000a900473ffffffffffffffffffffffffffffffffffffffff1673ffffffffffffffffffffffffffffffffffffffff166370a08231866040518263ffffffff167c0100000000000000000000000000000000000000000000000000000000028152600401808273ffffffffffffffffffffffffffffffffffffffff1673ffffffffffffffffffffffffffffffffffffffff168152602001915050602060405180830381600087803b15801561063657600080fd5b505af115801561064a573d6000803e3d6000fd5b505050506040513d602081101561066057600080fd5b810190808051906020019092919050505090506106868184610c9f90919063ffffffff16565b92508180600101925050610556565b829350505050919050565b60608060008360ff166007811015156106b557fe5b6005020160010160009054906101000a900473ffffffffffffffffffffffffffffffffffffffff1673ffffffffffffffffffffffffffffffffffffffff166306fdde036040518163ffffffff167c0100000000000000000000000000000000000000000000000000000000028152600401600060405180830381600087803b15801561074057600080fd5b505af1158015610754573d6000803e3d6000fd5b505050506040513d6000823e3d601f19601f82011682018060405250602081101561077e57600080fd5b81019080805164010000000081111561079657600080fd5b828101905060208101848111156107ac57600080fd5b81518560018202830111640100000000821117156107c957600080fd5b505092919050505060008460ff166007811015156107e357fe5b6005020160010160009054906101000a900473ffffffffffffffffffffffffffffffffffffffff1673ffffffffffffffffffffffffffffffffffffffff166395d89b416040518163ffffffff167c0100000000000000000000000000000000000000000000000000000000028152600401600060405180830381600087803b15801561086e57600080fd5b505af1158015610882573d6000803e3d6000fd5b505050506040513d6000823e3d601f19601f8201168201806040525060208110156108ac57600080fd5b8101908080516401000000008111156108c457600080fd5b828101905060208101848111156108da57600080fd5b81518560018202830111640100000000821117156108f757600080fd5b505092919050505091509150915091565b606080600080600080610919610cc0565b6000808960ff1660078110151561092c57fe5b6005020160a060405190810160405290816000820160009054906101000a900473ffffffffffffffffffffffffffffffffffffffff1673ffffffffffffffffffffffffffffffffffffffff1673ffffffffffffffffffffffffffffffffffffffff1681526020016001820160009054906101000a900473ffffffffffffffffffffffffffffffffffffffff1673ffffffffffffffffffffffffffffffffffffffff1673ffffffffffffffffffffffffffffffffffffffff16815260200160028201548152602001600382015481526020016004820154815250509150816000015190508073ffffffffffffffffffffffffffffffffffffffff166306fdde036040518163ffffffff167c0100000000000000000000000000000000000000000000000000000000028152600401600060405180830381600087803b158015610a7357600080fd5b505af1158015610a87573d6000803e3d6000fd5b505050506040513d6000823e3d601f19601f820116820180604052506020811015610ab157600080fd5b810190808051640100000000811115610ac957600080fd5b82810190506020810184811115610adf57600080fd5b8151856001820283011164010000000082111715610afc57600080fd5b50509291905050508173ffffffffffffffffffffffffffffffffffffffff166395d89b416040518163ffffffff167c0100000000000000000000000000000000000000000000000000000000028152600401600060405180830381600087803b158015610b6857600080fd5b505af1158015610b7c573d6000803e3d6000fd5b505050506040513d6000823e3d601f19601f820116820180604052506020811015610ba657600080fd5b810190808051640100000000811115610bbe57600080fd5b82810190506020810184811115610bd457600080fd5b8151856001820283011164010000000082111715610bf157600080fd5b50509291905050508360000151846040015185606001518660800151975097509750975097509750505091939550919395565b600081600781101515610c3357fe5b600502016000915090508060000160009054906101000a900473ffffffffffffffffffffffffffffffffffffffff16908060010160009054906101000a900473ffffffffffffffffffffffffffffffffffffffff16908060020154908060030154908060040154905085565b6000808284019050838110151515610cb657600080fd5b8091505092915050565b60a060405190810160405280600073ffffffffffffffffffffffffffffffffffffffff168152602001600073ffffffffffffffffffffffffffffffffffffffff16815260200160008152602001600081526020016000815250905600a165627a7a72305820b2123a64cf055f92266e611a667564dd3e38a799fc3867676272937573ce15180029",
  "source": "pragma solidity ^0.4.24;\n\nimport \"openzeppelin-solidity/contracts/math/SafeMath.sol\";\nimport \"../items/Commodity.sol\";\nimport \"../interfaces/ICommodity.sol\";\n\n/**\n * @dev Extends a contract with convenient functions for interacting with Commodity contracts\n */\ncontract CommodityInteractor {\n  using SafeMath for uint;\n\n  struct CommodityData {\n    address addr;\n    ICommodity _interface;\n    uint miningCost;\n    uint miningAmount;\n    uint miningDuration;\n  }\n\n  CommodityData[7] public commodities;\n\n  constructor(address[] _commodityAddresses) public {\n    for (uint8 i = 0; i < commodities.length; i++) {\n      commodities[i] = CommodityData(\n        _commodityAddresses[i],\n        ICommodity(_commodityAddresses[i]),\n        100,\n        1000,\n        8\n      );\n    }\n  }\n\n\n  // View functions\n\n  function getCommodity(uint8 _commodityId) external view returns (\n    string name,\n    string symbol,\n    address addr,\n    uint miningCost,\n    uint miningAmount,\n    uint miningDuration\n  ) {\n    CommodityData memory commodityData = commodities[_commodityId];\n    Commodity commodity = Commodity(commodityData.addr);\n    return (\n      commodity.name(),\n      commodity.symbol(),\n      commodityData.addr,\n      commodityData.miningCost,\n      commodityData.miningAmount,\n      commodityData.miningDuration\n    );\n  }\n\n  function getCurrentCargo(address _player) public view returns (uint) {\n    uint currentCargo;\n    for (uint8 i = 0; i < commodities.length; i++) {\n      uint cargoToAdd = commodities[i]._interface.balanceOf(_player);\n      currentCargo = currentCargo.add(cargoToAdd);\n    }\n    return currentCargo;\n  }\n\n  function getCommodityInfo(uint8 _id) external view returns (string name, string symbol) {\n    return (commodities[_id]._interface.name(), commodities[_id]._interface.symbol());\n  }\n\n  function getCommodityBalance(uint8 _id) external view returns (uint) {\n    return (\n      commodities[_id]._interface.balanceOf(msg.sender),\n    );\n  }\n}",
  "sourcePath": "/Users/jongaspar/Documents/coding/galactonomics/contracts/utils/CommodityInteractor.sol",
  "compiler": {
    "name": "solc",
    "version": "0.4.24+commit.e67f0147.Emscripten.clang"
  },
  "schemaVersion": "2.0.1",
  "updatedAt": "2018-11-19T05:40:25.814Z"
}