{
  "contractName": "Commodities",
  "abi": [
    {
      "constant": false,
      "inputs": [],
      "name": "renounceOwnership",
      "outputs": [],
      "payable": false,
      "stateMutability": "nonpayable",
      "type": "function"
    },
    {
      "constant": true,
      "inputs": [],
      "name": "owner",
      "outputs": [
        {
          "name": "",
          "type": "address"
        }
      ],
      "payable": false,
      "stateMutability": "view",
      "type": "function"
    },
    {
      "constant": true,
      "inputs": [],
      "name": "isOwner",
      "outputs": [
        {
          "name": "",
          "type": "bool"
        }
      ],
      "payable": false,
      "stateMutability": "view",
      "type": "function"
    },
    {
      "constant": true,
      "inputs": [
        {
          "name": "_id",
          "type": "uint8"
        }
      ],
      "name": "getCommodityInfo",
      "outputs": [
        {
          "name": "name",
          "type": "string"
        },
        {
          "name": "symbol",
          "type": "string"
        }
      ],
      "payable": false,
      "stateMutability": "view",
      "type": "function"
    },
    {
      "constant": false,
      "inputs": [
        {
          "name": "newOwner",
          "type": "address"
        }
      ],
      "name": "transferOwnership",
      "outputs": [],
      "payable": false,
      "stateMutability": "nonpayable",
      "type": "function"
    },
    {
      "constant": true,
      "inputs": [
        {
          "name": "",
          "type": "uint256"
        }
      ],
      "name": "commodities",
      "outputs": [
        {
          "name": "",
          "type": "address"
        }
      ],
      "payable": false,
      "stateMutability": "view",
      "type": "function"
    },
    {
      "inputs": [
        {
          "name": "_commodities",
          "type": "address[]"
        }
      ],
      "payable": false,
      "stateMutability": "nonpayable",
      "type": "constructor"
    },
    {
      "payable": false,
      "stateMutability": "nonpayable",
      "type": "fallback"
    },
    {
      "anonymous": false,
      "inputs": [
        {
          "indexed": true,
          "name": "previousOwner",
          "type": "address"
        },
        {
          "indexed": true,
          "name": "newOwner",
          "type": "address"
        }
      ],
      "name": "OwnershipTransferred",
      "type": "event"
    },
    {
      "constant": true,
      "inputs": [
        {
          "name": "_player",
          "type": "address"
        }
      ],
      "name": "getCurrentCargo",
      "outputs": [
        {
          "name": "",
          "type": "uint256"
        }
      ],
      "payable": false,
      "stateMutability": "view",
      "type": "function"
    },
    {
      "constant": true,
      "inputs": [
        {
          "name": "_id",
          "type": "uint8"
        }
      ],
      "name": "get",
      "outputs": [
        {
          "name": "name",
          "type": "string"
        },
        {
          "name": "symbol",
          "type": "string"
        },
        {
          "name": "miningReward",
          "type": "uint256"
        },
        {
          "name": "miningTarget",
          "type": "bytes32"
        },
        {
          "name": "timesMined",
          "type": "uint256"
        },
        {
          "name": "prevMiningHash",
          "type": "bytes32"
        }
      ],
      "payable": false,
      "stateMutability": "view",
      "type": "function"
    },
    {
      "constant": true,
      "inputs": [
        {
          "name": "_id",
          "type": "uint8"
        }
      ],
      "name": "getName",
      "outputs": [
        {
          "name": "",
          "type": "string"
        }
      ],
      "payable": false,
      "stateMutability": "view",
      "type": "function"
    },
    {
      "constant": true,
      "inputs": [
        {
          "name": "_id",
          "type": "uint8"
        }
      ],
      "name": "getSymbol",
      "outputs": [
        {
          "name": "",
          "type": "string"
        }
      ],
      "payable": false,
      "stateMutability": "view",
      "type": "function"
    },
    {
      "constant": true,
      "inputs": [
        {
          "name": "_id",
          "type": "uint8"
        }
      ],
      "name": "getMiningReward",
      "outputs": [
        {
          "name": "",
          "type": "uint256"
        }
      ],
      "payable": false,
      "stateMutability": "view",
      "type": "function"
    },
    {
      "constant": true,
      "inputs": [
        {
          "name": "_id",
          "type": "uint8"
        }
      ],
      "name": "getMiningTarget",
      "outputs": [
        {
          "name": "",
          "type": "bytes32"
        }
      ],
      "payable": false,
      "stateMutability": "view",
      "type": "function"
    },
    {
      "constant": true,
      "inputs": [
        {
          "name": "_id",
          "type": "uint8"
        }
      ],
      "name": "getBalance",
      "outputs": [
        {
          "name": "",
          "type": "uint256"
        }
      ],
      "payable": false,
      "stateMutability": "view",
      "type": "function"
    },
    {
      "constant": true,
      "inputs": [
        {
          "name": "_id",
          "type": "uint8"
        }
      ],
      "name": "getInterface",
      "outputs": [
        {
          "name": "",
          "type": "address"
        }
      ],
      "payable": false,
      "stateMutability": "view",
      "type": "function"
    }
  ],
  "bytecode": "0x608060405234801561001057600080fd5b50604051611853380380611853833981018060405281019080805182019291905050506000336000806101000a81548173ffffffffffffffffffffffffffffffffffffffff021916908373ffffffffffffffffffffffffffffffffffffffff1602179055506000809054906101000a900473ffffffffffffffffffffffffffffffffffffffff1673ffffffffffffffffffffffffffffffffffffffff16600073ffffffffffffffffffffffffffffffffffffffff167f8be0079c531659141344cd1fd0a4f28419497f9722a3daafe3b4186f6b6457e060405160405180910390a3600090505b815181101561017257818181518110151561010d57fe5b9060200190602002015160018260078110151561012657fe5b0160006101000a81548173ffffffffffffffffffffffffffffffffffffffff021916908373ffffffffffffffffffffffffffffffffffffffff16021790555080806001019150506100f6565b50506116d0806101836000396000f3006080604052600436106100d0576000357c0100000000000000000000000000000000000000000000000000000000900463ffffffff1680630b298f62146100df57806358e57e841461012357806360583ec51461016f578063618b220f146101df57806368f3085214610288578063715018a6146102df5780638da5cb5b146102f65780638f32d59b1461034d57806391a4a6681461037c578063dfefa78f14610425578063e3a124801461053a578063f2fde38b1461057e578063f72d0b3b146105c1578063fcfd84e214610702575b3480156100dc57600080fd5b50005b3480156100eb57600080fd5b5061010d600480360381019080803560ff16906020019092919050505061076f565b6040518082815260200191505060405180910390f35b34801561012f57600080fd5b50610151600480360381019080803560ff16906020019092919050505061084a565b60405180826000191660001916815260200191505060405180910390f35b34801561017b57600080fd5b5061019d600480360381019080803560ff169060200190929190505050610925565b604051808273ffffffffffffffffffffffffffffffffffffffff1673ffffffffffffffffffffffffffffffffffffffff16815260200191505060405180910390f35b3480156101eb57600080fd5b5061020d600480360381019080803560ff169060200190929190505050610962565b6040518080602001828103825283818151815260200191508051906020019080838360005b8381101561024d578082015181840152602081019050610232565b50505050905090810190601f16801561027a5780820380516001836020036101000a031916815260200191505b509250505060405180910390f35b34801561029457600080fd5b506102c9600480360381019080803573ffffffffffffffffffffffffffffffffffffffff169060200190929190505050610a93565b6040518082815260200191505060405180910390f35b3480156102eb57600080fd5b506102f4610be2565b005b34801561030257600080fd5b5061030b610cb4565b604051808273ffffffffffffffffffffffffffffffffffffffff1673ffffffffffffffffffffffffffffffffffffffff16815260200191505060405180910390f35b34801561035957600080fd5b50610362610cdd565b604051808215151515815260200191505060405180910390f35b34801561038857600080fd5b506103aa600480360381019080803560ff169060200190929190505050610d34565b6040518080602001828103825283818151815260200191508051906020019080838360005b838110156103ea5780820151818401526020810190506103cf565b50505050905090810190601f1680156104175780820380516001836020036101000a031916815260200191505b509250505060405180910390f35b34801561043157600080fd5b50610453600480360381019080803560ff169060200190929190505050610e65565b604051808060200180602001838103835285818151815260200191508051906020019080838360005b8381101561049757808201518184015260208101905061047c565b50505050905090810190601f1680156104c45780820380516001836020036101000a031916815260200191505b50838103825284818151815260200191508051906020019080838360005b838110156104fd5780820151818401526020810190506104e2565b50505050905090810190601f16801561052a5780820380516001836020036101000a031916815260200191505b5094505050505060405180910390f35b34801561054657600080fd5b50610568600480360381019080803560ff169060200190929190505050610e6d565b6040518082815260200191505060405180910390f35b34801561058a57600080fd5b506105bf600480360381019080803573ffffffffffffffffffffffffffffffffffffffff169060200190929190505050610f7f565b005b3480156105cd57600080fd5b506105ef600480360381019080803560ff169060200190929190505050610f9e565b60405180806020018060200187815260200186600019166000191681526020018581526020018460001916600019168152602001838103835289818151815260200191508051906020019080838360005b8381101561065b578082015181840152602081019050610640565b50505050905090810190601f1680156106885780820380516001836020036101000a031916815260200191505b50838103825288818151815260200191508051906020019080838360005b838110156106c15780820151818401526020810190506106a6565b50505050905090810190601f1680156106ee5780820380516001836020036101000a031916815260200191505b509850505050505050505060405180910390f35b34801561070e57600080fd5b5061072d60048036038101908080359060200190929190505050611554565b604051808273ffffffffffffffffffffffffffffffffffffffff1673ffffffffffffffffffffffffffffffffffffffff16815260200191505060405180910390f35b600060018260ff1660078110151561078357fe5b0160009054906101000a900473ffffffffffffffffffffffffffffffffffffffff1673ffffffffffffffffffffffffffffffffffffffff16634ac2d1036040518163ffffffff167c0100000000000000000000000000000000000000000000000000000000028152600401602060405180830381600087803b15801561080857600080fd5b505af115801561081c573d6000803e3d6000fd5b505050506040513d602081101561083257600080fd5b81019080805190602001909291905050509050919050565b600060018260ff1660078110151561085e57fe5b0160009054906101000a900473ffffffffffffffffffffffffffffffffffffffff1673ffffffffffffffffffffffffffffffffffffffff16638a769d356040518163ffffffff167c0100000000000000000000000000000000000000000000000000000000028152600401602060405180830381600087803b1580156108e357600080fd5b505af11580156108f7573d6000803e3d6000fd5b505050506040513d602081101561090d57600080fd5b81019080805190602001909291905050509050919050565b600060018260ff1660078110151561093957fe5b0160009054906101000a900473ffffffffffffffffffffffffffffffffffffffff169050919050565b606060018260ff1660078110151561097657fe5b0160009054906101000a900473ffffffffffffffffffffffffffffffffffffffff1673ffffffffffffffffffffffffffffffffffffffff166306fdde036040518163ffffffff167c0100000000000000000000000000000000000000000000000000000000028152600401600060405180830381600087803b1580156109fb57600080fd5b505af1158015610a0f573d6000803e3d6000fd5b505050506040513d6000823e3d601f19601f820116820180604052506020811015610a3957600080fd5b810190808051640100000000811115610a5157600080fd5b82810190506020810184811115610a6757600080fd5b8151856001820283011164010000000082111715610a8457600080fd5b50509291905050509050919050565b600080600080600091505b60078260ff161015610bd75760018260ff16600781101515610abc57fe5b0160009054906101000a900473ffffffffffffffffffffffffffffffffffffffff1673ffffffffffffffffffffffffffffffffffffffff166370a08231866040518263ffffffff167c0100000000000000000000000000000000000000000000000000000000028152600401808273ffffffffffffffffffffffffffffffffffffffff1673ffffffffffffffffffffffffffffffffffffffff168152602001915050602060405180830381600087803b158015610b7857600080fd5b505af1158015610b8c573d6000803e3d6000fd5b505050506040513d6020811015610ba257600080fd5b81019080805190602001909291905050509050610bc8818461158990919063ffffffff16565b92508180600101925050610a9e565b829350505050919050565b610bea610cdd565b1515610bf557600080fd5b600073ffffffffffffffffffffffffffffffffffffffff166000809054906101000a900473ffffffffffffffffffffffffffffffffffffffff1673ffffffffffffffffffffffffffffffffffffffff167f8be0079c531659141344cd1fd0a4f28419497f9722a3daafe3b4186f6b6457e060405160405180910390a360008060006101000a81548173ffffffffffffffffffffffffffffffffffffffff021916908373ffffffffffffffffffffffffffffffffffffffff160217905550565b60008060009054906101000a900473ffffffffffffffffffffffffffffffffffffffff16905090565b60008060009054906101000a900473ffffffffffffffffffffffffffffffffffffffff1673ffffffffffffffffffffffffffffffffffffffff163373ffffffffffffffffffffffffffffffffffffffff1614905090565b606060018260ff16600781101515610d4857fe5b0160009054906101000a900473ffffffffffffffffffffffffffffffffffffffff1673ffffffffffffffffffffffffffffffffffffffff166395d89b416040518163ffffffff167c0100000000000000000000000000000000000000000000000000000000028152600401600060405180830381600087803b158015610dcd57600080fd5b505af1158015610de1573d6000803e3d6000fd5b505050506040513d6000823e3d601f19601f820116820180604052506020811015610e0b57600080fd5b810190808051640100000000811115610e2357600080fd5b82810190506020810184811115610e3957600080fd5b8151856001820283011164010000000082111715610e5657600080fd5b50509291905050509050919050565b606080915091565b600060018260ff16600781101515610e8157fe5b0160009054906101000a900473ffffffffffffffffffffffffffffffffffffffff1673ffffffffffffffffffffffffffffffffffffffff166370a08231336040518263ffffffff167c0100000000000000000000000000000000000000000000000000000000028152600401808273ffffffffffffffffffffffffffffffffffffffff1673ffffffffffffffffffffffffffffffffffffffff168152602001915050602060405180830381600087803b158015610f3d57600080fd5b505af1158015610f51573d6000803e3d6000fd5b505050506040513d6020811015610f6757600080fd5b81019080805190602001909291905050509050919050565b610f87610cdd565b1515610f9257600080fd5b610f9b816115aa565b50565b60608060008060008060018760ff16600781101515610fb957fe5b0160009054906101000a900473ffffffffffffffffffffffffffffffffffffffff1673ffffffffffffffffffffffffffffffffffffffff166306fdde036040518163ffffffff167c0100000000000000000000000000000000000000000000000000000000028152600401600060405180830381600087803b15801561103e57600080fd5b505af1158015611052573d6000803e3d6000fd5b505050506040513d6000823e3d601f19601f82011682018060405250602081101561107c57600080fd5b81019080805164010000000081111561109457600080fd5b828101905060208101848111156110aa57600080fd5b81518560018202830111640100000000821117156110c757600080fd5b505092919050505060018860ff166007811015156110e157fe5b0160009054906101000a900473ffffffffffffffffffffffffffffffffffffffff1673ffffffffffffffffffffffffffffffffffffffff166395d89b416040518163ffffffff167c0100000000000000000000000000000000000000000000000000000000028152600401600060405180830381600087803b15801561116657600080fd5b505af115801561117a573d6000803e3d6000fd5b505050506040513d6000823e3d601f19601f8201168201806040525060208110156111a457600080fd5b8101908080516401000000008111156111bc57600080fd5b828101905060208101848111156111d257600080fd5b81518560018202830111640100000000821117156111ef57600080fd5b505092919050505060018960ff1660078110151561120957fe5b0160009054906101000a900473ffffffffffffffffffffffffffffffffffffffff1673ffffffffffffffffffffffffffffffffffffffff16634ac2d1036040518163ffffffff167c0100000000000000000000000000000000000000000000000000000000028152600401602060405180830381600087803b15801561128e57600080fd5b505af11580156112a2573d6000803e3d6000fd5b505050506040513d60208110156112b857600080fd5b810190808051906020019092919050505060018a60ff166007811015156112db57fe5b0160009054906101000a900473ffffffffffffffffffffffffffffffffffffffff1673ffffffffffffffffffffffffffffffffffffffff16638a769d356040518163ffffffff167c0100000000000000000000000000000000000000000000000000000000028152600401602060405180830381600087803b15801561136057600080fd5b505af1158015611374573d6000803e3d6000fd5b505050506040513d602081101561138a57600080fd5b810190808051906020019092919050505060018b60ff166007811015156113ad57fe5b0160009054906101000a900473ffffffffffffffffffffffffffffffffffffffff1673ffffffffffffffffffffffffffffffffffffffff16639a6094a86040518163ffffffff167c0100000000000000000000000000000000000000000000000000000000028152600401602060405180830381600087803b15801561143257600080fd5b505af1158015611446573d6000803e3d6000fd5b505050506040513d602081101561145c57600080fd5b810190808051906020019092919050505060018c60ff1660078110151561147f57fe5b0160009054906101000a900473ffffffffffffffffffffffffffffffffffffffff1673ffffffffffffffffffffffffffffffffffffffff16638a0758486040518163ffffffff167c0100000000000000000000000000000000000000000000000000000000028152600401602060405180830381600087803b15801561150457600080fd5b505af1158015611518573d6000803e3d6000fd5b505050506040513d602081101561152e57600080fd5b810190808051906020019092919050505095509550955095509550955091939550919395565b60018160078110151561156357fe5b016000915054906101000a900473ffffffffffffffffffffffffffffffffffffffff1681565b60008082840190508381101515156115a057600080fd5b8091505092915050565b600073ffffffffffffffffffffffffffffffffffffffff168173ffffffffffffffffffffffffffffffffffffffff16141515156115e657600080fd5b8073ffffffffffffffffffffffffffffffffffffffff166000809054906101000a900473ffffffffffffffffffffffffffffffffffffffff1673ffffffffffffffffffffffffffffffffffffffff167f8be0079c531659141344cd1fd0a4f28419497f9722a3daafe3b4186f6b6457e060405160405180910390a3806000806101000a81548173ffffffffffffffffffffffffffffffffffffffff021916908373ffffffffffffffffffffffffffffffffffffffff160217905550505600a165627a7a723058208fa5003ce253a79551adab63dde49582f1ee43ad793b568f65213e285288a39d0029",
  "source": "pragma solidity ^0.4.24;\n\nimport \"openzeppelin-solidity/contracts/math/SafeMath.sol\";\nimport \"openzeppelin-solidity/contracts/ownership/Ownable.sol\";\nimport \"./items/Commodity.sol\";\nimport \"./interfaces/ICommodity.sol\";\nimport \"./interfaces/ICommodities.sol\";\n\n/**\n * @title Commodities\n *\n * @notice This contracts is for convenient access to the commodities\n */\ncontract Commodities is ICommodities, Ownable {\n  using SafeMath for uint;\n\n  // Array storing all info for each commodity\n  ICommodity[7] public commodities;\n\n  constructor(address[] _commodities) public {\n    for (uint i = 0; i < _commodities.length; i++) {\n      commodities[i] = ICommodity(_commodities[i]);\n    }\n  }\n\n  function getCurrentCargo(address _player) external view returns (uint) {\n    uint currentCargo;\n    for (uint8 i = 0; i < commodities.length; i++) {\n      uint cargoToAdd = commodities[i].balanceOf(_player);\n      currentCargo = currentCargo.add(cargoToAdd);\n    }\n    return currentCargo;\n  }\n\n  function get(uint8 _id) external view returns (\n    string name,\n    string symbol,\n    uint miningReward,\n    bytes32 miningTarget,\n    uint timesMined,\n    bytes32 prevMiningHash\n  ) {\n    return (\n      commodities[_id].name(),\n      commodities[_id].symbol(),\n      commodities[_id].miningReward(),\n      commodities[_id].miningTarget(),\n      commodities[_id].timesMined(),\n      commodities[_id].prevMiningHash()\n    );\n  }\n\n  function getName(uint8 _id) external view returns (string) {\n    return commodities[_id].name();\n  }\n\n  function getSymbol(uint8 _id) external view returns (string) {\n    return commodities[_id].symbol();\n  }\n\n  function getMiningReward(uint8 _id) external view returns (uint) {\n    return commodities[_id].miningReward();\n  }\n\n  function getMiningTarget(uint8 _id) external view returns (bytes32) {\n    return commodities[_id].miningTarget();\n  }\n\n  function getBalance(uint8 _id) external view returns (uint) {\n    return commodities[_id].balanceOf(msg.sender);\n  }\n\n  function getInterface(uint8 _id) external view returns (ICommodity) {\n    return commodities[_id];\n  }\n\n  function() public {}\n}\n",
  "sourcePath": "/Users/jongaspar/Documents/coding/galactonomics/contracts/Commodities.sol",
  "compiler": {
    "name": "solc",
    "version": "0.4.24+commit.e67f0147.Emscripten.clang"
  },
  "schemaVersion": "2.0.1",
  "updatedAt": "2018-11-24T19:55:28.467Z"
}