{
  "contractName": "GalacticTransitAuthority",
  "abi": [
    {
      "constant": true,
      "inputs": [
        {
          "name": "interfaceId",
          "type": "bytes4"
        }
      ],
      "name": "supportsInterface",
      "outputs": [
        {
          "name": "",
          "type": "bool"
        }
      ],
      "payable": false,
      "stateMutability": "view",
      "type": "function"
    },
    {
      "constant": true,
      "inputs": [
        {
          "name": "tokenId",
          "type": "uint256"
        }
      ],
      "name": "getApproved",
      "outputs": [
        {
          "name": "",
          "type": "address"
        }
      ],
      "payable": false,
      "stateMutability": "view",
      "type": "function"
    },
    {
      "constant": false,
      "inputs": [
        {
          "name": "to",
          "type": "address"
        },
        {
          "name": "tokenId",
          "type": "uint256"
        }
      ],
      "name": "approve",
      "outputs": [],
      "payable": false,
      "stateMutability": "nonpayable",
      "type": "function"
    },
    {
      "constant": false,
      "inputs": [
        {
          "name": "_taAddress",
          "type": "address"
        }
      ],
      "name": "setTA",
      "outputs": [],
      "payable": false,
      "stateMutability": "nonpayable",
      "type": "function"
    },
    {
      "constant": true,
      "inputs": [],
      "name": "fuelUsage",
      "outputs": [
        {
          "name": "",
          "type": "uint256"
        }
      ],
      "payable": false,
      "stateMutability": "view",
      "type": "function"
    },
    {
      "constant": false,
      "inputs": [
        {
          "name": "from",
          "type": "address"
        },
        {
          "name": "to",
          "type": "address"
        },
        {
          "name": "tokenId",
          "type": "uint256"
        }
      ],
      "name": "transferFrom",
      "outputs": [],
      "payable": false,
      "stateMutability": "nonpayable",
      "type": "function"
    },
    {
      "constant": true,
      "inputs": [],
      "name": "costOfSpaceship",
      "outputs": [
        {
          "name": "",
          "type": "uint256"
        }
      ],
      "payable": false,
      "stateMutability": "view",
      "type": "function"
    },
    {
      "constant": true,
      "inputs": [],
      "name": "giaAddress",
      "outputs": [
        {
          "name": "",
          "type": "address"
        }
      ],
      "payable": false,
      "stateMutability": "view",
      "type": "function"
    },
    {
      "constant": false,
      "inputs": [
        {
          "name": "from",
          "type": "address"
        },
        {
          "name": "to",
          "type": "address"
        },
        {
          "name": "tokenId",
          "type": "uint256"
        }
      ],
      "name": "safeTransferFrom",
      "outputs": [],
      "payable": false,
      "stateMutability": "nonpayable",
      "type": "function"
    },
    {
      "constant": true,
      "inputs": [
        {
          "name": "tokenId",
          "type": "uint256"
        }
      ],
      "name": "ownerOf",
      "outputs": [
        {
          "name": "",
          "type": "address"
        }
      ],
      "payable": false,
      "stateMutability": "view",
      "type": "function"
    },
    {
      "constant": true,
      "inputs": [
        {
          "name": "owner",
          "type": "address"
        }
      ],
      "name": "balanceOf",
      "outputs": [
        {
          "name": "",
          "type": "uint256"
        }
      ],
      "payable": false,
      "stateMutability": "view",
      "type": "function"
    },
    {
      "constant": false,
      "inputs": [],
      "name": "renounceOwnership",
      "outputs": [],
      "payable": false,
      "stateMutability": "nonpayable",
      "type": "function"
    },
    {
      "constant": false,
      "inputs": [
        {
          "name": "_geaAddress",
          "type": "address"
        }
      ],
      "name": "setGEA",
      "outputs": [],
      "payable": false,
      "stateMutability": "nonpayable",
      "type": "function"
    },
    {
      "constant": true,
      "inputs": [],
      "name": "geaAddress",
      "outputs": [
        {
          "name": "",
          "type": "address"
        }
      ],
      "payable": false,
      "stateMutability": "view",
      "type": "function"
    },
    {
      "constant": true,
      "inputs": [
        {
          "name": "",
          "type": "address"
        }
      ],
      "name": "addressToSpaceship",
      "outputs": [
        {
          "name": "name",
          "type": "string"
        },
        {
          "name": "currentPlanet",
          "type": "uint8"
        },
        {
          "name": "maxCargo",
          "type": "uint256"
        },
        {
          "name": "currentFuel",
          "type": "uint256"
        },
        {
          "name": "maxFuel",
          "type": "uint256"
        }
      ],
      "payable": false,
      "stateMutability": "view",
      "type": "function"
    },
    {
      "constant": true,
      "inputs": [],
      "name": "owner",
      "outputs": [
        {
          "name": "",
          "type": "address"
        }
      ],
      "payable": false,
      "stateMutability": "view",
      "type": "function"
    },
    {
      "constant": true,
      "inputs": [],
      "name": "isOwner",
      "outputs": [
        {
          "name": "",
          "type": "bool"
        }
      ],
      "payable": false,
      "stateMutability": "view",
      "type": "function"
    },
    {
      "constant": true,
      "inputs": [
        {
          "name": "",
          "type": "address"
        }
      ],
      "name": "addressOwnsSpaceship",
      "outputs": [
        {
          "name": "",
          "type": "bool"
        }
      ],
      "payable": false,
      "stateMutability": "view",
      "type": "function"
    },
    {
      "constant": false,
      "inputs": [
        {
          "name": "to",
          "type": "address"
        },
        {
          "name": "approved",
          "type": "bool"
        }
      ],
      "name": "setApprovalForAll",
      "outputs": [],
      "payable": false,
      "stateMutability": "nonpayable",
      "type": "function"
    },
    {
      "constant": false,
      "inputs": [
        {
          "name": "_giaAddress",
          "type": "address"
        }
      ],
      "name": "setGIA",
      "outputs": [],
      "payable": false,
      "stateMutability": "nonpayable",
      "type": "function"
    },
    {
      "constant": false,
      "inputs": [
        {
          "name": "from",
          "type": "address"
        },
        {
          "name": "to",
          "type": "address"
        },
        {
          "name": "tokenId",
          "type": "uint256"
        },
        {
          "name": "_data",
          "type": "bytes"
        }
      ],
      "name": "safeTransferFrom",
      "outputs": [],
      "payable": false,
      "stateMutability": "nonpayable",
      "type": "function"
    },
    {
      "constant": true,
      "inputs": [],
      "name": "refuelCost",
      "outputs": [
        {
          "name": "",
          "type": "uint256"
        }
      ],
      "payable": false,
      "stateMutability": "view",
      "type": "function"
    },
    {
      "constant": true,
      "inputs": [],
      "name": "taAddress",
      "outputs": [
        {
          "name": "",
          "type": "address"
        }
      ],
      "payable": false,
      "stateMutability": "view",
      "type": "function"
    },
    {
      "constant": true,
      "inputs": [
        {
          "name": "owner",
          "type": "address"
        },
        {
          "name": "operator",
          "type": "address"
        }
      ],
      "name": "isApprovedForAll",
      "outputs": [
        {
          "name": "",
          "type": "bool"
        }
      ],
      "payable": false,
      "stateMutability": "view",
      "type": "function"
    },
    {
      "constant": false,
      "inputs": [
        {
          "name": "newOwner",
          "type": "address"
        }
      ],
      "name": "transferOwnership",
      "outputs": [],
      "payable": false,
      "stateMutability": "nonpayable",
      "type": "function"
    },
    {
      "payable": false,
      "stateMutability": "nonpayable",
      "type": "fallback"
    },
    {
      "anonymous": false,
      "inputs": [
        {
          "indexed": false,
          "name": "owner",
          "type": "address"
        },
        {
          "indexed": false,
          "name": "tokenId",
          "type": "uint256"
        }
      ],
      "name": "SpaceshipBought",
      "type": "event"
    },
    {
      "anonymous": false,
      "inputs": [
        {
          "indexed": false,
          "name": "player",
          "type": "address"
        },
        {
          "indexed": false,
          "name": "planetId",
          "type": "uint8"
        },
        {
          "indexed": false,
          "name": "currentFuel",
          "type": "uint256"
        }
      ],
      "name": "TravelComplete",
      "type": "event"
    },
    {
      "anonymous": false,
      "inputs": [
        {
          "indexed": false,
          "name": "player",
          "type": "address"
        }
      ],
      "name": "RefuelComplete",
      "type": "event"
    },
    {
      "anonymous": false,
      "inputs": [
        {
          "indexed": true,
          "name": "previousOwner",
          "type": "address"
        },
        {
          "indexed": true,
          "name": "newOwner",
          "type": "address"
        }
      ],
      "name": "OwnershipTransferred",
      "type": "event"
    },
    {
      "anonymous": false,
      "inputs": [
        {
          "indexed": true,
          "name": "from",
          "type": "address"
        },
        {
          "indexed": true,
          "name": "to",
          "type": "address"
        },
        {
          "indexed": true,
          "name": "tokenId",
          "type": "uint256"
        }
      ],
      "name": "Transfer",
      "type": "event"
    },
    {
      "anonymous": false,
      "inputs": [
        {
          "indexed": true,
          "name": "owner",
          "type": "address"
        },
        {
          "indexed": true,
          "name": "approved",
          "type": "address"
        },
        {
          "indexed": true,
          "name": "tokenId",
          "type": "uint256"
        }
      ],
      "name": "Approval",
      "type": "event"
    },
    {
      "anonymous": false,
      "inputs": [
        {
          "indexed": true,
          "name": "owner",
          "type": "address"
        },
        {
          "indexed": true,
          "name": "operator",
          "type": "address"
        },
        {
          "indexed": false,
          "name": "approved",
          "type": "bool"
        }
      ],
      "name": "ApprovalForAll",
      "type": "event"
    },
    {
      "constant": false,
      "inputs": [
        {
          "name": "_name",
          "type": "string"
        }
      ],
      "name": "buySpaceship",
      "outputs": [],
      "payable": true,
      "stateMutability": "payable",
      "type": "function"
    },
    {
      "constant": false,
      "inputs": [
        {
          "name": "_planetId",
          "type": "uint8"
        }
      ],
      "name": "travelToPlanet",
      "outputs": [],
      "payable": false,
      "stateMutability": "nonpayable",
      "type": "function"
    },
    {
      "constant": false,
      "inputs": [],
      "name": "refuel",
      "outputs": [],
      "payable": true,
      "stateMutability": "payable",
      "type": "function"
    },
    {
      "constant": true,
      "inputs": [],
      "name": "getInfo",
      "outputs": [
        {
          "name": "spaceshipName",
          "type": "string"
        },
        {
          "name": "currentPlanet",
          "type": "uint8"
        },
        {
          "name": "maxCargo",
          "type": "uint256"
        },
        {
          "name": "currentFuel",
          "type": "uint256"
        },
        {
          "name": "maxFuel",
          "type": "uint256"
        }
      ],
      "payable": false,
      "stateMutability": "view",
      "type": "function"
    },
    {
      "constant": true,
      "inputs": [
        {
          "name": "_address",
          "type": "address"
        }
      ],
      "name": "isPlayer",
      "outputs": [
        {
          "name": "",
          "type": "bool"
        }
      ],
      "payable": false,
      "stateMutability": "view",
      "type": "function"
    },
    {
      "constant": true,
      "inputs": [
        {
          "name": "_address",
          "type": "address"
        }
      ],
      "name": "getCurrentPlanet",
      "outputs": [
        {
          "name": "",
          "type": "uint8"
        }
      ],
      "payable": false,
      "stateMutability": "view",
      "type": "function"
    },
    {
      "constant": true,
      "inputs": [
        {
          "name": "_address",
          "type": "address"
        }
      ],
      "name": "checkFuel",
      "outputs": [
        {
          "name": "currentFuel",
          "type": "uint256"
        },
        {
          "name": "maxFuel",
          "type": "uint256"
        }
      ],
      "payable": false,
      "stateMutability": "view",
      "type": "function"
    },
    {
      "constant": true,
      "inputs": [
        {
          "name": "_address",
          "type": "address"
        }
      ],
      "name": "getMaxCargo",
      "outputs": [
        {
          "name": "",
          "type": "uint256"
        }
      ],
      "payable": false,
      "stateMutability": "view",
      "type": "function"
    },
    {
      "constant": true,
      "inputs": [
        {
          "name": "_address",
          "type": "address"
        },
        {
          "name": "_currentCargo",
          "type": "uint256"
        }
      ],
      "name": "getAvailableCargo",
      "outputs": [
        {
          "name": "",
          "type": "uint256"
        }
      ],
      "payable": false,
      "stateMutability": "view",
      "type": "function"
    },
    {
      "constant": false,
      "inputs": [
        {
          "name": "_player",
          "type": "address"
        },
        {
          "name": "_currentCargo",
          "type": "uint256"
        },
        {
          "name": "_incomingCargo",
          "type": "uint256"
        }
      ],
      "name": "canFitCargo",
      "outputs": [
        {
          "name": "",
          "type": "bool"
        }
      ],
      "payable": false,
      "stateMutability": "nonpayable",
      "type": "function"
    }
  ],
  "bytecode": "0x6080604052620000416301ffc9a77c01000000000000000000000000000000000000000000000000000000000262000142640100000000026401000000009004565b6200007e6380ac58cd7c01000000000000000000000000000000000000000000000000000000000262000142640100000000026401000000009004565b33600560006101000a81548173ffffffffffffffffffffffffffffffffffffffff021916908373ffffffffffffffffffffffffffffffffffffffff160217905550600560009054906101000a900473ffffffffffffffffffffffffffffffffffffffff1673ffffffffffffffffffffffffffffffffffffffff16600073ffffffffffffffffffffffffffffffffffffffff167f8be0079c531659141344cd1fd0a4f28419497f9722a3daafe3b4186f6b6457e060405160405180910390a362000200565b63ffffffff7c010000000000000000000000000000000000000000000000000000000002817bffffffffffffffffffffffffffffffffffffffffffffffffffffffff1916141515156200019457600080fd5b6001600080837bffffffffffffffffffffffffffffffffffffffffffffffffffffffff19167bffffffffffffffffffffffffffffffffffffffffffffffffffffffff1916815260200190815260200160002060006101000a81548160ff02191690831515021790555050565b61308680620002106000396000f3006080604052600436106101b7576000357c0100000000000000000000000000000000000000000000000000000000900463ffffffff16806301ffc9a7146101c6578063081812fc1461022a578063095ea7b31461029757806309c95e10146102e4578063149507a41461033f57806316d9ba841461036f5780631cff89a4146103b257806323b872dd146103dd5780632d4a07691461044a5780633d3c25141461047557806342842e0e146104cc578063445efe9a146105395780634c1ec9aa146105905780635a9b0b891461059a57806360924c3c1461064c5780636352211e146106ad57806370a082311461071a578063715018a61461077157806371df70cc1461078857806379d3365a146107cb5780637db94a691461082257806383977f36146108505780638da5cb5b1461092e5780638f32d59b146109855780639fbea0a4146109b4578063a22cb46514610a0f578063a3e1773114610a5e578063b88d4fde14610aa1578063c7cec5bf14610b54578063d6066eff14610b7f578063e675455514610bee578063e769c69114610c4c578063e970392914610ca9578063e985e9c514610d00578063f2fde38b14610d7b575b3480156101c357600080fd5b50005b3480156101d257600080fd5b5061021060048036038101908080357bffffffffffffffffffffffffffffffffffffffffffffffffffffffff19169060200190929190505050610dbe565b604051808215151515815260200191505060405180910390f35b34801561023657600080fd5b5061025560048036038101908080359060200190929190505050610e25565b604051808273ffffffffffffffffffffffffffffffffffffffff1673ffffffffffffffffffffffffffffffffffffffff16815260200191505060405180910390f35b3480156102a357600080fd5b506102e2600480360381019080803573ffffffffffffffffffffffffffffffffffffffff16906020019092919080359060200190929190505050610e76565b005b3480156102f057600080fd5b50610325600480360381019080803573ffffffffffffffffffffffffffffffffffffffff169060200190929190505050610fbb565b604051808215151515815260200191505060405180910390f35b34801561034b57600080fd5b5061036d600480360381019080803560ff169060200190929190505050611011565b005b34801561037b57600080fd5b506103b0600480360381019080803573ffffffffffffffffffffffffffffffffffffffff16906020019092919050505061140a565b005b3480156103be57600080fd5b506103c761152c565b6040518082815260200191505060405180910390f35b3480156103e957600080fd5b50610448600480360381019080803573ffffffffffffffffffffffffffffffffffffffff169060200190929190803573ffffffffffffffffffffffffffffffffffffffff16906020019092919080359060200190929190505050611531565b005b34801561045657600080fd5b5061045f611600565b6040518082815260200191505060405180910390f35b34801561048157600080fd5b5061048a61160b565b604051808273ffffffffffffffffffffffffffffffffffffffff1673ffffffffffffffffffffffffffffffffffffffff16815260200191505060405180910390f35b3480156104d857600080fd5b50610537600480360381019080803573ffffffffffffffffffffffffffffffffffffffff169060200190929190803573ffffffffffffffffffffffffffffffffffffffff16906020019092919080359060200190929190505050611631565b005b34801561054557600080fd5b5061057a600480360381019080803573ffffffffffffffffffffffffffffffffffffffff169060200190929190505050611652565b6040518082815260200191505060405180910390f35b61059861169e565b005b3480156105a657600080fd5b506105af611871565b60405180806020018660ff1660ff168152602001858152602001848152602001838152602001828103825287818151815260200191508051906020019080838360005b8381101561060d5780820151818401526020810190506105f2565b50505050905090810190601f16801561063a5780820380516001836020036101000a031916815260200191505b50965050505050505060405180910390f35b34801561065857600080fd5b50610697600480360381019080803573ffffffffffffffffffffffffffffffffffffffff16906020019092919080359060200190929190505050611a81565b6040518082815260200191505060405180910390f35b3480156106b957600080fd5b506106d860048036038101908080359060200190929190505050611aa6565b604051808273ffffffffffffffffffffffffffffffffffffffff1673ffffffffffffffffffffffffffffffffffffffff16815260200191505060405180910390f35b34801561072657600080fd5b5061075b600480360381019080803573ffffffffffffffffffffffffffffffffffffffff169060200190929190505050611b24565b6040518082815260200191505060405180910390f35b34801561077d57600080fd5b50610786611ba8565b005b34801561079457600080fd5b506107c9600480360381019080803573ffffffffffffffffffffffffffffffffffffffff169060200190929190505050611c7c565b005b3480156107d757600080fd5b506107e0611d9e565b604051808273ffffffffffffffffffffffffffffffffffffffff1673ffffffffffffffffffffffffffffffffffffffff16815260200191505060405180910390f35b61084e600480360381019080803590602001908201803590602001919091929391929390505050611dc4565b005b34801561085c57600080fd5b50610891600480360381019080803573ffffffffffffffffffffffffffffffffffffffff169060200190929190505050612103565b60405180806020018660ff1660ff168152602001858152602001848152602001838152602001828103825287818151815260200191508051906020019080838360005b838110156108ef5780820151818401526020810190506108d4565b50505050905090810190601f16801561091c5780820380516001836020036101000a031916815260200191505b50965050505050505060405180910390f35b34801561093a57600080fd5b506109436121de565b604051808273ffffffffffffffffffffffffffffffffffffffff1673ffffffffffffffffffffffffffffffffffffffff16815260200191505060405180910390f35b34801561099157600080fd5b5061099a612208565b604051808215151515815260200191505060405180910390f35b3480156109c057600080fd5b506109f5600480360381019080803573ffffffffffffffffffffffffffffffffffffffff169060200190929190505050612260565b604051808215151515815260200191505060405180910390f35b348015610a1b57600080fd5b50610a5c600480360381019080803573ffffffffffffffffffffffffffffffffffffffff169060200190929190803515159060200190929190505050612280565b005b348015610a6a57600080fd5b50610a9f600480360381019080803573ffffffffffffffffffffffffffffffffffffffff1690602001909291905050506123bc565b005b348015610aad57600080fd5b50610b52600480360381019080803573ffffffffffffffffffffffffffffffffffffffff169060200190929190803573ffffffffffffffffffffffffffffffffffffffff16906020019092919080359060200190929190803590602001908201803590602001908080601f01602080910402602001604051908101604052809392919081815260200183838082843782019150505050505091929192905050506124de565b005b348015610b6057600080fd5b50610b69612506565b6040518082815260200191505060405180910390f35b348015610b8b57600080fd5b50610bd4600480360381019080803573ffffffffffffffffffffffffffffffffffffffff1690602001909291908035906020019092919080359060200190929190505050612511565b604051808215151515815260200191505060405180910390f35b348015610bfa57600080fd5b50610c2f600480360381019080803573ffffffffffffffffffffffffffffffffffffffff169060200190929190505050612545565b604051808381526020018281526020019250505060405180910390f35b348015610c5857600080fd5b50610c8d600480360381019080803573ffffffffffffffffffffffffffffffffffffffff1690602001909291905050506125d7565b604051808260ff1660ff16815260200191505060405180910390f35b348015610cb557600080fd5b50610cbe612630565b604051808273ffffffffffffffffffffffffffffffffffffffff1673ffffffffffffffffffffffffffffffffffffffff16815260200191505060405180910390f35b348015610d0c57600080fd5b50610d61600480360381019080803573ffffffffffffffffffffffffffffffffffffffff169060200190929190803573ffffffffffffffffffffffffffffffffffffffff169060200190929190505050612656565b604051808215151515815260200191505060405180910390f35b348015610d8757600080fd5b50610dbc600480360381019080803573ffffffffffffffffffffffffffffffffffffffff1690602001909291905050506126ea565b005b6000806000837bffffffffffffffffffffffffffffffffffffffffffffffffffffffff19167bffffffffffffffffffffffffffffffffffffffffffffffffffffffff1916815260200190815260200160002060009054906101000a900460ff169050919050565b6000610e3082612709565b1515610e3b57600080fd5b6002600083815260200190815260200160002060009054906101000a900473ffffffffffffffffffffffffffffffffffffffff169050919050565b6000610e8182611aa6565b90508073ffffffffffffffffffffffffffffffffffffffff168373ffffffffffffffffffffffffffffffffffffffff1614151515610ebe57600080fd5b8073ffffffffffffffffffffffffffffffffffffffff163373ffffffffffffffffffffffffffffffffffffffff161480610efe5750610efd8133612656565b5b1515610f0957600080fd5b826002600084815260200190815260200160002060006101000a81548173ffffffffffffffffffffffffffffffffffffffff021916908373ffffffffffffffffffffffffffffffffffffffff160217905550818373ffffffffffffffffffffffffffffffffffffffff168273ffffffffffffffffffffffffffffffffffffffff167f8c5be1e5ebec7d5bd14f71427d1e84f3dd0314c0f7b2291e5b200ac8c7c3b92560405160405180910390a4505050565b6000600b60008373ffffffffffffffffffffffffffffffffffffffff1673ffffffffffffffffffffffffffffffffffffffff16815260200190815260200160002060009054906101000a900460ff169050919050565b61101a33610fbb565b15156110b4576040517f08c379a00000000000000000000000000000000000000000000000000000000081526004018080602001828103825260318152602001807f596f75206e65656420746f206f776e20612073706163657368697020746f206381526020017f616c6c20746869732066756e6374696f6e00000000000000000000000000000081525060400191505060405180910390fd5b8060ff166000111580156110cc575060068160ff1611155b806110da575060ff8160ff16145b1515611174576040517f08c379a000000000000000000000000000000000000000000000000000000000815260040180806020018281038252603f8152602001807f706c616e65744964206d757374206265206265747765656e203020616e64203681526020017f2c20696e636c75736976652c206f7220626520657175616c20746f203235350081525060400191505060405180910390fd5b6014600a60003373ffffffffffffffffffffffffffffffffffffffff1673ffffffffffffffffffffffffffffffffffffffff1681526020019081526020016000206003015410151515611255576040517f08c379a00000000000000000000000000000000000000000000000000000000081526004018080602001828103825260258152602001807f596f7520646f206e6f74206861766520656e6f756768206675656c20746f207481526020017f726176656c00000000000000000000000000000000000000000000000000000081525060400191505060405180910390fd5b80600a60003373ffffffffffffffffffffffffffffffffffffffff1673ffffffffffffffffffffffffffffffffffffffff16815260200190815260200160002060010160006101000a81548160ff021916908360ff1602179055506113066014600a60003373ffffffffffffffffffffffffffffffffffffffff1673ffffffffffffffffffffffffffffffffffffffff1681526020019081526020016000206003015461277b90919063ffffffff16565b600a60003373ffffffffffffffffffffffffffffffffffffffff1673ffffffffffffffffffffffffffffffffffffffff168152602001908152602001600020600301819055507f4e41d4d766b314ec2ed359ca8de8ad46507a12bf80d3dec2ebbfa8aaa3d94f563382600a60003373ffffffffffffffffffffffffffffffffffffffff1673ffffffffffffffffffffffffffffffffffffffff16815260200190815260200160002060030154604051808473ffffffffffffffffffffffffffffffffffffffff1673ffffffffffffffffffffffffffffffffffffffff1681526020018360ff1660ff168152602001828152602001935050505060405180910390a150565b611412612208565b151561141d57600080fd5b600073ffffffffffffffffffffffffffffffffffffffff168173ffffffffffffffffffffffffffffffffffffffff16141515156114e8576040517f08c379a00000000000000000000000000000000000000000000000000000000081526004018080602001828103825260228152602001807f4e657720616464726573732063616e6e6f74206265207a65726f20616464726581526020017f737300000000000000000000000000000000000000000000000000000000000081525060400191505060405180910390fd5b80600860006101000a81548173ffffffffffffffffffffffffffffffffffffffff021916908373ffffffffffffffffffffffffffffffffffffffff16021790555050565b601481565b61153b338261279c565b151561154657600080fd5b600073ffffffffffffffffffffffffffffffffffffffff168273ffffffffffffffffffffffffffffffffffffffff161415151561158257600080fd5b61158c8382612831565b6115968382612934565b6115a08282612a63565b808273ffffffffffffffffffffffffffffffffffffffff168473ffffffffffffffffffffffffffffffffffffffff167fddf252ad1be2c89b69c2b068fc378daa952ba7f163c4a11628f55a4df523b3ef60405160405180910390a4505050565b662386f26fc1000081565b600760009054906101000a900473ffffffffffffffffffffffffffffffffffffffff1681565b61164d83838360206040519081016040528060008152506124de565b505050565b6000600a60008373ffffffffffffffffffffffffffffffffffffffff1673ffffffffffffffffffffffffffffffffffffffff168152602001908152602001600020600201549050919050565b6116a733610fbb565b1515611741576040517f08c379a00000000000000000000000000000000000000000000000000000000081526004018080602001828103825260318152602001807f596f75206e65656420746f206f776e20612073706163657368697020746f206381526020017f616c6c20746869732066756e6374696f6e00000000000000000000000000000081525060400191505060405180910390fd5b662386f26fc1000034101515156117e6576040517f08c379a00000000000000000000000000000000000000000000000000000000081526004018080602001828103825260398152602001807f596f75206e65656420746f2070726f766964652074686520636f72726563742081526020017f616d6f756e74206f6620657468657220746f2072656675656c0000000000000081525060400191505060405180910390fd5b600a60003373ffffffffffffffffffffffffffffffffffffffff1673ffffffffffffffffffffffffffffffffffffffff16815260200190815260200160002060040154600a60003373ffffffffffffffffffffffffffffffffffffffff1673ffffffffffffffffffffffffffffffffffffffff16815260200190815260200160002060030181905550565b6060600080600080600a60003373ffffffffffffffffffffffffffffffffffffffff1673ffffffffffffffffffffffffffffffffffffffff168152602001908152602001600020600001600a60003373ffffffffffffffffffffffffffffffffffffffff1673ffffffffffffffffffffffffffffffffffffffff16815260200190815260200160002060010160009054906101000a900460ff16600a60003373ffffffffffffffffffffffffffffffffffffffff1673ffffffffffffffffffffffffffffffffffffffff16815260200190815260200160002060020154600a60003373ffffffffffffffffffffffffffffffffffffffff1673ffffffffffffffffffffffffffffffffffffffff16815260200190815260200160002060030154600a60003373ffffffffffffffffffffffffffffffffffffffff1673ffffffffffffffffffffffffffffffffffffffff16815260200190815260200160002060040154848054600181600116156101000203166002900480601f016020809104026020016040519081016040528092919081815260200182805460018160011615610100020316600290048015611a695780601f10611a3e57610100808354040283529160200191611a69565b820191906000526020600020905b815481529060010190602001808311611a4c57829003601f168201915b50505050509450945094509450945094509091929394565b6000611a9e82611a9085611652565b61277b90919063ffffffff16565b905092915050565b6000806001600084815260200190815260200160002060009054906101000a900473ffffffffffffffffffffffffffffffffffffffff169050600073ffffffffffffffffffffffffffffffffffffffff168173ffffffffffffffffffffffffffffffffffffffff1614151515611b1b57600080fd5b80915050919050565b60008073ffffffffffffffffffffffffffffffffffffffff168273ffffffffffffffffffffffffffffffffffffffff1614151515611b6157600080fd5b600360008373ffffffffffffffffffffffffffffffffffffffff1673ffffffffffffffffffffffffffffffffffffffff168152602001908152602001600020549050919050565b611bb0612208565b1515611bbb57600080fd5b600073ffffffffffffffffffffffffffffffffffffffff16600560009054906101000a900473ffffffffffffffffffffffffffffffffffffffff1673ffffffffffffffffffffffffffffffffffffffff167f8be0079c531659141344cd1fd0a4f28419497f9722a3daafe3b4186f6b6457e060405160405180910390a36000600560006101000a81548173ffffffffffffffffffffffffffffffffffffffff021916908373ffffffffffffffffffffffffffffffffffffffff160217905550565b611c84612208565b1515611c8f57600080fd5b600073ffffffffffffffffffffffffffffffffffffffff168173ffffffffffffffffffffffffffffffffffffffff1614151515611d5a576040517f08c379a00000000000000000000000000000000000000000000000000000000081526004018080602001828103825260228152602001807f4e657720616464726573732063616e6e6f74206265207a65726f20616464726581526020017f737300000000000000000000000000000000000000000000000000000000000081525060400191505060405180910390fd5b80600660006101000a81548173ffffffffffffffffffffffffffffffffffffffff021916908373ffffffffffffffffffffffffffffffffffffffff16021790555050565b600660009054906101000a900473ffffffffffffffffffffffffffffffffffffffff1681565b6000662386f26fc1000034141515611e6a576040517f08c379a000000000000000000000000000000000000000000000000000000000815260040180806020018281038252602f8152602001807f596f75206e65656420746f2070726f766964652074686520636f72726563742081526020017f616d6f756e74206f66206574686572000000000000000000000000000000000081525060400191505060405180910390fd5b6000611e7533611b24565b141515611f10576040517f08c379a000000000000000000000000000000000000000000000000000000000815260040180806020018281038252602d8152602001807f4163636f756e74732063616e206f6e6c79206f776e206f6e652073706163657381526020017f6869702028666f72206e6f77290000000000000000000000000000000000000081525060400191505060405180910390fd5b611f266001600954612bbd90919063ffffffff16565b6009819055506009549050611f3b3382612bde565b60a06040519081016040528084848080601f016020809104026020016040519081016040528093929190818152602001838380828437820191505050505050815260200160ff8016815260200162015f908152602001606481526020016064815250600a60003373ffffffffffffffffffffffffffffffffffffffff1673ffffffffffffffffffffffffffffffffffffffff1681526020019081526020016000206000820151816000019080519060200190611ff8929190612fb5565b5060208201518160010160006101000a81548160ff021916908360ff1602179055506040820151816002015560608201518160030155608082015181600401559050506001600b60003373ffffffffffffffffffffffffffffffffffffffff1673ffffffffffffffffffffffffffffffffffffffff16815260200190815260200160002060006101000a81548160ff0219169083151502179055507fc8afb99523241fd2b49d6892528618bbeb182fc8ebdccc9bb1db9ed17c7bef203382604051808373ffffffffffffffffffffffffffffffffffffffff1673ffffffffffffffffffffffffffffffffffffffff1681526020018281526020019250505060405180910390a1505050565b600a602052806000526040600020600091509050806000018054600181600116156101000203166002900480601f0160208091040260200160405190810160405280929190818152602001828054600181600116156101000203166002900480156121af5780601f10612184576101008083540402835291602001916121af565b820191906000526020600020905b81548152906001019060200180831161219257829003601f168201915b5050505050908060010160009054906101000a900460ff16908060020154908060030154908060040154905085565b6000600560009054906101000a900473ffffffffffffffffffffffffffffffffffffffff16905090565b6000600560009054906101000a900473ffffffffffffffffffffffffffffffffffffffff1673ffffffffffffffffffffffffffffffffffffffff163373ffffffffffffffffffffffffffffffffffffffff1614905090565b600b6020528060005260406000206000915054906101000a900460ff1681565b3373ffffffffffffffffffffffffffffffffffffffff168273ffffffffffffffffffffffffffffffffffffffff16141515156122bb57600080fd5b80600460003373ffffffffffffffffffffffffffffffffffffffff1673ffffffffffffffffffffffffffffffffffffffff16815260200190815260200160002060008473ffffffffffffffffffffffffffffffffffffffff1673ffffffffffffffffffffffffffffffffffffffff16815260200190815260200160002060006101000a81548160ff0219169083151502179055508173ffffffffffffffffffffffffffffffffffffffff163373ffffffffffffffffffffffffffffffffffffffff167f17307eab39ab6107e8899845ad3d59bd9653f200f220920489ca2b5937696c3183604051808215151515815260200191505060405180910390a35050565b6123c4612208565b15156123cf57600080fd5b600073ffffffffffffffffffffffffffffffffffffffff168173ffffffffffffffffffffffffffffffffffffffff161415151561249a576040517f08c379a00000000000000000000000000000000000000000000000000000000081526004018080602001828103825260228152602001807f4e657720616464726573732063616e6e6f74206265207a65726f20616464726581526020017f737300000000000000000000000000000000000000000000000000000000000081525060400191505060405180910390fd5b80600760006101000a81548173ffffffffffffffffffffffffffffffffffffffff021916908373ffffffffffffffffffffffffffffffffffffffff16021790555050565b6124e9848484611531565b6124f584848484612c84565b151561250057600080fd5b50505050565b662386f26fc1000081565b600080600061251f86611652565b9150612534858361277b90919063ffffffff16565b905083811015925050509392505050565b600080600a60008473ffffffffffffffffffffffffffffffffffffffff1673ffffffffffffffffffffffffffffffffffffffff16815260200190815260200160002060030154600a60008573ffffffffffffffffffffffffffffffffffffffff1673ffffffffffffffffffffffffffffffffffffffff1681526020019081526020016000206004015491509150915091565b6000600a60008373ffffffffffffffffffffffffffffffffffffffff1673ffffffffffffffffffffffffffffffffffffffff16815260200190815260200160002060010160009054906101000a900460ff169050919050565b600860009054906101000a900473ffffffffffffffffffffffffffffffffffffffff1681565b6000600460008473ffffffffffffffffffffffffffffffffffffffff1673ffffffffffffffffffffffffffffffffffffffff16815260200190815260200160002060008373ffffffffffffffffffffffffffffffffffffffff1673ffffffffffffffffffffffffffffffffffffffff16815260200190815260200160002060009054906101000a900460ff16905092915050565b6126f2612208565b15156126fd57600080fd5b61270681612ea6565b50565b6000806001600084815260200190815260200160002060009054906101000a900473ffffffffffffffffffffffffffffffffffffffff169050600073ffffffffffffffffffffffffffffffffffffffff168173ffffffffffffffffffffffffffffffffffffffff161415915050919050565b60008083831115151561278d57600080fd5b82840390508091505092915050565b6000806127a883611aa6565b90508073ffffffffffffffffffffffffffffffffffffffff168473ffffffffffffffffffffffffffffffffffffffff16148061281757508373ffffffffffffffffffffffffffffffffffffffff166127ff84610e25565b73ffffffffffffffffffffffffffffffffffffffff16145b8061282857506128278185612656565b5b91505092915050565b8173ffffffffffffffffffffffffffffffffffffffff1661285182611aa6565b73ffffffffffffffffffffffffffffffffffffffff1614151561287357600080fd5b600073ffffffffffffffffffffffffffffffffffffffff166002600083815260200190815260200160002060009054906101000a900473ffffffffffffffffffffffffffffffffffffffff1673ffffffffffffffffffffffffffffffffffffffff161415156129305760006002600083815260200190815260200160002060006101000a81548173ffffffffffffffffffffffffffffffffffffffff021916908373ffffffffffffffffffffffffffffffffffffffff1602179055505b5050565b8173ffffffffffffffffffffffffffffffffffffffff1661295482611aa6565b73ffffffffffffffffffffffffffffffffffffffff1614151561297657600080fd5b6129c96001600360008573ffffffffffffffffffffffffffffffffffffffff1673ffffffffffffffffffffffffffffffffffffffff1681526020019081526020016000205461277b90919063ffffffff16565b600360008473ffffffffffffffffffffffffffffffffffffffff1673ffffffffffffffffffffffffffffffffffffffff1681526020019081526020016000208190555060006001600083815260200190815260200160002060006101000a81548173ffffffffffffffffffffffffffffffffffffffff021916908373ffffffffffffffffffffffffffffffffffffffff1602179055505050565b600073ffffffffffffffffffffffffffffffffffffffff166001600083815260200190815260200160002060009054906101000a900473ffffffffffffffffffffffffffffffffffffffff1673ffffffffffffffffffffffffffffffffffffffff16141515612ad157600080fd5b816001600083815260200190815260200160002060006101000a81548173ffffffffffffffffffffffffffffffffffffffff021916908373ffffffffffffffffffffffffffffffffffffffff160217905550612b766001600360008573ffffffffffffffffffffffffffffffffffffffff1673ffffffffffffffffffffffffffffffffffffffff16815260200190815260200160002054612bbd90919063ffffffff16565b600360008473ffffffffffffffffffffffffffffffffffffffff1673ffffffffffffffffffffffffffffffffffffffff168152602001908152602001600020819055505050565b6000808284019050838110151515612bd457600080fd5b8091505092915050565b600073ffffffffffffffffffffffffffffffffffffffff168273ffffffffffffffffffffffffffffffffffffffff1614151515612c1a57600080fd5b612c248282612a63565b808273ffffffffffffffffffffffffffffffffffffffff16600073ffffffffffffffffffffffffffffffffffffffff167fddf252ad1be2c89b69c2b068fc378daa952ba7f163c4a11628f55a4df523b3ef60405160405180910390a45050565b600080612ca68573ffffffffffffffffffffffffffffffffffffffff16612fa2565b1515612cb55760019150612e9d565b8473ffffffffffffffffffffffffffffffffffffffff1663150b7a02338887876040518563ffffffff167c0100000000000000000000000000000000000000000000000000000000028152600401808573ffffffffffffffffffffffffffffffffffffffff1673ffffffffffffffffffffffffffffffffffffffff1681526020018473ffffffffffffffffffffffffffffffffffffffff1673ffffffffffffffffffffffffffffffffffffffff16815260200183815260200180602001828103825283818151815260200191508051906020019080838360005b83811015612daa578082015181840152602081019050612d8f565b50505050905090810190601f168015612dd75780820380516001836020036101000a031916815260200191505b5095505050505050602060405180830381600087803b158015612df957600080fd5b505af1158015612e0d573d6000803e3d6000fd5b505050506040513d6020811015612e2357600080fd5b8101908080519060200190929190505050905063150b7a027c0100000000000000000000000000000000000000000000000000000000027bffffffffffffffffffffffffffffffffffffffffffffffffffffffff1916817bffffffffffffffffffffffffffffffffffffffffffffffffffffffff19161491505b50949350505050565b600073ffffffffffffffffffffffffffffffffffffffff168173ffffffffffffffffffffffffffffffffffffffff1614151515612ee257600080fd5b8073ffffffffffffffffffffffffffffffffffffffff16600560009054906101000a900473ffffffffffffffffffffffffffffffffffffffff1673ffffffffffffffffffffffffffffffffffffffff167f8be0079c531659141344cd1fd0a4f28419497f9722a3daafe3b4186f6b6457e060405160405180910390a380600560006101000a81548173ffffffffffffffffffffffffffffffffffffffff021916908373ffffffffffffffffffffffffffffffffffffffff16021790555050565b600080823b905060008111915050919050565b828054600181600116156101000203166002900490600052602060002090601f016020900481019282601f10612ff657805160ff1916838001178555613024565b82800160010185558215613024579182015b82811115613023578251825591602001919060010190613008565b5b5090506130319190613035565b5090565b61305791905b8082111561305357600081600090555060010161303b565b5090565b905600a165627a7a72305820812fbeeacac99a775b206d561a89d54ff154bf951e62871bbacb6faa0848c81e0029",
  "source": "pragma solidity ^0.4.24;\n\nimport \"openzeppelin-solidity/contracts/token/ERC721/ERC721.sol\";\nimport \"openzeppelin-solidity/contracts/math/SafeMath.sol\";\nimport \"./utils/AccessControlled.sol\";\nimport \"./items/Commodity.sol\";\nimport \"./interfaces/IGalacticTransitAuthority.sol\";\n\n/**\n * @title Galactic Transit Authority (GTA)\n *\n * @notice The GTA handles spaceship ownership, fuel and travel\n */\ncontract GalacticTransitAuthority is ERC721, AccessControlled, IGalacticTransitAuthority {\n  using SafeMath for uint;\n\n  struct Spaceship {\n    string name;\n    uint8 currentPlanet;\n    uint maxCargo; // in kg\n    uint currentFuel; // in litres\n    uint maxFuel;\n  }\n\n  uint public constant costOfSpaceship = 0.01 ether;\n  // How much fuel is used to travel between planets\n  uint public constant fuelUsage = 20;\n  uint public constant refuelCost = 10000000000000000;\n  // Number of spaceships in existence\n  uint numSpaceships;\n\n  // Mapping of address to spaceship struct\n  mapping(address => Spaceship) public addressToSpaceship;\n  // Resolves to true if account owns an address\n  mapping(address => bool) public addressOwnsSpaceship;\n\n  event SpaceshipBought(address owner, uint tokenId);\n  event TravelComplete(address player, uint8 planetId, uint currentFuel);\n  event RefuelComplete(address player);\n\n  modifier onlyPlayer() {\n    require(isPlayer(msg.sender), \"You need to own a spaceship to call this function\");\n    _;\n  }\n\n  /**\n   * @notice Creates a spaceship and assigns ownership to sender\n   * @dev Spaceship ownership is a prerequisite for owning commodities\n   * @param _name What to name your spaceship\n   */\n  function buySpaceship(string _name) external payable {\n    require(msg.value == costOfSpaceship, \"You need to provide the correct amount of ether\");\n    require(balanceOf(msg.sender) == 0, \"Accounts can only own one spaceship (for now)\");\n    numSpaceships = numSpaceships.add(1);\n    uint _tokenId = numSpaceships;\n    _mint(msg.sender, _tokenId);\n    addressToSpaceship[msg.sender] = Spaceship(_name, 255, 90000, 100, 100);\n    addressOwnsSpaceship[msg.sender] = true;\n    emit SpaceshipBought(msg.sender, _tokenId);\n  }\n\n  /**\n   * @notice Changes spaceship's current planet to planet specified\n   * @dev This function is responsible for deciding which planet IDs are valid planets\n   * @param _planetId Id of planet to travel to (0 - 6), or 255 for the 8th planet\n   */\n  function travelToPlanet(uint8 _planetId) external onlyPlayer {\n    require((0 <= _planetId && _planetId <= 6) || _planetId == 255, \"planetId must be between 0 and 6, inclusive, or be equal to 255\");\n    require(addressToSpaceship[msg.sender].currentFuel >= fuelUsage, \"You do not have enough fuel to travel\");\n    addressToSpaceship[msg.sender].currentPlanet = _planetId;\n    addressToSpaceship[msg.sender].currentFuel = addressToSpaceship[msg.sender].currentFuel.sub(fuelUsage);\n    emit TravelComplete(msg.sender, _planetId, addressToSpaceship[msg.sender].currentFuel);\n  }\n\n  /**\n   * @notice Changes spaceship's current fuel to max fuel, for a fee in ether\n   * @dev Throws if cost to refuel is not provided\n   */\n  function refuel() external payable onlyPlayer {\n    require(msg.value >= refuelCost, \"You need to provide the correct amount of ether to refuel\");\n    addressToSpaceship[msg.sender].currentFuel = addressToSpaceship[msg.sender].maxFuel;\n  }\n\n  /**\n   * @notice Returns player's spaceship info\n   */\n  function getInfo() external view returns (\n    string spaceshipName,\n    uint8 currentPlanet,\n    uint maxCargo,\n    uint currentFuel,\n    uint maxFuel\n  ) {\n    return (\n      addressToSpaceship[msg.sender].name,\n      addressToSpaceship[msg.sender].currentPlanet,\n      addressToSpaceship[msg.sender].maxCargo,\n      addressToSpaceship[msg.sender].currentFuel,\n      addressToSpaceship[msg.sender].maxFuel\n    );\n  }\n\n  function isPlayer(address _address) public view returns (bool) {\n    return addressOwnsSpaceship[_address];\n  }\n\n  function getCurrentPlanet(address _address) public view returns (uint8) {\n    return addressToSpaceship[_address].currentPlanet;\n  }\n\n  function checkFuel(address _address) public view returns (uint currentFuel, uint maxFuel) {\n    return (\n      addressToSpaceship[_address].currentFuel,\n      addressToSpaceship[_address].maxFuel\n    );\n  }\n\n  function getMaxCargo(address _address) public view returns (uint) {\n    return addressToSpaceship[_address].maxCargo;\n  }\n\n  function getAvailableCargo(address _address, uint _currentCargo) external view returns (uint) {\n    return getMaxCargo(_address).sub(_currentCargo);\n  }\n\n  function canFitCargo(address _player, uint _currentCargo, uint _incomingCargo) external returns (bool) {\n    uint _maxCargo = getMaxCargo(_player);\n    uint _cargoAvailable = _maxCargo.sub(_currentCargo);\n    return _cargoAvailable >= _incomingCargo;\n  }\n\n  function() public {}\n}\n",
  "sourcePath": "/Users/jongaspar/Documents/coding/galactonomics/contracts/GalacticTransitAuthority.sol",
  "compiler": {
    "name": "solc",
    "version": "0.4.24+commit.e67f0147.Emscripten.clang"
  },
  "schemaVersion": "2.0.1",
  "updatedAt": "2018-11-24T15:33:44.845Z"
}