{
  "contractName": "GalacticEconomicAuthority",
  "abi": [
    {
      "constant": true,
      "inputs": [
        {
          "name": "",
          "type": "uint8"
        },
        {
          "name": "",
          "type": "uint8"
        },
        {
          "name": "",
          "type": "uint256"
        }
      ],
      "name": "marketplaces",
      "outputs": [
        {
          "name": "seller",
          "type": "address"
        },
        {
          "name": "amount",
          "type": "uint256"
        },
        {
          "name": "price",
          "type": "uint256"
        },
        {
          "name": "open",
          "type": "bool"
        },
        {
          "name": "buyer",
          "type": "address"
        }
      ],
      "payable": false,
      "stateMutability": "view",
      "type": "function"
    },
    {
      "constant": true,
      "inputs": [
        {
          "name": "",
          "type": "uint8"
        },
        {
          "name": "",
          "type": "uint256"
        }
      ],
      "name": "planetIdToCommodityIdsTraded",
      "outputs": [
        {
          "name": "",
          "type": "uint256"
        }
      ],
      "payable": false,
      "stateMutability": "view",
      "type": "function"
    },
    {
      "inputs": [
        {
          "name": "_commodities",
          "type": "address"
        },
        {
          "name": "_gta",
          "type": "address"
        }
      ],
      "payable": false,
      "stateMutability": "nonpayable",
      "type": "constructor"
    },
    {
      "anonymous": false,
      "inputs": [
        {
          "indexed": false,
          "name": "planetId",
          "type": "uint8"
        },
        {
          "indexed": false,
          "name": "orderId",
          "type": "uint256"
        }
      ],
      "name": "sellOrderCreated",
      "type": "event"
    },
    {
      "anonymous": false,
      "inputs": [
        {
          "indexed": false,
          "name": "planetId",
          "type": "uint8"
        },
        {
          "indexed": false,
          "name": "orderId",
          "type": "uint256"
        }
      ],
      "name": "sellOrderPurchased",
      "type": "event"
    },
    {
      "constant": false,
      "inputs": [
        {
          "name": "_planetId",
          "type": "uint8"
        },
        {
          "name": "_commodityId",
          "type": "uint8"
        },
        {
          "name": "_amount",
          "type": "uint256"
        },
        {
          "name": "_price",
          "type": "uint256"
        }
      ],
      "name": "createSellOrder",
      "outputs": [],
      "payable": false,
      "stateMutability": "nonpayable",
      "type": "function"
    },
    {
      "constant": false,
      "inputs": [
        {
          "name": "_planetId",
          "type": "uint8"
        },
        {
          "name": "_commodityId",
          "type": "uint8"
        },
        {
          "name": "_orderId",
          "type": "uint256"
        }
      ],
      "name": "buySellOrder",
      "outputs": [],
      "payable": true,
      "stateMutability": "payable",
      "type": "function"
    },
    {
      "constant": true,
      "inputs": [
        {
          "name": "_planetId",
          "type": "uint8"
        },
        {
          "name": "_commodityId",
          "type": "uint8"
        },
        {
          "name": "_orderId",
          "type": "uint256"
        }
      ],
      "name": "getSellOrder",
      "outputs": [
        {
          "name": "seller",
          "type": "address"
        },
        {
          "name": "amount",
          "type": "uint256"
        },
        {
          "name": "price",
          "type": "uint256"
        },
        {
          "name": "open",
          "type": "bool"
        },
        {
          "name": "buyer",
          "type": "address"
        },
        {
          "name": "orderId",
          "type": "uint256"
        }
      ],
      "payable": false,
      "stateMutability": "view",
      "type": "function"
    },
    {
      "constant": true,
      "inputs": [
        {
          "name": "_planetId",
          "type": "uint8"
        },
        {
          "name": "_commodityId",
          "type": "uint8"
        }
      ],
      "name": "getNumSellOrders",
      "outputs": [
        {
          "name": "",
          "type": "uint256"
        }
      ],
      "payable": false,
      "stateMutability": "view",
      "type": "function"
    },
    {
      "constant": true,
      "inputs": [
        {
          "name": "_planetId",
          "type": "uint8"
        }
      ],
      "name": "getCommoditiesTraded",
      "outputs": [
        {
          "name": "commoditiesTraded",
          "type": "uint256[]"
        }
      ],
      "payable": false,
      "stateMutability": "view",
      "type": "function"
    }
  ],
  "bytecode": "0x60806040523480156200001157600080fd5b5060405160408062001f49833981018060405281019080805190602001909291908051906020019092919050505081600160006101000a81548173ffffffffffffffffffffffffffffffffffffffff021916908373ffffffffffffffffffffffffffffffffffffffff160217905550806000806101000a81548173ffffffffffffffffffffffffffffffffffffffff021916908373ffffffffffffffffffffffffffffffffffffffff160217905550606060405190810160405280600160ff168152602001600460ff168152602001600560ff16815250600260008060ff1681526020019081526020016000209060036200010e929190620002f5565b50608060405190810160405280600060ff168152602001600260ff168152602001600460ff168152602001600660ff1681525060026000600160ff168152602001908152602001600020906004620001689291906200034c565b506040805190810160405280600360ff168152602001600660ff1681525060026000600260ff168152602001908152602001600020906002620001ad929190620003a3565b50606060405190810160405280600060ff168152602001600260ff168152602001600560ff1681525060026000600360ff168152602001908152602001600020906003620001fd929190620002f5565b50606060405190810160405280600060ff168152602001600160ff168152602001600360ff1681525060026000600460ff1681526020019081526020016000209060036200024d929190620002f5565b506040805190810160405280600260ff168152602001600660ff1681525060026000600560ff16815260200190815260200160002090600262000292929190620003a3565b50608060405190810160405280600160ff168152602001600360ff168152602001600460ff168152602001600560ff1681525060026000600660ff168152602001908152602001600020906004620002ec9291906200034c565b50505062000422565b82805482825590600052602060002090810192821562000339579160200282015b8281111562000338578251829060ff1690559160200191906001019062000316565b5b509050620003489190620003fa565b5090565b82805482825590600052602060002090810192821562000390579160200282015b828111156200038f578251829060ff169055916020019190600101906200036d565b5b5090506200039f9190620003fa565b5090565b828054828255906000526020600020908101928215620003e7579160200282015b82811115620003e6578251829060ff16905591602001919060010190620003c4565b5b509050620003f69190620003fa565b5090565b6200041f91905b808211156200041b57600081600090555060010162000401565b5090565b90565b611b1780620004326000396000f300608060405260043610610083576000357c0100000000000000000000000000000000000000000000000000000000900463ffffffff168063061bb469146100885780632563fe67146100d957806354ddce07146101ac578063cfa9445f146101e6578063ea5d5880146102c0578063f3184e6914610311578063fe4c76c114610396575b600080fd5b34801561009457600080fd5b506100c3600480360381019080803560ff169060200190929190803560ff1690602001909291905050506103e4565b6040518082815260200191505060405180910390f35b3480156100e557600080fd5b5061011e600480360381019080803560ff169060200190929190803560ff16906020019092919080359060200190929190505050610422565b604051808673ffffffffffffffffffffffffffffffffffffffff1673ffffffffffffffffffffffffffffffffffffffff168152602001858152602001848152602001831515151581526020018273ffffffffffffffffffffffffffffffffffffffff1673ffffffffffffffffffffffffffffffffffffffff1681526020019550505050505060405180910390f35b6101e4600480360381019080803560ff169060200190929190803560ff169060200190929190803590602001909291905050506104ce565b005b3480156101f257600080fd5b5061022b600480360381019080803560ff169060200190929190803560ff1690602001909291908035906020019092919050505061109d565b604051808773ffffffffffffffffffffffffffffffffffffffff1673ffffffffffffffffffffffffffffffffffffffff168152602001868152602001858152602001841515151581526020018373ffffffffffffffffffffffffffffffffffffffff1673ffffffffffffffffffffffffffffffffffffffff168152602001828152602001965050505050505060405180910390f35b3480156102cc57600080fd5b5061030f600480360381019080803560ff169060200190929190803560ff1690602001909291908035906020019092919080359060200190929190505050611215565b005b34801561031d57600080fd5b5061033f600480360381019080803560ff16906020019092919050505061198d565b6040518080602001828103825283818151815260200191508051906020019060200280838360005b83811015610382578082015181840152602081019050610367565b505050509050019250505060405180910390f35b3480156103a257600080fd5b506103ce600480360381019080803560ff169060200190929190803590602001909291905050506119fe565b6040518082815260200191505060405180910390f35b6000600360008460ff1660ff16815260200190815260200160002060008360ff1660ff16815260200190815260200160002080549050905092915050565b60036020528260005260406000206020528160005260406000208181548110151561044957fe5b906000526020600020906004020160009250925050508060000160009054906101000a900473ffffffffffffffffffffffffffffffffffffffff16908060010154908060020154908060030160009054906101000a900460ff16908060030160019054906101000a900473ffffffffffffffffffffffffffffffffffffffff16905085565b6104d6611a8d565b828060ff166000111580156104ef575060068160ff1611155b1515610563576040517f08c379a000000000000000000000000000000000000000000000000000000000815260040180806020018281038252601d8152602001807f5468617420636f6d6d6f6469747920646f6573206e6f7420657869737400000081525060200191505060405180910390fd5b6000809054906101000a900473ffffffffffffffffffffffffffffffffffffffff1673ffffffffffffffffffffffffffffffffffffffff166309c95e10336040518263ffffffff167c0100000000000000000000000000000000000000000000000000000000028152600401808273ffffffffffffffffffffffffffffffffffffffff1673ffffffffffffffffffffffffffffffffffffffff168152602001915050602060405180830381600087803b15801561061f57600080fd5b505af1158015610633573d6000803e3d6000fd5b505050506040513d602081101561064957600080fd5b810190808051906020019092919050505015156106f4576040517f08c379a00000000000000000000000000000000000000000000000000000000081526004018080602001828103825260288152602001807f596f75206d757374206f776e20612073706163657368697020666f722074686981526020017f7320616374696f6e00000000000000000000000000000000000000000000000081525060400191505060405180910390fd5b8460ff166000809054906101000a900473ffffffffffffffffffffffffffffffffffffffff1673ffffffffffffffffffffffffffffffffffffffff1663e769c691336040518263ffffffff167c0100000000000000000000000000000000000000000000000000000000028152600401808273ffffffffffffffffffffffffffffffffffffffff1673ffffffffffffffffffffffffffffffffffffffff168152602001915050602060405180830381600087803b1580156107b457600080fd5b505af11580156107c8573d6000803e3d6000fd5b505050506040513d60208110156107de57600080fd5b810190808051906020019092919050505060ff1614151561088d576040517f08c379a00000000000000000000000000000000000000000000000000000000081526004018080602001828103825260218152602001807f596f7520617265206e6f74206f6e2074686520636f727265637420706c616e6581526020017f740000000000000000000000000000000000000000000000000000000000000081525060400191505060405180910390fd5b6000809054906101000a900473ffffffffffffffffffffffffffffffffffffffff1673ffffffffffffffffffffffffffffffffffffffff1663d6066eff33600160009054906101000a900473ffffffffffffffffffffffffffffffffffffffff1673ffffffffffffffffffffffffffffffffffffffff166368f30852336040518263ffffffff167c0100000000000000000000000000000000000000000000000000000000028152600401808273ffffffffffffffffffffffffffffffffffffffff1673ffffffffffffffffffffffffffffffffffffffff168152602001915050602060405180830381600087803b15801561098857600080fd5b505af115801561099c573d6000803e3d6000fd5b505050506040513d60208110156109b257600080fd5b8101908080519060200190929190505050600360008a60ff1660ff16815260200190815260200160002060008960ff1660ff16815260200190815260200160002087815481101515610a0057fe5b9060005260206000209060040201600101546040518463ffffffff167c0100000000000000000000000000000000000000000000000000000000028152600401808473ffffffffffffffffffffffffffffffffffffffff1673ffffffffffffffffffffffffffffffffffffffff1681526020018381526020018281526020019350505050602060405180830381600087803b158015610a9e57600080fd5b505af1158015610ab2573d6000803e3d6000fd5b505050506040513d6020811015610ac857600080fd5b81019080805190602001909291905050501515610b73576040517f08c379a00000000000000000000000000000000000000000000000000000000081526004018080602001828103825260228152602001807f43616e6e6f7420666974207468697320636172676f206f6e207370616365736881526020017f697000000000000000000000000000000000000000000000000000000000000081525060400191505060405180910390fd5b600360008660ff1660ff16815260200190815260200160002060008560ff1660ff16815260200190815260200160002083815481101515610bb057fe5b906000526020600020906004020160a060405190810160405290816000820160009054906101000a900473ffffffffffffffffffffffffffffffffffffffff1673ffffffffffffffffffffffffffffffffffffffff1673ffffffffffffffffffffffffffffffffffffffff16815260200160018201548152602001600282015481526020016003820160009054906101000a900460ff161515151581526020016003820160019054906101000a900473ffffffffffffffffffffffffffffffffffffffff1673ffffffffffffffffffffffffffffffffffffffff1673ffffffffffffffffffffffffffffffffffffffff16815250509150610cc282604001518360200151611a2e90919063ffffffff16565b34141515610d5e576040517f08c379a000000000000000000000000000000000000000000000000000000000815260040180806020018281038252602c8152602001807f596f7520646964206e6f742073656e642074686520636f727265637420616d6f81526020017f756e74206f66206574686572000000000000000000000000000000000000000081525060400191505060405180910390fd5b600160009054906101000a900473ffffffffffffffffffffffffffffffffffffffff1673ffffffffffffffffffffffffffffffffffffffff166360583ec5856040518263ffffffff167c0100000000000000000000000000000000000000000000000000000000028152600401808260ff1660ff168152602001915050602060405180830381600087803b158015610df557600080fd5b505af1158015610e09573d6000803e3d6000fd5b505050506040513d6020811015610e1f57600080fd5b810190808051906020019092919050505073ffffffffffffffffffffffffffffffffffffffff1663a9059cbb3384602001516040518363ffffffff167c0100000000000000000000000000000000000000000000000000000000028152600401808373ffffffffffffffffffffffffffffffffffffffff1673ffffffffffffffffffffffffffffffffffffffff16815260200182815260200192505050602060405180830381600087803b158015610ed657600080fd5b505af1158015610eea573d6000803e3d6000fd5b505050506040513d6020811015610f0057600080fd5b810190808051906020019092919050505050816000015173ffffffffffffffffffffffffffffffffffffffff166108fc349081150290604051600060405180830381858888f19350505050158015610f5c573d6000803e3d6000fd5b506000600360008760ff1660ff16815260200190815260200160002060008660ff1660ff16815260200190815260200160002084815481101515610f9c57fe5b906000526020600020906004020160030160006101000a81548160ff02191690831515021790555033600360008760ff1660ff16815260200190815260200160002060008660ff1660ff1681526020019081526020016000208481548110151561100257fe5b906000526020600020906004020160030160016101000a81548173ffffffffffffffffffffffffffffffffffffffff021916908373ffffffffffffffffffffffffffffffffffffffff1602179055507f968cf31c2c17219c66a0be66349c9a72531e066a0ab214e332d39a3c6869cff08584604051808360ff1660ff1681526020018281526020019250505060405180910390a15050505050565b6000806000806000806110ae611a8d565b600360008b60ff1660ff16815260200190815260200160002060008a60ff1660ff168152602001908152602001600020888154811015156110eb57fe5b906000526020600020906004020160a060405190810160405290816000820160009054906101000a900473ffffffffffffffffffffffffffffffffffffffff1673ffffffffffffffffffffffffffffffffffffffff1673ffffffffffffffffffffffffffffffffffffffff16815260200160018201548152602001600282015481526020016003820160009054906101000a900460ff161515151581526020016003820160019054906101000a900473ffffffffffffffffffffffffffffffffffffffff1673ffffffffffffffffffffffffffffffffffffffff1673ffffffffffffffffffffffffffffffffffffffff16815250509050806000015181602001518260400151836060015184608001518c9650965096509650965096505093975093979195509350565b61121d611a8d565b6000808660ff166000809054906101000a900473ffffffffffffffffffffffffffffffffffffffff1673ffffffffffffffffffffffffffffffffffffffff1663e769c691336040518263ffffffff167c0100000000000000000000000000000000000000000000000000000000028152600401808273ffffffffffffffffffffffffffffffffffffffff1673ffffffffffffffffffffffffffffffffffffffff168152602001915050602060405180830381600087803b1580156112e057600080fd5b505af11580156112f4573d6000803e3d6000fd5b505050506040513d602081101561130a57600080fd5b810190808051906020019092919050505060ff161415156113b9576040517f08c379a00000000000000000000000000000000000000000000000000000000081526004018080602001828103825260218152602001807f596f7520617265206e6f74206f6e2074686520636f727265637420706c616e6581526020017f740000000000000000000000000000000000000000000000000000000000000081525060400191505060405180910390fd5b84600160009054906101000a900473ffffffffffffffffffffffffffffffffffffffff1673ffffffffffffffffffffffffffffffffffffffff166360583ec5886040518263ffffffff167c0100000000000000000000000000000000000000000000000000000000028152600401808260ff1660ff168152602001915050602060405180830381600087803b15801561145157600080fd5b505af1158015611465573d6000803e3d6000fd5b505050506040513d602081101561147b57600080fd5b810190808051906020019092919050505073ffffffffffffffffffffffffffffffffffffffff166370a08231336040518263ffffffff167c0100000000000000000000000000000000000000000000000000000000028152600401808273ffffffffffffffffffffffffffffffffffffffff1673ffffffffffffffffffffffffffffffffffffffff168152602001915050602060405180830381600087803b15801561152657600080fd5b505af115801561153a573d6000803e3d6000fd5b505050506040513d602081101561155057600080fd5b8101908080519060200190929190505050101515156115fd576040517f08c379a00000000000000000000000000000000000000000000000000000000081526004018080602001828103825260278152602001807f596f7520646f206e6f74206f776e20656e6f756768206f66207468697320636f81526020017f6d6d6f646974790000000000000000000000000000000000000000000000000081525060400191505060405180910390fd5b60a0604051908101604052803373ffffffffffffffffffffffffffffffffffffffff168152602001868152602001858152602001600115158152602001600073ffffffffffffffffffffffffffffffffffffffff168152509250600160009054906101000a900473ffffffffffffffffffffffffffffffffffffffff1673ffffffffffffffffffffffffffffffffffffffff166360583ec5876040518263ffffffff167c0100000000000000000000000000000000000000000000000000000000028152600401808260ff1660ff168152602001915050602060405180830381600087803b1580156116ee57600080fd5b505af1158015611702573d6000803e3d6000fd5b505050506040513d602081101561171857600080fd5b810190808051906020019092919050505073ffffffffffffffffffffffffffffffffffffffff16639e88fd8133876040518363ffffffff167c0100000000000000000000000000000000000000000000000000000000028152600401808373ffffffffffffffffffffffffffffffffffffffff1673ffffffffffffffffffffffffffffffffffffffff16815260200182815260200192505050602060405180830381600087803b1580156117cb57600080fd5b505af11580156117df573d6000803e3d6000fd5b505050506040513d60208110156117f557600080fd5b810190808051906020019092919050505050600360008860ff1660ff16815260200190815260200160002060008760ff1660ff168152602001908152602001600020839080600181540180825580915050906001820390600052602060002090600402016000909192909190915060008201518160000160006101000a81548173ffffffffffffffffffffffffffffffffffffffff021916908373ffffffffffffffffffffffffffffffffffffffff160217905550602082015181600101556040820151816002015560608201518160030160006101000a81548160ff02191690831515021790555060808201518160030160016101000a81548173ffffffffffffffffffffffffffffffffffffffff021916908373ffffffffffffffffffffffffffffffffffffffff1602179055505050915061193d600183611a6c90919063ffffffff16565b90507f27fa02d865db76a86b66ebc6483e3f67d54d79836c9b9812f06781c1b23ce54c8782604051808360ff1660ff1681526020018281526020019250505060405180910390a150505050505050565b6060600260008360ff1660ff1681526020019081526020016000208054806020026020016040519081016040528092919081815260200182805480156119f257602002820191906000526020600020905b8154815260200190600101908083116119de575b50505050509050919050565b600260205281600052604060002081815481101515611a1957fe5b90600052602060002001600091509150505481565b6000806000841415611a435760009150611a65565b8284029050828482811515611a5457fe5b04141515611a6157600080fd5b8091505b5092915050565b600080838311151515611a7e57600080fd5b82840390508091505092915050565b60a060405190810160405280600073ffffffffffffffffffffffffffffffffffffffff1681526020016000815260200160008152602001600015158152602001600073ffffffffffffffffffffffffffffffffffffffff16815250905600a165627a7a723058208f51165910fb6622ba27f1f3fc470055ff5da25b4368527e83ff0201cd3f58480029",
  "source": "pragma solidity ^0.4.24;\n\nimport \"openzeppelin-solidity/contracts/math/SafeMath.sol\";\nimport \"./interfaces/IGalacticTransitAuthority.sol\";\nimport \"./interfaces/ICommodities.sol\";\n\n/**\n * @title Galactic Economic Authority (GEA)\n *\n * @notice The GEA handles commodity trading\n */\ncontract GalacticEconomicAuthority {\n  using SafeMath for uint;\n\n  IGalacticTransitAuthority gta;\n  ICommodities commodities;\n\n  struct SellOrder {\n    address seller;\n    uint amount;\n    uint price;\n    bool open;\n    address buyer;\n  }\n\n  // Mapping of planetId to array containing the commodity Ids that are sold on that planet\n  mapping(uint8 => uint[]) public planetIdToCommodityIdsTraded;\n\n  // Mapping of planetId to commodityId to sell orders array\n  mapping(uint8 => mapping(uint8 => SellOrder[])) public marketplaces;\n\n  event sellOrderCreated(uint8 planetId, uint orderId);\n  event sellOrderPurchased(uint8 planetId, uint orderId);\n\n  constructor(address _commodities, address _gta) {\n    commodities = ICommodities(_commodities);\n    gta = IGalacticTransitAuthority(_gta);\n\n    // Arrays that set which commodities are available on each planet\n    planetIdToCommodityIdsTraded[0] = [1, 4, 5];\n    planetIdToCommodityIdsTraded[1] = [0, 2, 4, 6];\n    planetIdToCommodityIdsTraded[2] = [3, 6];\n    planetIdToCommodityIdsTraded[3] = [0, 2, 5];\n    planetIdToCommodityIdsTraded[4] = [0, 1, 3];\n    planetIdToCommodityIdsTraded[5] = [2, 6];\n    planetIdToCommodityIdsTraded[6] = [1, 3, 4, 5];\n  }\n\n  /**\n   * @dev Modifier that ensures a commodity ID is valid\n   */\n  modifier commodityExists(uint8 _commodityId) {\n    require(0 <= _commodityId && _commodityId <= 6, \"That commodity does not exist\");\n    _;\n  }\n\n  /**\n   * @dev Modifier that ensures that a commodity is traded on a planet\n   */\n  modifier commodityTradedOnPlanet(uint8 _planetId, uint8 _commodityId) {\n    uint length = planetIdToCommodityIdsTraded[_planetId].length;\n    bool isTraded;\n    for (uint i = 0; i < length; i++) {\n      if (planetIdToCommodityIdsTraded[_planetId][i] == _commodityId) {\n        isTraded = true;\n        break;\n      }\n    }\n    require(isTraded, \"This commodity is not traded on this planet\");\n    _;\n  }\n\n  /**\n   * @notice To sell a commodity on a planet\n   * @param _planetId ID of planet to sell commodity on\n   * @param _commodityId ID of commodity to sell\n   * @param _amount Quantity of commodity to sell\n   * @param _price Price per unit of commodity\n   */\n  function createSellOrder(uint8 _planetId, uint8 _commodityId, uint _amount, uint _price)\n  external {\n  // commodityExists(_commodityId)\n  // commodityTradedOnPlanet(_planetId, _commodityId)\n    require(gta.getCurrentPlanet(msg.sender) == _planetId, \"You are not on the correct planet\");\n    require(commodities.getInterface(_commodityId).balanceOf(msg.sender) >= _amount, \"You do not own enough of this commodity\");\n\n    // Arrange transfer of commodity from user to escrow\n    SellOrder memory sellOrder = SellOrder(msg.sender, _amount, _price, true, address(0));\n    commodities.getInterface(_commodityId).transferToEscrow(msg.sender, _amount);\n    // Store order in array\n    uint _arrayLength = marketplaces[_planetId][_commodityId].push(sellOrder);\n    uint _orderId = _arrayLength.sub(1);\n\n    emit sellOrderCreated(_planetId, _orderId);\n  }\n\n  /**\n   * @notice To purchase a commodity that is for sale\n   * @param _planetId ID of planet that sell order is on\n   * @param _commodityId ID of commodity to buy\n   * @param _orderId ID of order to purchase\n   */\n  function buySellOrder(uint8 _planetId, uint8 _commodityId, uint _orderId) external payable\n  commodityExists(_commodityId) {\n    require(gta.isPlayer(msg.sender), \"You must own a spaceship for this action\");\n    require(gta.getCurrentPlanet(msg.sender) == _planetId, \"You are not on the correct planet\");\n    require(\n      gta.canFitCargo(msg.sender, commodities.getCurrentCargo(msg.sender), marketplaces[_planetId][_commodityId][_orderId].amount),\n      \"Cannot fit this cargo on spaceship\"\n    );\n    SellOrder memory sellOrder = marketplaces[_planetId][_commodityId][_orderId];\n    require(msg.value == sellOrder.amount.mul(sellOrder.price), \"You did not send the correct amount of ether\");\n\n    // Arrange transfer of commodity out of escrow\n    commodities.getInterface(_commodityId).transfer(msg.sender, sellOrder.amount);\n    // Transfer eth from buyer to seller\n    sellOrder.seller.transfer(msg.value);\n    // Close order\n    marketplaces[_planetId][_commodityId][_orderId].open = false;\n    // Add buyer's name to order for historical purposes\n    marketplaces[_planetId][_commodityId][_orderId].buyer = msg.sender;\n\n    emit sellOrderPurchased(_planetId, _orderId);\n  }\n\n  /**\n   * @notice Returns all data on specified sell order\n   * @param _planetId ID of planet that sell order is on\n   * @param _commodityId ID of commodity being sold\n   * @param _orderId ID of sell order\n   */\n  function getSellOrder(uint8 _planetId, uint8 _commodityId, uint _orderId) external view\n  returns (\n    address seller,\n    uint amount,\n    uint price,\n    bool open,\n    address buyer,\n    uint orderId\n  ) {\n    SellOrder memory sellOrder = marketplaces[_planetId][_commodityId][_orderId];\n    return (\n      sellOrder.seller,\n      sellOrder.amount,\n      sellOrder.price,\n      sellOrder.open,\n      sellOrder.buyer,\n      _orderId\n    );\n  }\n\n  /**\n   * @notice Returns the number of sell orders that exist for a specified planet and commodity\n   * @param _planetId ID of planet that sell order is on\n   * @param _commodityId ID of commodity being sold\n   */\n  function getNumSellOrders(uint8 _planetId, uint8 _commodityId) external view returns(uint) {\n    return marketplaces[_planetId][_commodityId].length;\n  }\n\n  /**\n   * @notice Returns an array containing the IDs of the commodoties sold on a particular planet\n   * @param _planetId ID of planet that sell order is on\n   */\n  function getCommoditiesTraded(uint8 _planetId) external view returns (uint[] commoditiesTraded) {\n    return planetIdToCommodityIdsTraded[_planetId];\n  }\n}\n",
  "sourcePath": "/Users/jongaspar/Documents/coding/galactonomics/contracts/GalacticEconomicAuthority.sol",
  "compiler": {
    "name": "solc",
    "version": "0.4.24+commit.e67f0147.Emscripten.clang"
  },
  "schemaVersion": "2.0.1",
  "updatedAt": "2018-11-24T15:33:44.859Z"
}