{
  "contractName": "GalacticIndustrialAuthority",
  "abi": [
    {
      "inputs": [
        {
          "name": "_commodities",
          "type": "address"
        },
        {
          "name": "_gta",
          "type": "address"
        }
      ],
      "payable": false,
      "stateMutability": "nonpayable",
      "type": "constructor"
    },
    {
      "payable": false,
      "stateMutability": "nonpayable",
      "type": "fallback"
    },
    {
      "constant": false,
      "inputs": [
        {
          "name": "_nonce",
          "type": "string"
        }
      ],
      "name": "submitProofOfWork",
      "outputs": [],
      "payable": false,
      "stateMutability": "nonpayable",
      "type": "function"
    }
  ],
  "bytecode": "0x608060405234801561001057600080fd5b5060405160408061094d833981018060405281019080805190602001909291908051906020019092919050505081600160006101000a81548173ffffffffffffffffffffffffffffffffffffffff021916908373ffffffffffffffffffffffffffffffffffffffff160217905550806000806101000a81548173ffffffffffffffffffffffffffffffffffffffff021916908373ffffffffffffffffffffffffffffffffffffffff160217905550505061087e806100cf6000396000f300608060405260043610610041576000357c0100000000000000000000000000000000000000000000000000000000900463ffffffff1680638efc905a14610050575b34801561004d57600080fd5b50005b34801561005c57600080fd5b5061008960048036038101908080359060200190820180359060200191909192939192939050505061008b565b005b6000806000809054906101000a900473ffffffffffffffffffffffffffffffffffffffff1673ffffffffffffffffffffffffffffffffffffffff166309c95e10336040518263ffffffff167c0100000000000000000000000000000000000000000000000000000000028152600401808273ffffffffffffffffffffffffffffffffffffffff1673ffffffffffffffffffffffffffffffffffffffff168152602001915050602060405180830381600087803b15801561014a57600080fd5b505af115801561015e573d6000803e3d6000fd5b505050506040513d602081101561017457600080fd5b8101908080519060200190929190505050151561021f576040517f08c379a00000000000000000000000000000000000000000000000000000000081526004018080602001828103825260288152602001807f596f75206d757374206f776e20612073706163657368697020666f722074686981526020017f7320616374696f6e00000000000000000000000000000000000000000000000081525060400191505060405180910390fd5b6000809054906101000a900473ffffffffffffffffffffffffffffffffffffffff1673ffffffffffffffffffffffffffffffffffffffff1663e769c691336040518263ffffffff167c0100000000000000000000000000000000000000000000000000000000028152600401808273ffffffffffffffffffffffffffffffffffffffff1673ffffffffffffffffffffffffffffffffffffffff168152602001915050602060405180830381600087803b1580156102db57600080fd5b505af11580156102ef573d6000803e3d6000fd5b505050506040513d602081101561030557600080fd5b8101908080519060200190929190505050915060028484604051602001808383808284378201915050925050506040516020818303038152906040526040518082805190602001908083835b6020831015156103765780518252602082019150602081019050602083039250610351565b6001836020036101000a0380198251168184511680821785525050505050509050019150506020604051808303816000865af11580156103ba573d6000803e3d6000fd5b5050506040513d60208110156103cf57600080fd5b81019080805190602001909291905050509050600160009054906101000a900473ffffffffffffffffffffffffffffffffffffffff1673ffffffffffffffffffffffffffffffffffffffff166358e57e84836040518263ffffffff167c0100000000000000000000000000000000000000000000000000000000028152600401808260ff1660ff168152602001915050602060405180830381600087803b15801561047957600080fd5b505af115801561048d573d6000803e3d6000fd5b505050506040513d60208110156104a357600080fd5b8101908080519060200190929190505050600019168160001916101515610558576040517f08c379a00000000000000000000000000000000000000000000000000000000081526004018080602001828103825260218152602001807f54686174206973206e6f7420612076616c69642070726f6f662d6f662d776f7281526020017f6b0000000000000000000000000000000000000000000000000000000000000081525060400191505060405180910390fd5b600160009054906101000a900473ffffffffffffffffffffffffffffffffffffffff1673ffffffffffffffffffffffffffffffffffffffff166360583ec5836040518263ffffffff167c0100000000000000000000000000000000000000000000000000000000028152600401808260ff1660ff168152602001915050602060405180830381600087803b1580156105ef57600080fd5b505af1158015610603573d6000803e3d6000fd5b505050506040513d602081101561061957600080fd5b810190808051906020019092919050505073ffffffffffffffffffffffffffffffffffffffff166340c10f1933600160009054906101000a900473ffffffffffffffffffffffffffffffffffffffff1673ffffffffffffffffffffffffffffffffffffffff16630b298f62866040518263ffffffff167c0100000000000000000000000000000000000000000000000000000000028152600401808260ff1660ff168152602001915050602060405180830381600087803b1580156106dd57600080fd5b505af11580156106f1573d6000803e3d6000fd5b505050506040513d602081101561070757600080fd5b81019080805190602001909291905050506040518363ffffffff167c0100000000000000000000000000000000000000000000000000000000028152600401808373ffffffffffffffffffffffffffffffffffffffff1673ffffffffffffffffffffffffffffffffffffffff16815260200182815260200192505050602060405180830381600087803b15801561079d57600080fd5b505af11580156107b1573d6000803e3d6000fd5b505050506040513d60208110156107c757600080fd5b8101908080519060200190929190505050151561084c576040517f08c379a000000000000000000000000000000000000000000000000000000000815260040180806020018281038252600d8152602001807f4572726f72206d696e74696e670000000000000000000000000000000000000081525060200191505060405180910390fd5b505050505600a165627a7a723058204664d4afcbc4f8162166b728590addeb74ce3886ab54c70105f89b1d656a333e0029",
  "source": "pragma solidity ^0.4.24;\n\nimport \"openzeppelin-solidity/contracts/math/SafeMath.sol\";\nimport \"./interfaces/IGalacticTransitAuthority.sol\";\nimport \"./interfaces/ICommodities.sol\";\n\n/**\n * @title Galactic Industrial Authority (GIA)\n *\n * @notice The GIA handles commodity-mining\n */\ncontract GalacticIndustrialAuthority {\n  using SafeMath for uint;\n\n  IGalacticTransitAuthority gta;\n  ICommodities commodities;\n\n  constructor(address _commodities, address _gta) public {\n    commodities = ICommodities(_commodities);\n    gta = IGalacticTransitAuthority(_gta);\n  }\n\n  /**\n   * @notice Mints new commodity tokens for a player\n   * @param _nonce Value found that when hashed (using SHA-256) with the previous proof-of-work hash found for a\n   *  specified commodity, results in an acceptable hash according to current target for that commodity\n   */\n  function submitProofOfWork(string _nonce) external {\n    require(gta.isPlayer(msg.sender), \"You must own a spaceship for this action\");\n\n    uint8 _commodityId = gta.getCurrentPlanet(msg.sender);\n\n    bytes32 _hash = sha256(abi.encodePacked(_nonce));\n    require(_hash < commodities.getMiningTarget(_commodityId), \"That is not a valid proof-of-work\");\n\n    require(commodities.getInterface(_commodityId).mint(msg.sender, commodities.getMiningReward(_commodityId)), \"Error minting\");\n  }\n\n  function() public {}\n}\n",
  "sourcePath": "/Users/jongaspar/Documents/coding/galactonomics/contracts/GalacticIndustrialAuthority.sol",
  "compiler": {
    "name": "solc",
    "version": "0.4.24+commit.e67f0147.Emscripten.clang"
  },
  "schemaVersion": "2.0.1",
  "updatedAt": "2018-11-24T05:22:36.373Z"
}