{
  "contractName": "GalacticIndustrialAuthority",
  "abi": [
    {
      "inputs": [
        {
          "name": "_commodities",
          "type": "address"
        },
        {
          "name": "_gta",
          "type": "address"
        }
      ],
      "payable": false,
      "stateMutability": "nonpayable",
      "type": "constructor"
    },
    {
      "payable": false,
      "stateMutability": "nonpayable",
      "type": "fallback"
    },
    {
      "anonymous": false,
      "inputs": [
        {
          "indexed": false,
          "name": "_hash",
          "type": "bytes32"
        },
        {
          "indexed": false,
          "name": "miner",
          "type": "address"
        }
      ],
      "name": "ProofFound",
      "type": "event"
    },
    {
      "anonymous": false,
      "inputs": [
        {
          "indexed": false,
          "name": "b",
          "type": "bytes32"
        }
      ],
      "name": "LogBytes",
      "type": "event"
    },
    {
      "anonymous": false,
      "inputs": [
        {
          "indexed": false,
          "name": "a",
          "type": "address"
        }
      ],
      "name": "LogAddr",
      "type": "event"
    },
    {
      "anonymous": false,
      "inputs": [
        {
          "indexed": false,
          "name": "i",
          "type": "uint256"
        }
      ],
      "name": "LogInt",
      "type": "event"
    },
    {
      "anonymous": false,
      "inputs": [
        {
          "indexed": false,
          "name": "s",
          "type": "string"
        }
      ],
      "name": "LogString",
      "type": "event"
    },
    {
      "constant": false,
      "inputs": [
        {
          "name": "_nonce",
          "type": "string"
        }
      ],
      "name": "submitProofOfWork",
      "outputs": [],
      "payable": false,
      "stateMutability": "nonpayable",
      "type": "function"
    },
    {
      "constant": true,
      "inputs": [],
      "name": "getMiningData",
      "outputs": [
        {
          "name": "miningReward",
          "type": "uint256"
        },
        {
          "name": "miningTarget",
          "type": "bytes32"
        },
        {
          "name": "timesMined",
          "type": "uint256"
        },
        {
          "name": "prevHash",
          "type": "bytes32"
        }
      ],
      "payable": false,
      "stateMutability": "view",
      "type": "function"
    }
  ],
  "bytecode": "0x608060405234801561001057600080fd5b50604051604080611d24833981018060405281019080805190602001909291908051906020019092919050505081600160006101000a81548173ffffffffffffffffffffffffffffffffffffffff021916908373ffffffffffffffffffffffffffffffffffffffff160217905550806000806101000a81548173ffffffffffffffffffffffffffffffffffffffff021916908373ffffffffffffffffffffffffffffffffffffffff1602179055505050611c55806100cf6000396000f30060806040526004361061004c576000357c0100000000000000000000000000000000000000000000000000000000900463ffffffff16806345ae70b01461005b5780638efc905a146100ab575b34801561005857600080fd5b50005b34801561006757600080fd5b506100706100e6565b604051808581526020018460001916600019168152602001838152602001826000191660001916815260200194505050505060405180910390f35b3480156100b757600080fd5b506100e4600480360381019080803590602001908201803590602001919091929391929390505050610947565b005b60008060008060008060009054906101000a900473ffffffffffffffffffffffffffffffffffffffff1673ffffffffffffffffffffffffffffffffffffffff166309c95e10336040518263ffffffff167c0100000000000000000000000000000000000000000000000000000000028152600401808273ffffffffffffffffffffffffffffffffffffffff1673ffffffffffffffffffffffffffffffffffffffff168152602001915050602060405180830381600087803b1580156101aa57600080fd5b505af11580156101be573d6000803e3d6000fd5b505050506040513d60208110156101d457600080fd5b8101908080519060200190929190505050151561027f576040517f08c379a00000000000000000000000000000000000000000000000000000000081526004018080602001828103825260288152602001807f596f75206d757374206f776e20612073706163657368697020666f722074686981526020017f7320616374696f6e00000000000000000000000000000000000000000000000081525060400191505060405180910390fd5b6000809054906101000a900473ffffffffffffffffffffffffffffffffffffffff1673ffffffffffffffffffffffffffffffffffffffff1663e769c691336040518263ffffffff167c0100000000000000000000000000000000000000000000000000000000028152600401808273ffffffffffffffffffffffffffffffffffffffff1673ffffffffffffffffffffffffffffffffffffffff168152602001915050602060405180830381600087803b15801561033b57600080fd5b505af115801561034f573d6000803e3d6000fd5b505050506040513d602081101561036557600080fd5b81019080805190602001909291905050509050600160009054906101000a900473ffffffffffffffffffffffffffffffffffffffff1673ffffffffffffffffffffffffffffffffffffffff166360583ec5826040518263ffffffff167c0100000000000000000000000000000000000000000000000000000000028152600401808260ff1660ff168152602001915050602060405180830381600087803b15801561040f57600080fd5b505af1158015610423573d6000803e3d6000fd5b505050506040513d602081101561043957600080fd5b810190808051906020019092919050505073ffffffffffffffffffffffffffffffffffffffff16634ac2d1036040518163ffffffff167c0100000000000000000000000000000000000000000000000000000000028152600401602060405180830381600087803b1580156104ad57600080fd5b505af11580156104c1573d6000803e3d6000fd5b505050506040513d60208110156104d757600080fd5b8101908080519060200190929190505050600160009054906101000a900473ffffffffffffffffffffffffffffffffffffffff1673ffffffffffffffffffffffffffffffffffffffff166360583ec5836040518263ffffffff167c0100000000000000000000000000000000000000000000000000000000028152600401808260ff1660ff168152602001915050602060405180830381600087803b15801561057f57600080fd5b505af1158015610593573d6000803e3d6000fd5b505050506040513d60208110156105a957600080fd5b810190808051906020019092919050505073ffffffffffffffffffffffffffffffffffffffff16638a769d356040518163ffffffff167c0100000000000000000000000000000000000000000000000000000000028152600401602060405180830381600087803b15801561061d57600080fd5b505af1158015610631573d6000803e3d6000fd5b505050506040513d602081101561064757600080fd5b8101908080519060200190929190505050600160009054906101000a900473ffffffffffffffffffffffffffffffffffffffff1673ffffffffffffffffffffffffffffffffffffffff166360583ec5846040518263ffffffff167c0100000000000000000000000000000000000000000000000000000000028152600401808260ff1660ff168152602001915050602060405180830381600087803b1580156106ef57600080fd5b505af1158015610703573d6000803e3d6000fd5b505050506040513d602081101561071957600080fd5b810190808051906020019092919050505073ffffffffffffffffffffffffffffffffffffffff16639a6094a86040518163ffffffff167c0100000000000000000000000000000000000000000000000000000000028152600401602060405180830381600087803b15801561078d57600080fd5b505af11580156107a1573d6000803e3d6000fd5b505050506040513d60208110156107b757600080fd5b8101908080519060200190929190505050600160009054906101000a900473ffffffffffffffffffffffffffffffffffffffff1673ffffffffffffffffffffffffffffffffffffffff166360583ec5856040518263ffffffff167c0100000000000000000000000000000000000000000000000000000000028152600401808260ff1660ff168152602001915050602060405180830381600087803b15801561085f57600080fd5b505af1158015610873573d6000803e3d6000fd5b505050506040513d602081101561088957600080fd5b810190808051906020019092919050505073ffffffffffffffffffffffffffffffffffffffff16638a0758486040518163ffffffff167c0100000000000000000000000000000000000000000000000000000000028152600401602060405180830381600087803b1580156108fd57600080fd5b505af1158015610911573d6000803e3d6000fd5b505050506040513d602081101561092757600080fd5b810190808051906020019092919050505094509450945094505090919293565b600060608060008060009054906101000a900473ffffffffffffffffffffffffffffffffffffffff1673ffffffffffffffffffffffffffffffffffffffff166309c95e10336040518263ffffffff167c0100000000000000000000000000000000000000000000000000000000028152600401808273ffffffffffffffffffffffffffffffffffffffff1673ffffffffffffffffffffffffffffffffffffffff168152602001915050602060405180830381600087803b158015610a0a57600080fd5b505af1158015610a1e573d6000803e3d6000fd5b505050506040513d6020811015610a3457600080fd5b81019080805190602001909291905050501515610adf576040517f08c379a00000000000000000000000000000000000000000000000000000000081526004018080602001828103825260288152602001807f596f75206d757374206f776e20612073706163657368697020666f722074686981526020017f7320616374696f6e00000000000000000000000000000000000000000000000081525060400191505060405180910390fd5b6000809054906101000a900473ffffffffffffffffffffffffffffffffffffffff1673ffffffffffffffffffffffffffffffffffffffff1663e769c691336040518263ffffffff167c0100000000000000000000000000000000000000000000000000000000028152600401808273ffffffffffffffffffffffffffffffffffffffff1673ffffffffffffffffffffffffffffffffffffffff168152602001915050602060405180830381600087803b158015610b9b57600080fd5b505af1158015610baf573d6000803e3d6000fd5b505050506040513d6020811015610bc557600080fd5b81019080805190602001909291905050509350610d50600160009054906101000a900473ffffffffffffffffffffffffffffffffffffffff1673ffffffffffffffffffffffffffffffffffffffff166360583ec5866040518263ffffffff167c0100000000000000000000000000000000000000000000000000000000028152600401808260ff1660ff168152602001915050602060405180830381600087803b158015610c7257600080fd5b505af1158015610c86573d6000803e3d6000fd5b505050506040513d6020811015610c9c57600080fd5b810190808051906020019092919050505073ffffffffffffffffffffffffffffffffffffffff16639a6094a86040518163ffffffff167c0100000000000000000000000000000000000000000000000000000000028152600401602060405180830381600087803b158015610d1057600080fd5b505af1158015610d24573d6000803e3d6000fd5b505050506040513d6020811015610d3a57600080fd5b81019080805190602001909291905050506114d3565b9250610ece600160009054906101000a900473ffffffffffffffffffffffffffffffffffffffff1673ffffffffffffffffffffffffffffffffffffffff166360583ec5866040518263ffffffff167c0100000000000000000000000000000000000000000000000000000000028152600401808260ff1660ff168152602001915050602060405180830381600087803b158015610dec57600080fd5b505af1158015610e00573d6000803e3d6000fd5b505050506040513d6020811015610e1657600080fd5b810190808051906020019092919050505073ffffffffffffffffffffffffffffffffffffffff16638a0758486040518163ffffffff167c0100000000000000000000000000000000000000000000000000000000028152600401602060405180830381600087803b158015610e8a57600080fd5b505af1158015610e9e573d6000803e3d6000fd5b505050506040513d6020811015610eb457600080fd5b810190808051906020019092919050505060001916611631565b9150600286868585610ef53373ffffffffffffffffffffffffffffffffffffffff16611834565b60405160200180868680828437820191505084805190602001908083835b602083101515610f385780518252602082019150602081019050602083039250610f13565b6001836020036101000a03801982511681845116808217855250505050505090500183805190602001908083835b602083101515610f8b5780518252602082019150602081019050602083039250610f66565b6001836020036101000a03801982511681845116808217855250505050505090500182805190602001908083835b602083101515610fde5780518252602082019150602081019050602083039250610fb9565b6001836020036101000a038019825116818451168082178552505050505050905001955050505050506040516020818303038152906040526040518082805190602001908083835b60208310151561104b5780518252602082019150602081019050602083039250611026565b6001836020036101000a0380198251168184511680821785525050505050509050019150506020604051808303816000865af115801561108f573d6000803e3d6000fd5b5050506040513d60208110156110a457600080fd5b81019080805190602001909291905050509050600160009054906101000a900473ffffffffffffffffffffffffffffffffffffffff1673ffffffffffffffffffffffffffffffffffffffff166358e57e84856040518263ffffffff167c0100000000000000000000000000000000000000000000000000000000028152600401808260ff1660ff168152602001915050602060405180830381600087803b15801561114e57600080fd5b505af1158015611162573d6000803e3d6000fd5b505050506040513d602081101561117857600080fd5b810190808051906020019092919050505060001916816000191610151561122d576040517f08c379a00000000000000000000000000000000000000000000000000000000081526004018080602001828103825260218152602001807f54686174206973206e6f7420612076616c69642070726f6f662d6f662d776f7281526020017f6b0000000000000000000000000000000000000000000000000000000000000081525060400191505060405180910390fd5b600160009054906101000a900473ffffffffffffffffffffffffffffffffffffffff1673ffffffffffffffffffffffffffffffffffffffff166360583ec5856040518263ffffffff167c0100000000000000000000000000000000000000000000000000000000028152600401808260ff1660ff168152602001915050602060405180830381600087803b1580156112c457600080fd5b505af11580156112d8573d6000803e3d6000fd5b505050506040513d60208110156112ee57600080fd5b810190808051906020019092919050505073ffffffffffffffffffffffffffffffffffffffff1663f1906c3133836040518363ffffffff167c0100000000000000000000000000000000000000000000000000000000028152600401808373ffffffffffffffffffffffffffffffffffffffff1673ffffffffffffffffffffffffffffffffffffffff168152602001826000191660001916815260200192505050602060405180830381600087803b1580156113a957600080fd5b505af11580156113bd573d6000803e3d6000fd5b505050506040513d60208110156113d357600080fd5b81019080805190602001909291905050501515611458576040517f08c379a00000000000000000000000000000000000000000000000000000000081526004018080602001828103825260128152602001807f4572726f7220646f696e6720726577617264000000000000000000000000000081525060200191505060405180910390fd5b7f091439296193c5b5310bfd3c01cb66f4f5186ea8d87084509cfafeafe8bc4e1181336040518083600019166000191681526020018273ffffffffffffffffffffffffffffffffffffffff1673ffffffffffffffffffffffffffffffffffffffff1681526020019250505060405180910390a1505050505050565b60606000806000606060008694506000851415611527576040805190810160405280600181526020017f30000000000000000000000000000000000000000000000000000000000000008152509550611627565b8493505b600084141515611551578280600101935050600a8481151561154957fe5b04935061152b565b826040519080825280601f01601f1916602001820160405280156115845781602001602082028038833980820191505090505b5091506001830390505b60008514151561162357600a858115156115a457fe5b066030017f0100000000000000000000000000000000000000000000000000000000000000028282806001900393508151811015156115df57fe5b9060200101907effffffffffffffffffffffffffffffffffffffffffffffffffffffffffffff1916908160001a905350600a8581151561161b57fe5b04945061158e565b8195505b5050505050919050565b60608060008060008060286040519080825280601f01601f19166020018201604052801561166e5781602001602082028038833980820191505090505b509450600093505b6014841015611827578360130360080260020a876001900481151561169757fe5b047f01000000000000000000000000000000000000000000000000000000000000000292506010837f0100000000000000000000000000000000000000000000000000000000000000900460ff168115156116ee57fe5b047f0100000000000000000000000000000000000000000000000000000000000000029150817f01000000000000000000000000000000000000000000000000000000000000009004601002837f01000000000000000000000000000000000000000000000000000000000000009004037f010000000000000000000000000000000000000000000000000000000000000002905061178c82611a49565b858560020281518110151561179d57fe5b9060200101907effffffffffffffffffffffffffffffffffffffffffffffffffffffffffffff1916908160001a9053506117d681611a49565b85600186600202018151811015156117ea57fe5b9060200101907effffffffffffffffffffffffffffffffffffffffffffffffffffffffffffff1916908160001a9053508380600101945050611676565b8495505050505050919050565b60608060008060008060286040519080825280601f01601f1916602001820160405280156118715781602001602082028038833980820191505090505b509450600093505b6014841015611a3c578360130360080260020a8773ffffffffffffffffffffffffffffffffffffffff168115156118ac57fe5b047f01000000000000000000000000000000000000000000000000000000000000000292506010837f0100000000000000000000000000000000000000000000000000000000000000900460ff1681151561190357fe5b047f0100000000000000000000000000000000000000000000000000000000000000029150817f01000000000000000000000000000000000000000000000000000000000000009004601002837f01000000000000000000000000000000000000000000000000000000000000009004037f01000000000000000000000000000000000000000000000000000000000000000290506119a182611b39565b85856002028151811015156119b257fe5b9060200101907effffffffffffffffffffffffffffffffffffffffffffffffffffffffffffff1916908160001a9053506119eb81611b39565b85600186600202018151811015156119ff57fe5b9060200101907effffffffffffffffffffffffffffffffffffffffffffffffffffffffffffff1916908160001a9053508380600101945050611879565b8495505050505050919050565b6000600a7f010000000000000000000000000000000000000000000000000000000000000002827effffffffffffffffffffffffffffffffffffffffffffffffffffffffffffff19161015611ae8576030827f01000000000000000000000000000000000000000000000000000000000000009004017f0100000000000000000000000000000000000000000000000000000000000000029050611b34565b6057827f01000000000000000000000000000000000000000000000000000000000000009004017f01000000000000000000000000000000000000000000000000000000000000000290505b919050565b6000600a7f010000000000000000000000000000000000000000000000000000000000000002827effffffffffffffffffffffffffffffffffffffffffffffffffffffffffffff19161015611bd8576030827f01000000000000000000000000000000000000000000000000000000000000009004017f0100000000000000000000000000000000000000000000000000000000000000029050611c24565b6057827f01000000000000000000000000000000000000000000000000000000000000009004017f01000000000000000000000000000000000000000000000000000000000000000290505b9190505600a165627a7a723058208e4c16da3a36834b4b937700c8f5471c73661a60d2e2e1031745d8ff30deef680029",
  "source": "pragma solidity ^0.4.24;\n\nimport \"openzeppelin-solidity/contracts/math/SafeMath.sol\";\nimport \"./interfaces/IGalacticTransitAuthority.sol\";\nimport \"./interfaces/ICommodities.sol\";\nimport \"./libraries/AddressCast.sol\";\nimport \"./libraries/BytesCast.sol\";\nimport \"./libraries/UintCast.sol\";\n\n/**\n * @title Galactic Industrial Authority (GIA)\n *\n * @notice The GIA handles commodity-mining\n */\ncontract GalacticIndustrialAuthority {\n  using SafeMath for uint;\n  using AddressCast for address;\n  using BytesCast for bytes32;\n  using UintCast for uint;\n\n  IGalacticTransitAuthority gta;\n  ICommodities commodities;\n\n  constructor(address _commodities, address _gta) public {\n    commodities = ICommodities(_commodities);\n    gta = IGalacticTransitAuthority(_gta);\n  }\n\n  event ProofFound(bytes32 _hash, address miner);\n\n  event LogBytes(bytes32 b);\n  event LogAddr(address a);\n  event LogInt(uint i);\n  event LogString(string s);\n\n  /**\n   * @notice Mints new commodity tokens for a player\n   * @param _nonce Value found that when hashed (using SHA-256) with the previous proof-of-work hash found for a\n   *  specified commodity, results in an acceptable hash according to current target for that commodity\n   */\n  function submitProofOfWork(string _nonce) external {\n    require(gta.isPlayer(msg.sender), \"You must own a spaceship for this action\");\n    uint8 _commodityId = gta.getCurrentPlanet(msg.sender);\n\n    string memory _timesMined = commodities.getInterface(_commodityId).timesMined().toString();\n    string memory _prevHash = commodities.getInterface(_commodityId).prevMiningHash().toString();\n\n    bytes32 _hash = sha256(abi.encodePacked(_nonce, _timesMined, _prevHash, msg.sender.toString()));\n\n    require(_hash < commodities.getMiningTarget(_commodityId), \"That is not a valid proof-of-work\");\n\n    require(commodities.getInterface(_commodityId).dispenseReward(msg.sender, _hash), \"Error doing reward\");\n    emit ProofFound(_hash, msg.sender);\n  }\n\n  /**\n   * @notice Returns all data required for mining\n   */\n  function getMiningData() external view returns (\n    uint miningReward,\n    bytes32 miningTarget,\n    uint timesMined,\n    bytes32 prevHash\n  ) {\n    require(gta.isPlayer(msg.sender), \"You must own a spaceship for this action\");\n    uint8 _commodityId = gta.getCurrentPlanet(msg.sender);\n\n    return (\n      commodities.getInterface(_commodityId).miningReward(),\n      commodities.getInterface(_commodityId).miningTarget(),\n      commodities.getInterface(_commodityId).timesMined(),\n      commodities.getInterface(_commodityId).prevMiningHash()\n    );\n  }\n\n  function() public {}\n}\n",
  "sourcePath": "/Users/jongaspar/Documents/coding/galactonomics/contracts/GalacticIndustrialAuthority.sol",
  "compiler": {
    "name": "solc",
    "version": "0.4.24+commit.e67f0147.Emscripten.clang"
  },
  "schemaVersion": "2.0.1",
  "updatedAt": "2018-11-24T15:33:44.834Z"
}