{
  "contractName": "GalacticIndustrialAuthority",
  "abi": [
    {
      "inputs": [
        {
          "name": "_commodities",
          "type": "address"
        },
        {
          "name": "_gta",
          "type": "address"
        }
      ],
      "payable": false,
      "stateMutability": "nonpayable",
      "type": "constructor"
    },
    {
      "payable": false,
      "stateMutability": "nonpayable",
      "type": "fallback"
    },
    {
      "anonymous": false,
      "inputs": [
        {
          "indexed": false,
          "name": "_hash",
          "type": "bytes32"
        },
        {
          "indexed": false,
          "name": "miner",
          "type": "address"
        }
      ],
      "name": "CommodityMined",
      "type": "event"
    },
    {
      "anonymous": false,
      "inputs": [
        {
          "indexed": false,
          "name": "b",
          "type": "bytes32"
        }
      ],
      "name": "LogBytes",
      "type": "event"
    },
    {
      "anonymous": false,
      "inputs": [
        {
          "indexed": false,
          "name": "s",
          "type": "string"
        }
      ],
      "name": "LogString",
      "type": "event"
    },
    {
      "constant": false,
      "inputs": [
        {
          "name": "_nonce",
          "type": "string"
        }
      ],
      "name": "submitProofOfWork",
      "outputs": [],
      "payable": false,
      "stateMutability": "nonpayable",
      "type": "function"
    },
    {
      "constant": true,
      "inputs": [],
      "name": "getMiningData",
      "outputs": [
        {
          "name": "miningReward",
          "type": "uint256"
        },
        {
          "name": "miningTarget",
          "type": "bytes32"
        },
        {
          "name": "timesMined",
          "type": "uint256"
        },
        {
          "name": "prevHash",
          "type": "string"
        }
      ],
      "payable": false,
      "stateMutability": "view",
      "type": "function"
    }
  ],
  "bytecode": "0x608060405234801561001057600080fd5b50604051604080611bea833981018060405281019080805190602001909291908051906020019092919050505081600160006101000a81548173ffffffffffffffffffffffffffffffffffffffff021916908373ffffffffffffffffffffffffffffffffffffffff160217905550806000806101000a81548173ffffffffffffffffffffffffffffffffffffffff021916908373ffffffffffffffffffffffffffffffffffffffff1602179055505050611b1b806100cf6000396000f30060806040526004361061004c576000357c0100000000000000000000000000000000000000000000000000000000900463ffffffff16806345ae70b01461005b5780638efc905a14610108575b34801561005857600080fd5b50005b34801561006757600080fd5b50610070610143565b60405180858152602001846000191660001916815260200183815260200180602001828103825283818151815260200191508051906020019080838360005b838110156100ca5780820151818401526020810190506100af565b50505050905090810190601f1680156100f75780820380516001836020036101000a031916815260200191505b509550505050505060405180910390f35b34801561011457600080fd5b506101416004803603810190808035906020019082018035906020019190919293919293905050506109b1565b005b6000806000606060008060009054906101000a900473ffffffffffffffffffffffffffffffffffffffff1673ffffffffffffffffffffffffffffffffffffffff166309c95e10336040518263ffffffff167c0100000000000000000000000000000000000000000000000000000000028152600401808273ffffffffffffffffffffffffffffffffffffffff1673ffffffffffffffffffffffffffffffffffffffff168152602001915050602060405180830381600087803b15801561020857600080fd5b505af115801561021c573d6000803e3d6000fd5b505050506040513d602081101561023257600080fd5b810190808051906020019092919050505015156102dd576040517f08c379a00000000000000000000000000000000000000000000000000000000081526004018080602001828103825260288152602001807f596f75206d757374206f776e20612073706163657368697020666f722074686981526020017f7320616374696f6e00000000000000000000000000000000000000000000000081525060400191505060405180910390fd5b6000809054906101000a900473ffffffffffffffffffffffffffffffffffffffff1673ffffffffffffffffffffffffffffffffffffffff1663e769c691336040518263ffffffff167c0100000000000000000000000000000000000000000000000000000000028152600401808273ffffffffffffffffffffffffffffffffffffffff1673ffffffffffffffffffffffffffffffffffffffff168152602001915050602060405180830381600087803b15801561039957600080fd5b505af11580156103ad573d6000803e3d6000fd5b505050506040513d60208110156103c357600080fd5b81019080805190602001909291905050509050600160009054906101000a900473ffffffffffffffffffffffffffffffffffffffff1673ffffffffffffffffffffffffffffffffffffffff166360583ec5826040518263ffffffff167c0100000000000000000000000000000000000000000000000000000000028152600401808260ff1660ff168152602001915050602060405180830381600087803b15801561046d57600080fd5b505af1158015610481573d6000803e3d6000fd5b505050506040513d602081101561049757600080fd5b810190808051906020019092919050505073ffffffffffffffffffffffffffffffffffffffff16634ac2d1036040518163ffffffff167c0100000000000000000000000000000000000000000000000000000000028152600401602060405180830381600087803b15801561050b57600080fd5b505af115801561051f573d6000803e3d6000fd5b505050506040513d602081101561053557600080fd5b8101908080519060200190929190505050600160009054906101000a900473ffffffffffffffffffffffffffffffffffffffff1673ffffffffffffffffffffffffffffffffffffffff166360583ec5836040518263ffffffff167c0100000000000000000000000000000000000000000000000000000000028152600401808260ff1660ff168152602001915050602060405180830381600087803b1580156105dd57600080fd5b505af11580156105f1573d6000803e3d6000fd5b505050506040513d602081101561060757600080fd5b810190808051906020019092919050505073ffffffffffffffffffffffffffffffffffffffff16638a769d356040518163ffffffff167c0100000000000000000000000000000000000000000000000000000000028152600401602060405180830381600087803b15801561067b57600080fd5b505af115801561068f573d6000803e3d6000fd5b505050506040513d60208110156106a557600080fd5b8101908080519060200190929190505050600160009054906101000a900473ffffffffffffffffffffffffffffffffffffffff1673ffffffffffffffffffffffffffffffffffffffff166360583ec5846040518263ffffffff167c0100000000000000000000000000000000000000000000000000000000028152600401808260ff1660ff168152602001915050602060405180830381600087803b15801561074d57600080fd5b505af1158015610761573d6000803e3d6000fd5b505050506040513d602081101561077757600080fd5b810190808051906020019092919050505073ffffffffffffffffffffffffffffffffffffffff16639a6094a86040518163ffffffff167c0100000000000000000000000000000000000000000000000000000000028152600401602060405180830381600087803b1580156107eb57600080fd5b505af11580156107ff573d6000803e3d6000fd5b505050506040513d602081101561081557600080fd5b81019080805190602001909291905050506109a2600160009054906101000a900473ffffffffffffffffffffffffffffffffffffffff1673ffffffffffffffffffffffffffffffffffffffff166360583ec5866040518263ffffffff167c0100000000000000000000000000000000000000000000000000000000028152600401808260ff1660ff168152602001915050602060405180830381600087803b1580156108c057600080fd5b505af11580156108d4573d6000803e3d6000fd5b505050506040513d60208110156108ea57600080fd5b810190808051906020019092919050505073ffffffffffffffffffffffffffffffffffffffff16638a0758486040518163ffffffff167c0100000000000000000000000000000000000000000000000000000000028152600401602060405180830381600087803b15801561095e57600080fd5b505af1158015610972573d6000803e3d6000fd5b505050506040513d602081101561098857600080fd5b810190808051906020019092919050505060001916611399565b94509450945094505090919293565b6000606060008060009054906101000a900473ffffffffffffffffffffffffffffffffffffffff1673ffffffffffffffffffffffffffffffffffffffff166309c95e10336040518263ffffffff167c0100000000000000000000000000000000000000000000000000000000028152600401808273ffffffffffffffffffffffffffffffffffffffff1673ffffffffffffffffffffffffffffffffffffffff168152602001915050602060405180830381600087803b158015610a7357600080fd5b505af1158015610a87573d6000803e3d6000fd5b505050506040513d6020811015610a9d57600080fd5b81019080805190602001909291905050501515610b48576040517f08c379a00000000000000000000000000000000000000000000000000000000081526004018080602001828103825260288152602001807f596f75206d757374206f776e20612073706163657368697020666f722074686981526020017f7320616374696f6e00000000000000000000000000000000000000000000000081525060400191505060405180910390fd5b6000809054906101000a900473ffffffffffffffffffffffffffffffffffffffff1673ffffffffffffffffffffffffffffffffffffffff1663e769c691336040518263ffffffff167c0100000000000000000000000000000000000000000000000000000000028152600401808273ffffffffffffffffffffffffffffffffffffffff1673ffffffffffffffffffffffffffffffffffffffff168152602001915050602060405180830381600087803b158015610c0457600080fd5b505af1158015610c18573d6000803e3d6000fd5b505050506040513d6020811015610c2e57600080fd5b81019080805190602001909291905050509250610dbd600160009054906101000a900473ffffffffffffffffffffffffffffffffffffffff1673ffffffffffffffffffffffffffffffffffffffff166360583ec5856040518263ffffffff167c0100000000000000000000000000000000000000000000000000000000028152600401808260ff1660ff168152602001915050602060405180830381600087803b158015610cdb57600080fd5b505af1158015610cef573d6000803e3d6000fd5b505050506040513d6020811015610d0557600080fd5b810190808051906020019092919050505073ffffffffffffffffffffffffffffffffffffffff16638a0758486040518163ffffffff167c0100000000000000000000000000000000000000000000000000000000028152600401602060405180830381600087803b158015610d7957600080fd5b505af1158015610d8d573d6000803e3d6000fd5b505050506040513d6020811015610da357600080fd5b810190808051906020019092919050505060001916611399565b915060028585610dcf8660ff1661159c565b85610def3373ffffffffffffffffffffffffffffffffffffffff166116fa565b60405160200180868680828437820191505084805190602001908083835b602083101515610e325780518252602082019150602081019050602083039250610e0d565b6001836020036101000a03801982511681845116808217855250505050505090500183805190602001908083835b602083101515610e855780518252602082019150602081019050602083039250610e60565b6001836020036101000a03801982511681845116808217855250505050505090500182805190602001908083835b602083101515610ed85780518252602082019150602081019050602083039250610eb3565b6001836020036101000a038019825116818451168082178552505050505050905001955050505050506040516020818303038152906040526040518082805190602001908083835b602083101515610f455780518252602082019150602081019050602083039250610f20565b6001836020036101000a0380198251168184511680821785525050505050509050019150506020604051808303816000865af1158015610f89573d6000803e3d6000fd5b5050506040513d6020811015610f9e57600080fd5b810190808051906020019092919050505090507fa95e6e2a182411e7a6f9ed114a85c3761d87f9b8f453d842c71235aa64fff99f610fde8460ff1661159c565b6040518080602001828103825283818151815260200191508051906020019080838360005b8381101561101e578082015181840152602081019050611003565b50505050905090810190601f16801561104b5780820380516001836020036101000a031916815260200191505b509250505060405180910390a17fa95e6e2a182411e7a6f9ed114a85c3761d87f9b8f453d842c71235aa64fff99f826040518080602001828103825283818151815260200191508051906020019080838360005b838110156110ba57808201518184015260208101905061109f565b50505050905090810190601f1680156110e75780820380516001836020036101000a031916815260200191505b509250505060405180910390a1600160009054906101000a900473ffffffffffffffffffffffffffffffffffffffff1673ffffffffffffffffffffffffffffffffffffffff166360583ec5846040518263ffffffff167c0100000000000000000000000000000000000000000000000000000000028152600401808260ff1660ff168152602001915050602060405180830381600087803b15801561118b57600080fd5b505af115801561119f573d6000803e3d6000fd5b505050506040513d60208110156111b557600080fd5b810190808051906020019092919050505073ffffffffffffffffffffffffffffffffffffffff1663f1906c3133836040518363ffffffff167c0100000000000000000000000000000000000000000000000000000000028152600401808373ffffffffffffffffffffffffffffffffffffffff1673ffffffffffffffffffffffffffffffffffffffff168152602001826000191660001916815260200192505050602060405180830381600087803b15801561127057600080fd5b505af1158015611284573d6000803e3d6000fd5b505050506040513d602081101561129a57600080fd5b8101908080519060200190929190505050151561131f576040517f08c379a00000000000000000000000000000000000000000000000000000000081526004018080602001828103825260128152602001807f4572726f7220646f696e6720726577617264000000000000000000000000000081525060200191505060405180910390fd5b7f37628f1020368b614d06369e46fca8c2204d0a35d594d994b8005ac9141661a181336040518083600019166000191681526020018273ffffffffffffffffffffffffffffffffffffffff1673ffffffffffffffffffffffffffffffffffffffff1681526020019250505060405180910390a15050505050565b60608060008060008060286040519080825280601f01601f1916602001820160405280156113d65781602001602082028038833980820191505090505b509450600093505b601484101561158f578360130360080260020a87600190048115156113ff57fe5b047f01000000000000000000000000000000000000000000000000000000000000000292506010837f0100000000000000000000000000000000000000000000000000000000000000900460ff1681151561145657fe5b047f0100000000000000000000000000000000000000000000000000000000000000029150817f01000000000000000000000000000000000000000000000000000000000000009004601002837f01000000000000000000000000000000000000000000000000000000000000009004037f01000000000000000000000000000000000000000000000000000000000000000290506114f48261190f565b858560020281518110151561150557fe5b9060200101907effffffffffffffffffffffffffffffffffffffffffffffffffffffffffffff1916908160001a90535061153e8161190f565b856001866002020181518110151561155257fe5b9060200101907effffffffffffffffffffffffffffffffffffffffffffffffffffffffffffff1916908160001a90535083806001019450506113de565b8495505050505050919050565b606060008060006060600086945060008514156115f0576040805190810160405280600181526020017f300000000000000000000000000000000000000000000000000000000000000081525095506116f0565b8493505b60008414151561161a578280600101935050600a8481151561161257fe5b0493506115f4565b826040519080825280601f01601f19166020018201604052801561164d5781602001602082028038833980820191505090505b5091506001830390505b6000851415156116ec57600a8581151561166d57fe5b066030017f0100000000000000000000000000000000000000000000000000000000000000028282806001900393508151811015156116a857fe5b9060200101907effffffffffffffffffffffffffffffffffffffffffffffffffffffffffffff1916908160001a905350600a858115156116e457fe5b049450611657565b8195505b5050505050919050565b60608060008060008060286040519080825280601f01601f1916602001820160405280156117375781602001602082028038833980820191505090505b509450600093505b6014841015611902578360130360080260020a8773ffffffffffffffffffffffffffffffffffffffff1681151561177257fe5b047f01000000000000000000000000000000000000000000000000000000000000000292506010837f0100000000000000000000000000000000000000000000000000000000000000900460ff168115156117c957fe5b047f0100000000000000000000000000000000000000000000000000000000000000029150817f01000000000000000000000000000000000000000000000000000000000000009004601002837f01000000000000000000000000000000000000000000000000000000000000009004037f0100000000000000000000000000000000000000000000000000000000000000029050611867826119ff565b858560020281518110151561187857fe5b9060200101907effffffffffffffffffffffffffffffffffffffffffffffffffffffffffffff1916908160001a9053506118b1816119ff565b85600186600202018151811015156118c557fe5b9060200101907effffffffffffffffffffffffffffffffffffffffffffffffffffffffffffff1916908160001a905350838060010194505061173f565b8495505050505050919050565b6000600a7f010000000000000000000000000000000000000000000000000000000000000002827effffffffffffffffffffffffffffffffffffffffffffffffffffffffffffff191610156119ae576030827f01000000000000000000000000000000000000000000000000000000000000009004017f01000000000000000000000000000000000000000000000000000000000000000290506119fa565b6057827f01000000000000000000000000000000000000000000000000000000000000009004017f01000000000000000000000000000000000000000000000000000000000000000290505b919050565b6000600a7f010000000000000000000000000000000000000000000000000000000000000002827effffffffffffffffffffffffffffffffffffffffffffffffffffffffffffff19161015611a9e576030827f01000000000000000000000000000000000000000000000000000000000000009004017f0100000000000000000000000000000000000000000000000000000000000000029050611aea565b6057827f01000000000000000000000000000000000000000000000000000000000000009004017f01000000000000000000000000000000000000000000000000000000000000000290505b9190505600a165627a7a72305820693e502f46997a656e702fc6e6bdc27a4f68444d1872441c92fb2a2b31da40010029",
  "source": "pragma solidity ^0.4.24;\n\nimport \"openzeppelin-solidity/contracts/math/SafeMath.sol\";\nimport \"./interfaces/IGalacticTransitAuthority.sol\";\nimport \"./interfaces/ICommodities.sol\";\nimport \"./libraries/AddressCast.sol\";\nimport \"./libraries/BytesCast.sol\";\nimport \"./libraries/UintCast.sol\";\n\n/**\n * @title Galactic Industrial Authority (GIA)\n *\n * @notice The GIA handles commodity-mining\n */\ncontract GalacticIndustrialAuthority {\n  using SafeMath for uint;\n  using AddressCast for address;\n  using BytesCast for bytes32;\n  using UintCast for uint8;\n\n  IGalacticTransitAuthority gta;\n  ICommodities commodities;\n\n  constructor(address _commodities, address _gta) public {\n    commodities = ICommodities(_commodities);\n    gta = IGalacticTransitAuthority(_gta);\n  }\n\n  event CommodityMined(bytes32 _hash, address miner);\n\n  event LogBytes(bytes32 b);\n  event LogString(string s);\n\n  /**\n   * @notice Mints new commodity tokens for a player\n   * @param _nonce Value found that when hashed (using SHA-256) with the previous proof-of-work hash found for a\n   *  commodity, results in an acceptable hash according to current target for that commodity\n   */\n  function submitProofOfWork(string _nonce) external {\n    require(gta.isPlayer(msg.sender), \"You must own a spaceship for this action\");\n    uint8 _commodityId = gta.getCurrentPlanet(msg.sender);\n\n    string memory _prevHash = commodities.getInterface(_commodityId).prevMiningHash().toString();\n\n    bytes32 _hash = sha256(\n      abi.encodePacked(\n        _nonce,\n        _commodityId.toString(),\n        _prevHash,\n        msg.sender.toString()\n      )\n    );\n\n    emit LogString(_commodityId.toString());\n    emit LogString(_prevHash);\n\n    // require(_hash < commodities.getMiningTarget(_commodityId), \"That is not a valid proof-of-work\");\n\n    require(commodities.getInterface(_commodityId).dispenseReward(msg.sender, _hash), \"Error doing reward\");\n    emit CommodityMined(_hash, msg.sender);\n  }\n\n  /**\n   * @notice Returns all data required for mining\n   */\n  function getMiningData() external view returns (\n    uint miningReward,\n    bytes32 miningTarget,\n    uint timesMined,\n    string prevHash\n  ) {\n    require(gta.isPlayer(msg.sender), \"You must own a spaceship for this action\");\n    uint8 _commodityId = gta.getCurrentPlanet(msg.sender);\n\n    return (\n      commodities.getInterface(_commodityId).miningReward(),\n      commodities.getInterface(_commodityId).miningTarget(),\n      commodities.getInterface(_commodityId).timesMined(),\n      commodities.getInterface(_commodityId).prevMiningHash().toString()\n    );\n  }\n\n  function() public {}\n}\n",
  "sourcePath": "/Users/jongaspar/Documents/coding/galactonomics/contracts/GalacticIndustrialAuthority.sol",
  "compiler": {
    "name": "solc",
    "version": "0.4.24+commit.e67f0147.Emscripten.clang"
  },
  "schemaVersion": "2.0.1",
  "updatedAt": "2018-11-25T18:28:08.351Z"
}