{
  "contractName": "ICommodities",
  "abi": [
    {
      "constant": true,
      "inputs": [
        {
          "name": "_player",
          "type": "address"
        }
      ],
      "name": "getCurrentCargo",
      "outputs": [
        {
          "name": "",
          "type": "uint256"
        }
      ],
      "payable": false,
      "stateMutability": "view",
      "type": "function"
    },
    {
      "constant": true,
      "inputs": [
        {
          "name": "_id",
          "type": "uint8"
        }
      ],
      "name": "getCommodityInfo",
      "outputs": [
        {
          "name": "name",
          "type": "string"
        },
        {
          "name": "symbol",
          "type": "string"
        }
      ],
      "payable": false,
      "stateMutability": "view",
      "type": "function"
    },
    {
      "constant": true,
      "inputs": [
        {
          "name": "_id",
          "type": "uint8"
        }
      ],
      "name": "getMiningAmount",
      "outputs": [
        {
          "name": "",
          "type": "uint256"
        }
      ],
      "payable": false,
      "stateMutability": "view",
      "type": "function"
    },
    {
      "constant": true,
      "inputs": [
        {
          "name": "_id",
          "type": "uint8"
        }
      ],
      "name": "getMiningTarget",
      "outputs": [
        {
          "name": "",
          "type": "bytes32"
        }
      ],
      "payable": false,
      "stateMutability": "view",
      "type": "function"
    },
    {
      "constant": true,
      "inputs": [
        {
          "name": "_id",
          "type": "uint8"
        }
      ],
      "name": "getBalance",
      "outputs": [
        {
          "name": "",
          "type": "uint256"
        }
      ],
      "payable": false,
      "stateMutability": "view",
      "type": "function"
    },
    {
      "constant": true,
      "inputs": [
        {
          "name": "_id",
          "type": "uint8"
        }
      ],
      "name": "getInterface",
      "outputs": [
        {
          "name": "",
          "type": "address"
        }
      ],
      "payable": false,
      "stateMutability": "view",
      "type": "function"
    },
    {
      "constant": true,
      "inputs": [
        {
          "name": "_id",
          "type": "uint8"
        }
      ],
      "name": "getAddress",
      "outputs": [
        {
          "name": "",
          "type": "address"
        }
      ],
      "payable": false,
      "stateMutability": "view",
      "type": "function"
    }
  ],
  "bytecode": "0x608060405234801561001057600080fd5b50610406806100206000396000f300608060405260043610610083576000357c0100000000000000000000000000000000000000000000000000000000900463ffffffff16806358e57e841461008857806360583ec5146100d457806368f3085214610144578063afe2652b1461019b578063bcaa0c55146101df578063dfefa78f1461024f578063e3a1248014610364575b600080fd5b34801561009457600080fd5b506100b6600480360381019080803560ff1690602001909291905050506103a8565b60405180826000191660001916815260200191505060405180910390f35b3480156100e057600080fd5b50610102600480360381019080803560ff1690602001909291905050506103af565b604051808273ffffffffffffffffffffffffffffffffffffffff1673ffffffffffffffffffffffffffffffffffffffff16815260200191505060405180910390f35b34801561015057600080fd5b50610185600480360381019080803573ffffffffffffffffffffffffffffffffffffffff1690602001909291905050506103b6565b6040518082815260200191505060405180910390f35b3480156101a757600080fd5b506101c9600480360381019080803560ff1690602001909291905050506103bd565b6040518082815260200191505060405180910390f35b3480156101eb57600080fd5b5061020d600480360381019080803560ff1690602001909291905050506103c4565b604051808273ffffffffffffffffffffffffffffffffffffffff1673ffffffffffffffffffffffffffffffffffffffff16815260200191505060405180910390f35b34801561025b57600080fd5b5061027d600480360381019080803560ff1690602001909291905050506103cb565b604051808060200180602001838103835285818151815260200191508051906020019080838360005b838110156102c15780820151818401526020810190506102a6565b50505050905090810190601f1680156102ee5780820380516001836020036101000a031916815260200191505b50838103825284818151815260200191508051906020019080838360005b8381101561032757808201518184015260208101905061030c565b50505050905090810190601f1680156103545780820380516001836020036101000a031916815260200191505b5094505050505060405180910390f35b34801561037057600080fd5b50610392600480360381019080803560ff1690602001909291905050506103d3565b6040518082815260200191505060405180910390f35b6000919050565b6000919050565b6000919050565b6000919050565b6000919050565b606080915091565b60009190505600a165627a7a723058205f052849b7ba52eb2929971885c26ec9707801b5045aa499e0b344fa4f2788d60029",
  "source": "pragma solidity ^0.4.24;\nimport \"./ICommodity.sol\";\n\n/**\n * @title ICommodities\n */\ncontract ICommodities {\n  function getCurrentCargo(address _player) external view returns (uint) {}\n\n  function getCommodityInfo(uint8 _id) external view returns (string name, string symbol) {}\n\n  function getMiningAmount(uint8 _id) external view returns (uint) {}\n\n  function getMiningTarget(uint8 _id) external view returns (bytes32) {}\n\n  function getBalance(uint8 _id) external view returns (uint) {}\n\n  function getInterface(uint8 _id) external view returns (ICommodity) {}\n\n  function getAddress(uint8 _id) external view returns (address) {}\n}",
  "sourcePath": "/Users/jongaspar/Documents/coding/galactonomics/contracts/interfaces/ICommodities.sol",
  "compiler": {
    "name": "solc",
    "version": "0.4.24+commit.e67f0147.Emscripten.clang"
  },
  "schemaVersion": "2.0.1",
  "updatedAt": "2018-11-24T04:05:33.623Z"
}