{
  "contractName": "ICommodity",
  "abi": [
    {
      "constant": false,
      "inputs": [
        {
          "name": "",
          "type": "address"
        }
      ],
      "name": "dispenseReward",
      "outputs": [
        {
          "name": "",
          "type": "bool"
        }
      ],
      "payable": false,
      "stateMutability": "nonpayable",
      "type": "function"
    },
    {
      "constant": false,
      "inputs": [
        {
          "name": "",
          "type": "address"
        },
        {
          "name": "",
          "type": "uint256"
        }
      ],
      "name": "transferToEscrow",
      "outputs": [
        {
          "name": "",
          "type": "bool"
        }
      ],
      "payable": false,
      "stateMutability": "nonpayable",
      "type": "function"
    },
    {
      "constant": false,
      "inputs": [
        {
          "name": "",
          "type": "address"
        },
        {
          "name": "",
          "type": "uint256"
        }
      ],
      "name": "transfer",
      "outputs": [
        {
          "name": "",
          "type": "bool"
        }
      ],
      "payable": false,
      "stateMutability": "nonpayable",
      "type": "function"
    },
    {
      "constant": false,
      "inputs": [
        {
          "name": "",
          "type": "address"
        },
        {
          "name": "",
          "type": "uint256"
        }
      ],
      "name": "burn",
      "outputs": [
        {
          "name": "",
          "type": "bool"
        }
      ],
      "payable": false,
      "stateMutability": "nonpayable",
      "type": "function"
    },
    {
      "constant": true,
      "inputs": [
        {
          "name": "",
          "type": "address"
        }
      ],
      "name": "balanceOf",
      "outputs": [
        {
          "name": "",
          "type": "uint256"
        }
      ],
      "payable": false,
      "stateMutability": "view",
      "type": "function"
    },
    {
      "constant": true,
      "inputs": [],
      "name": "name",
      "outputs": [
        {
          "name": "",
          "type": "string"
        }
      ],
      "payable": false,
      "stateMutability": "view",
      "type": "function"
    },
    {
      "constant": true,
      "inputs": [],
      "name": "symbol",
      "outputs": [
        {
          "name": "",
          "type": "string"
        }
      ],
      "payable": false,
      "stateMutability": "view",
      "type": "function"
    },
    {
      "constant": true,
      "inputs": [],
      "name": "miningReward",
      "outputs": [
        {
          "name": "",
          "type": "uint256"
        }
      ],
      "payable": false,
      "stateMutability": "view",
      "type": "function"
    },
    {
      "constant": true,
      "inputs": [],
      "name": "miningTarget",
      "outputs": [
        {
          "name": "",
          "type": "bytes32"
        }
      ],
      "payable": false,
      "stateMutability": "view",
      "type": "function"
    },
    {
      "constant": false,
      "inputs": [
        {
          "name": "",
          "type": "address"
        }
      ],
      "name": "setGEA",
      "outputs": [],
      "payable": false,
      "stateMutability": "nonpayable",
      "type": "function"
    },
    {
      "constant": false,
      "inputs": [
        {
          "name": "",
          "type": "address"
        }
      ],
      "name": "setGIA",
      "outputs": [],
      "payable": false,
      "stateMutability": "nonpayable",
      "type": "function"
    },
    {
      "constant": false,
      "inputs": [
        {
          "name": "",
          "type": "address"
        }
      ],
      "name": "setTA",
      "outputs": [],
      "payable": false,
      "stateMutability": "nonpayable",
      "type": "function"
    }
  ],
  "bytecode": "0x608060405234801561001057600080fd5b50610556806100206000396000f3006080604052600436106100ba576000357c0100000000000000000000000000000000000000000000000000000000900463ffffffff16806306fdde03146100bf57806316d9ba841461014f5780634ac2d1031461019257806370a08231146101bd57806371df70cc1461021457806380cd180d146102575780638a769d35146102b257806395d89b41146102e55780639dc29fac146103755780639e88fd81146103da578063a3e177311461043f578063a9059cbb14610482575b600080fd5b3480156100cb57600080fd5b506100d46104e7565b6040518080602001828103825283818151815260200191508051906020019080838360005b838110156101145780820151818401526020810190506100f9565b50505050905090810190601f1680156101415780820380516001836020036101000a031916815260200191505b509250505060405180910390f35b34801561015b57600080fd5b50610190600480360381019080803573ffffffffffffffffffffffffffffffffffffffff1690602001909291905050506104ec565b005b34801561019e57600080fd5b506101a76104ef565b6040518082815260200191505060405180910390f35b3480156101c957600080fd5b506101fe600480360381019080803573ffffffffffffffffffffffffffffffffffffffff1690602001909291905050506104f4565b6040518082815260200191505060405180910390f35b34801561022057600080fd5b50610255600480360381019080803573ffffffffffffffffffffffffffffffffffffffff1690602001909291905050506104fb565b005b34801561026357600080fd5b50610298600480360381019080803573ffffffffffffffffffffffffffffffffffffffff1690602001909291905050506104fe565b604051808215151515815260200191505060405180910390f35b3480156102be57600080fd5b506102c7610505565b60405180826000191660001916815260200191505060405180910390f35b3480156102f157600080fd5b506102fa61050a565b6040518080602001828103825283818151815260200191508051906020019080838360005b8381101561033a57808201518184015260208101905061031f565b50505050905090810190601f1680156103675780820380516001836020036101000a031916815260200191505b509250505060405180910390f35b34801561038157600080fd5b506103c0600480360381019080803573ffffffffffffffffffffffffffffffffffffffff1690602001909291908035906020019092919050505061050f565b604051808215151515815260200191505060405180910390f35b3480156103e657600080fd5b50610425600480360381019080803573ffffffffffffffffffffffffffffffffffffffff16906020019092919080359060200190929190505050610517565b604051808215151515815260200191505060405180910390f35b34801561044b57600080fd5b50610480600480360381019080803573ffffffffffffffffffffffffffffffffffffffff16906020019092919050505061051f565b005b34801561048e57600080fd5b506104cd600480360381019080803573ffffffffffffffffffffffffffffffffffffffff16906020019092919080359060200190929190505050610522565b604051808215151515815260200191505060405180910390f35b606090565b50565b600090565b6000919050565b50565b6000919050565b600090565b606090565b600092915050565b600092915050565b50565b6000929150505600a165627a7a7230582044877add8eac202e515fb80f2506a42e339ec2dd2362402a68eba6251bcb4b410029",
  "source": "pragma solidity ^0.4.24;\n\ncontract ICommodity {\n  function dispenseReward(address) public returns (bool) {}\n  function transferToEscrow(address, uint) public returns (bool) {}\n  function transfer(address, uint) public returns (bool) {}\n  function burn(address, uint) public returns (bool) {}\n  function balanceOf(address) public view returns (uint) {}\n  function name() public view returns(string) {}\n  function symbol() public view returns(string) {}\n  function miningReward() public view returns(uint) {}\n  function miningTarget() public view returns(bytes32) {}\n\n  function setGEA(address) public {}\n  function setGIA(address) public {}\n  function setTA(address) public {}\n}",
  "sourcePath": "/Users/jongaspar/Documents/coding/galactonomics/contracts/interfaces/ICommodity.sol",
  "compiler": {
    "name": "solc",
    "version": "0.4.24+commit.e67f0147.Emscripten.clang"
  },
  "schemaVersion": "2.0.1",
  "updatedAt": "2018-11-24T06:45:03.107Z"
}