{
  "contractName": "ICommodities",
  "abi": [
    {
      "constant": true,
      "inputs": [
        {
          "name": "_player",
          "type": "address"
        }
      ],
      "name": "getCurrentCargo",
      "outputs": [
        {
          "name": "",
          "type": "uint256"
        }
      ],
      "payable": false,
      "stateMutability": "view",
      "type": "function"
    },
    {
      "constant": true,
      "inputs": [
        {
          "name": "_id",
          "type": "uint8"
        }
      ],
      "name": "getCommodityInfo",
      "outputs": [
        {
          "name": "name",
          "type": "string"
        },
        {
          "name": "symbol",
          "type": "string"
        }
      ],
      "payable": false,
      "stateMutability": "view",
      "type": "function"
    },
    {
      "constant": true,
      "inputs": [
        {
          "name": "_id",
          "type": "uint8"
        }
      ],
      "name": "getMiningReward",
      "outputs": [
        {
          "name": "",
          "type": "uint256"
        }
      ],
      "payable": false,
      "stateMutability": "view",
      "type": "function"
    },
    {
      "constant": true,
      "inputs": [
        {
          "name": "_id",
          "type": "uint8"
        }
      ],
      "name": "getMiningTarget",
      "outputs": [
        {
          "name": "",
          "type": "bytes32"
        }
      ],
      "payable": false,
      "stateMutability": "view",
      "type": "function"
    },
    {
      "constant": true,
      "inputs": [
        {
          "name": "_id",
          "type": "uint8"
        }
      ],
      "name": "getBalance",
      "outputs": [
        {
          "name": "",
          "type": "uint256"
        }
      ],
      "payable": false,
      "stateMutability": "view",
      "type": "function"
    },
    {
      "constant": true,
      "inputs": [
        {
          "name": "_id",
          "type": "uint8"
        }
      ],
      "name": "getInterface",
      "outputs": [
        {
          "name": "",
          "type": "address"
        }
      ],
      "payable": false,
      "stateMutability": "view",
      "type": "function"
    }
  ],
  "bytecode": "0x608060405234801561001057600080fd5b50610384806100206000396000f300608060405260043610610078576000357c0100000000000000000000000000000000000000000000000000000000900463ffffffff1680630b298f621461007d57806358e57e84146100c157806360583ec51461010d57806368f308521461017d578063dfefa78f146101d4578063e3a12480146102e9575b600080fd5b34801561008957600080fd5b506100ab600480360381019080803560ff16906020019092919050505061032d565b6040518082815260200191505060405180910390f35b3480156100cd57600080fd5b506100ef600480360381019080803560ff169060200190929190505050610334565b60405180826000191660001916815260200191505060405180910390f35b34801561011957600080fd5b5061013b600480360381019080803560ff16906020019092919050505061033b565b604051808273ffffffffffffffffffffffffffffffffffffffff1673ffffffffffffffffffffffffffffffffffffffff16815260200191505060405180910390f35b34801561018957600080fd5b506101be600480360381019080803573ffffffffffffffffffffffffffffffffffffffff169060200190929190505050610342565b6040518082815260200191505060405180910390f35b3480156101e057600080fd5b50610202600480360381019080803560ff169060200190929190505050610349565b604051808060200180602001838103835285818151815260200191508051906020019080838360005b8381101561024657808201518184015260208101905061022b565b50505050905090810190601f1680156102735780820380516001836020036101000a031916815260200191505b50838103825284818151815260200191508051906020019080838360005b838110156102ac578082015181840152602081019050610291565b50505050905090810190601f1680156102d95780820380516001836020036101000a031916815260200191505b5094505050505060405180910390f35b3480156102f557600080fd5b50610317600480360381019080803560ff169060200190929190505050610351565b6040518082815260200191505060405180910390f35b6000919050565b6000919050565b6000919050565b6000919050565b606080915091565b60009190505600a165627a7a72305820c38c0dfd10de379277672bb2b4ea063ff61181799492d5864f350eb4d45046250029",
  "source": "pragma solidity ^0.4.24;\nimport \"./ICommodity.sol\";\n\n/**\n * @title ICommodities\n */\ncontract ICommodities {\n  function getCurrentCargo(address _player) external view returns (uint) {}\n  function getCommodityInfo(uint8 _id) external view returns (string name, string symbol) {}\n  function getMiningReward(uint8 _id) external view returns (uint) {}\n  function getMiningTarget(uint8 _id) external view returns (bytes32) {}\n  function getBalance(uint8 _id) external view returns (uint) {}\n  function getInterface(uint8 _id) external view returns (ICommodity) {}\n}",
  "sourcePath": "/Users/jongaspar/Documents/coding/galactonomics/contracts/interfaces/ICommodities.sol",
  "compiler": {
    "name": "solc",
    "version": "0.4.24+commit.e67f0147.Emscripten.clang"
  },
  "schemaVersion": "2.0.1",
  "updatedAt": "2018-11-24T15:06:38.069Z"
}