{
  "contractName": "IGalacticTransitAuthority",
  "abi": [
    {
      "constant": true,
      "inputs": [
        {
          "name": "",
          "type": "address"
        }
      ],
      "name": "getCurrentPlanet",
      "outputs": [
        {
          "name": "",
          "type": "uint8"
        }
      ],
      "payable": false,
      "stateMutability": "view",
      "type": "function"
    },
    {
      "constant": true,
      "inputs": [
        {
          "name": "",
          "type": "address"
        }
      ],
      "name": "isPlayer",
      "outputs": [
        {
          "name": "",
          "type": "bool"
        }
      ],
      "payable": false,
      "stateMutability": "view",
      "type": "function"
    },
    {
      "constant": true,
      "inputs": [
        {
          "name": "",
          "type": "address"
        }
      ],
      "name": "getMaxCargo",
      "outputs": [
        {
          "name": "",
          "type": "uint256"
        }
      ],
      "payable": false,
      "stateMutability": "view",
      "type": "function"
    },
    {
      "constant": true,
      "inputs": [
        {
          "name": "",
          "type": "address"
        },
        {
          "name": "",
          "type": "uint256"
        }
      ],
      "name": "getAvailableCargo",
      "outputs": [
        {
          "name": "",
          "type": "uint256"
        }
      ],
      "payable": false,
      "stateMutability": "view",
      "type": "function"
    },
    {
      "constant": false,
      "inputs": [
        {
          "name": "",
          "type": "address"
        },
        {
          "name": "",
          "type": "uint256"
        },
        {
          "name": "",
          "type": "uint256"
        }
      ],
      "name": "canFitCargo",
      "outputs": [
        {
          "name": "",
          "type": "bool"
        }
      ],
      "payable": false,
      "stateMutability": "nonpayable",
      "type": "function"
    }
  ],
  "bytecode": "0x608060405234801561001057600080fd5b506102a3806100206000396000f30060806040526004361061006d576000357c0100000000000000000000000000000000000000000000000000000000900463ffffffff16806309c95e1014610072578063445efe9a146100cd57806360924c3c14610124578063d6066eff14610185578063e769c691146101f4575b600080fd5b34801561007e57600080fd5b506100b3600480360381019080803573ffffffffffffffffffffffffffffffffffffffff169060200190929190505050610251565b604051808215151515815260200191505060405180910390f35b3480156100d957600080fd5b5061010e600480360381019080803573ffffffffffffffffffffffffffffffffffffffff169060200190929190505050610258565b6040518082815260200191505060405180910390f35b34801561013057600080fd5b5061016f600480360381019080803573ffffffffffffffffffffffffffffffffffffffff1690602001909291908035906020019092919050505061025f565b6040518082815260200191505060405180910390f35b34801561019157600080fd5b506101da600480360381019080803573ffffffffffffffffffffffffffffffffffffffff1690602001909291908035906020019092919080359060200190929190505050610267565b604051808215151515815260200191505060405180910390f35b34801561020057600080fd5b50610235600480360381019080803573ffffffffffffffffffffffffffffffffffffffff169060200190929190505050610270565b604051808260ff1660ff16815260200191505060405180910390f35b6000919050565b6000919050565b600092915050565b60009392505050565b60009190505600a165627a7a723058209c88eee86d447c74562be414a5d8fbd5068434ae7b20eedda830311b99e0a8720029",
  "source": "pragma solidity ^0.4.24;\nimport \"./ICommodity.sol\";\n\ncontract IGalacticTransitAuthority {\n  function getCurrentPlanet(address) public view returns (uint8) {}\n  function isPlayer(address) public view returns (bool) {}\n  function getMaxCargo(address) public view returns (uint) {}\n  function getAvailableCargo(address, uint) external view returns (uint) {}\n  function canFitCargo(address, uint, uint) external returns (bool) {}\n}",
  "sourcePath": "/Users/jongaspar/Documents/coding/galactonomics/contracts/interfaces/IGalacticTransitAuthority.sol",
  "compiler": {
    "name": "solc",
    "version": "0.4.24+commit.e67f0147.Emscripten.clang"
  },
  "schemaVersion": "2.0.1",
  "updatedAt": "2018-11-24T05:21:14.302Z"
}