{
  "contractName": "TempleAuthority",
  "abi": [
    {
      "constant": true,
      "inputs": [],
      "name": "forgingAmount",
      "outputs": [
        {
          "name": "",
          "type": "uint256"
        }
      ],
      "payable": false,
      "stateMutability": "view",
      "type": "function"
    },
    {
      "constant": true,
      "inputs": [
        {
          "name": "",
          "type": "uint256"
        }
      ],
      "name": "crystalsForSale",
      "outputs": [
        {
          "name": "",
          "type": "uint256"
        }
      ],
      "payable": false,
      "stateMutability": "view",
      "type": "function"
    },
    {
      "inputs": [
        {
          "name": "_commodities",
          "type": "address"
        },
        {
          "name": "_gta",
          "type": "address"
        },
        {
          "name": "_bCrystal",
          "type": "address"
        }
      ],
      "payable": false,
      "stateMutability": "nonpayable",
      "type": "constructor"
    },
    {
      "payable": true,
      "stateMutability": "payable",
      "type": "fallback"
    },
    {
      "constant": false,
      "inputs": [],
      "name": "forge",
      "outputs": [
        {
          "name": "",
          "type": "uint256"
        }
      ],
      "payable": false,
      "stateMutability": "nonpayable",
      "type": "function"
    },
    {
      "constant": true,
      "inputs": [
        {
          "name": "_owner",
          "type": "address"
        }
      ],
      "name": "crystalsOfOwner",
      "outputs": [
        {
          "name": "ownedCrystals",
          "type": "uint256[]"
        }
      ],
      "payable": false,
      "stateMutability": "view",
      "type": "function"
    },
    {
      "constant": false,
      "inputs": [
        {
          "name": "_tokenId",
          "type": "uint256"
        },
        {
          "name": "_price",
          "type": "uint256"
        }
      ],
      "name": "sell",
      "outputs": [],
      "payable": false,
      "stateMutability": "nonpayable",
      "type": "function"
    },
    {
      "constant": false,
      "inputs": [
        {
          "name": "_tokenId",
          "type": "uint256"
        }
      ],
      "name": "buy",
      "outputs": [],
      "payable": true,
      "stateMutability": "payable",
      "type": "function"
    },
    {
      "constant": true,
      "inputs": [],
      "name": "getCrystalsForSale",
      "outputs": [
        {
          "name": "",
          "type": "uint256[]"
        }
      ],
      "payable": false,
      "stateMutability": "view",
      "type": "function"
    },
    {
      "constant": true,
      "inputs": [
        {
          "name": "_tokenId",
          "type": "uint256"
        }
      ],
      "name": "crystalURI",
      "outputs": [
        {
          "name": "",
          "type": "string"
        }
      ],
      "payable": false,
      "stateMutability": "view",
      "type": "function"
    },
    {
      "constant": true,
      "inputs": [
        {
          "name": "_tokenId",
          "type": "uint256"
        }
      ],
      "name": "getCrystalSellData",
      "outputs": [
        {
          "name": "seller",
          "type": "address"
        },
        {
          "name": "price",
          "type": "uint256"
        }
      ],
      "payable": false,
      "stateMutability": "view",
      "type": "function"
    }
  ],
  "bytecode": "0x608060405234801561001057600080fd5b5060405160608061206d83398101806040528101908080519060200190929190805190602001909291908051906020019092919050505082600260006101000a81548173ffffffffffffffffffffffffffffffffffffffff021916908373ffffffffffffffffffffffffffffffffffffffff16021790555081600160006101000a81548173ffffffffffffffffffffffffffffffffffffffff021916908373ffffffffffffffffffffffffffffffffffffffff160217905550806000806101000a81548173ffffffffffffffffffffffffffffffffffffffff021916908373ffffffffffffffffffffffffffffffffffffffff160217905550505050611f528061011b6000396000f300608060405260043610610099576000357c0100000000000000000000000000000000000000000000000000000000900463ffffffff168063699199a31461009b5780636c6f4239146100c657806388087fcd146100f157806389737f6114610165578063b1e99c0e146101d1578063d380596b14610212578063d79875eb146102aa578063d96a094a146102e1578063fe271d4c14610301575b005b3480156100a757600080fd5b506100b06103a7565b6040518082815260200191505060405180910390f35b3480156100d257600080fd5b506100db6103ad565b6040518082815260200191505060405180910390f35b3480156100fd57600080fd5b5061011c60048036038101908080359060200190929190505050610c86565b604051808373ffffffffffffffffffffffffffffffffffffffff1673ffffffffffffffffffffffffffffffffffffffff1681526020018281526020019250505060405180910390f35b34801561017157600080fd5b5061017a610d25565b6040518080602001828103825283818151815260200191508051906020019060200280838360005b838110156101bd5780820151818401526020810190506101a2565b505050509050019250505060405180910390f35b3480156101dd57600080fd5b506101fc60048036038101908080359060200190929190505050610d7d565b6040518082815260200191505060405180910390f35b34801561021e57600080fd5b50610253600480360381019080803573ffffffffffffffffffffffffffffffffffffffff169060200190929190505050610da0565b6040518080602001828103825283818151815260200191508051906020019060200280838360005b8381101561029657808201518184015260208101905061027b565b505050509050019250505060405180910390f35b3480156102b657600080fd5b506102df600480360381019080803590602001909291908035906020019092919050505061112a565b005b6102ff60048036038101908080359060200190929190505050611785565b005b34801561030d57600080fd5b5061032c60048036038101908080359060200190929190505050611d7b565b6040518080602001828103825283818151815260200191508051906020019080838360005b8381101561036c578082015181840152602081019050610351565b50505050905090810190601f1680156103995780820380516001836020036101000a031916815260200191505b509250505060405180910390f35b61271081565b6000806000600160009054906101000a900473ffffffffffffffffffffffffffffffffffffffff1673ffffffffffffffffffffffffffffffffffffffff166309c95e10336040518263ffffffff167c0100000000000000000000000000000000000000000000000000000000028152600401808273ffffffffffffffffffffffffffffffffffffffff1673ffffffffffffffffffffffffffffffffffffffff168152602001915050602060405180830381600087803b15801561046f57600080fd5b505af1158015610483573d6000803e3d6000fd5b505050506040513d602081101561049957600080fd5b81019080805190602001909291905050501515610544576040517f08c379a00000000000000000000000000000000000000000000000000000000081526004018080602001828103825260288152602001807f596f75206d757374206f776e20612073706163657368697020666f722074686981526020017f7320616374696f6e00000000000000000000000000000000000000000000000081525060400191505060405180910390fd5b60ff600160009054906101000a900473ffffffffffffffffffffffffffffffffffffffff1673ffffffffffffffffffffffffffffffffffffffff1663e769c691336040518263ffffffff167c0100000000000000000000000000000000000000000000000000000000028152600401808273ffffffffffffffffffffffffffffffffffffffff1673ffffffffffffffffffffffffffffffffffffffff168152602001915050602060405180830381600087803b15801561060357600080fd5b505af1158015610617573d6000803e3d6000fd5b505050506040513d602081101561062d57600080fd5b810190808051906020019092919050505060ff161415156106dc576040517f08c379a00000000000000000000000000000000000000000000000000000000081526004018080602001828103825260218152602001807f596f7520617265206e6f74206f6e2074686520636f727265637420706c616e6581526020017f740000000000000000000000000000000000000000000000000000000000000081525060400191505060405180910390fd5b600091505b60068260ff1611151561094157612710600260009054906101000a900473ffffffffffffffffffffffffffffffffffffffff1673ffffffffffffffffffffffffffffffffffffffff166360583ec5846040518263ffffffff167c0100000000000000000000000000000000000000000000000000000000028152600401808260ff1660ff168152602001915050602060405180830381600087803b15801561078857600080fd5b505af115801561079c573d6000803e3d6000fd5b505050506040513d60208110156107b257600080fd5b810190808051906020019092919050505073ffffffffffffffffffffffffffffffffffffffff166370a08231336040518263ffffffff167c0100000000000000000000000000000000000000000000000000000000028152600401808273ffffffffffffffffffffffffffffffffffffffff1673ffffffffffffffffffffffffffffffffffffffff168152602001915050602060405180830381600087803b15801561085d57600080fd5b505af1158015610871573d6000803e3d6000fd5b505050506040513d602081101561088757600080fd5b810190808051906020019092919050505010151515610934576040517f08c379a000000000000000000000000000000000000000000000000000000000815260040180806020018281038252602b8152602001807f596f7520646f206e6f74206861766520656e6f75676820636f6d6d6f6469746981526020017f657320746f20666f72676500000000000000000000000000000000000000000081525060400191505060405180910390fd5b81806001019250506106e1565b600091505b60068260ff16111515610b8557600260009054906101000a900473ffffffffffffffffffffffffffffffffffffffff1673ffffffffffffffffffffffffffffffffffffffff166360583ec5836040518263ffffffff167c0100000000000000000000000000000000000000000000000000000000028152600401808260ff1660ff168152602001915050602060405180830381600087803b1580156109ea57600080fd5b505af11580156109fe573d6000803e3d6000fd5b505050506040513d6020811015610a1457600080fd5b810190808051906020019092919050505073ffffffffffffffffffffffffffffffffffffffff16639dc29fac336127106040518363ffffffff167c0100000000000000000000000000000000000000000000000000000000028152600401808373ffffffffffffffffffffffffffffffffffffffff1673ffffffffffffffffffffffffffffffffffffffff16815260200182815260200192505050602060405180830381600087803b158015610ac957600080fd5b505af1158015610add573d6000803e3d6000fd5b505050506040513d6020811015610af357600080fd5b81019080805190602001909291905050501515610b78576040517f08c379a00000000000000000000000000000000000000000000000000000000081526004018080602001828103825260178152602001807f4572726f72206275726e696e6720636f6d6d6f6469747900000000000000000081525060200191505060405180910390fd5b8180600101925050610946565b6000809054906101000a900473ffffffffffffffffffffffffffffffffffffffff1673ffffffffffffffffffffffffffffffffffffffff16639ed93318336040518263ffffffff167c0100000000000000000000000000000000000000000000000000000000028152600401808273ffffffffffffffffffffffffffffffffffffffff1673ffffffffffffffffffffffffffffffffffffffff168152602001915050602060405180830381600087803b158015610c4157600080fd5b505af1158015610c55573d6000803e3d6000fd5b505050506040513d6020811015610c6b57600080fd5b81019080805190602001909291905050509050809250505090565b600080610c91611ea5565b600460008581526020019081526020016000206040805190810160405290816000820160009054906101000a900473ffffffffffffffffffffffffffffffffffffffff1673ffffffffffffffffffffffffffffffffffffffff1673ffffffffffffffffffffffffffffffffffffffff1681526020016001820154815250509050806000015181602001519250925050915091565b60606003805480602002602001604051908101604052809291908181526020018280548015610d7357602002820191906000526020600020905b815481526020019060010190808311610d5f575b5050505050905090565b600381815481101515610d8c57fe5b906000526020600020016000915090505481565b60606000606060008060008060009054906101000a900473ffffffffffffffffffffffffffffffffffffffff1673ffffffffffffffffffffffffffffffffffffffff166370a08231886040518263ffffffff167c0100000000000000000000000000000000000000000000000000000000028152600401808273ffffffffffffffffffffffffffffffffffffffff1673ffffffffffffffffffffffffffffffffffffffff168152602001915050602060405180830381600087803b158015610e6757600080fd5b505af1158015610e7b573d6000803e3d6000fd5b505050506040513d6020811015610e9157600080fd5b810190808051906020019092919050505094506000851415610ee5576000604051908082528060200260200182016040528015610edd5781602001602082028038833980820191505090505b509550611120565b84604051908082528060200260200182016040528015610f145781602001602082028038833980820191505090505b5093506000809054906101000a900473ffffffffffffffffffffffffffffffffffffffff1673ffffffffffffffffffffffffffffffffffffffff166318160ddd6040518163ffffffff167c0100000000000000000000000000000000000000000000000000000000028152600401602060405180830381600087803b158015610f9c57600080fd5b505af1158015610fb0573d6000803e3d6000fd5b505050506040513d6020811015610fc657600080fd5b8101908080519060200190929190505050925060009150600190505b828111151561111c578673ffffffffffffffffffffffffffffffffffffffff166000809054906101000a900473ffffffffffffffffffffffffffffffffffffffff1673ffffffffffffffffffffffffffffffffffffffff16636352211e836040518263ffffffff167c010000000000000000000000000000000000000000000000000000000002815260040180828152602001915050602060405180830381600087803b15801561109257600080fd5b505af11580156110a6573d6000803e3d6000fd5b505050506040513d60208110156110bc57600080fd5b810190808051906020019092919050505073ffffffffffffffffffffffffffffffffffffffff16141561110f578084838151811015156110f857fe5b906020019060200201818152505081806001019250505b8080600101915050610fe2565b8395505b5050505050919050565b600160009054906101000a900473ffffffffffffffffffffffffffffffffffffffff1673ffffffffffffffffffffffffffffffffffffffff166309c95e10336040518263ffffffff167c0100000000000000000000000000000000000000000000000000000000028152600401808273ffffffffffffffffffffffffffffffffffffffff1673ffffffffffffffffffffffffffffffffffffffff168152602001915050602060405180830381600087803b1580156111e757600080fd5b505af11580156111fb573d6000803e3d6000fd5b505050506040513d602081101561121157600080fd5b810190808051906020019092919050505015156112bc576040517f08c379a00000000000000000000000000000000000000000000000000000000081526004018080602001828103825260288152602001807f596f75206d757374206f776e20612073706163657368697020666f722074686981526020017f7320616374696f6e00000000000000000000000000000000000000000000000081525060400191505060405180910390fd5b60ff600160009054906101000a900473ffffffffffffffffffffffffffffffffffffffff1673ffffffffffffffffffffffffffffffffffffffff1663e769c691336040518263ffffffff167c0100000000000000000000000000000000000000000000000000000000028152600401808273ffffffffffffffffffffffffffffffffffffffff1673ffffffffffffffffffffffffffffffffffffffff168152602001915050602060405180830381600087803b15801561137b57600080fd5b505af115801561138f573d6000803e3d6000fd5b505050506040513d60208110156113a557600080fd5b810190808051906020019092919050505060ff16141515611454576040517f08c379a00000000000000000000000000000000000000000000000000000000081526004018080602001828103825260218152602001807f596f7520617265206e6f74206f6e2074686520636f727265637420706c616e6581526020017f740000000000000000000000000000000000000000000000000000000000000081525060400191505060405180910390fd5b3373ffffffffffffffffffffffffffffffffffffffff166000809054906101000a900473ffffffffffffffffffffffffffffffffffffffff1673ffffffffffffffffffffffffffffffffffffffff16636352211e846040518263ffffffff167c010000000000000000000000000000000000000000000000000000000002815260040180828152602001915050602060405180830381600087803b1580156114fb57600080fd5b505af115801561150f573d6000803e3d6000fd5b505050506040513d602081101561152557600080fd5b810190808051906020019092919050505073ffffffffffffffffffffffffffffffffffffffff161415156115e7576040517f08c379a00000000000000000000000000000000000000000000000000000000081526004018080602001828103825260288152602001807f596f752063616e6e6f742073656c6c2061206372797374616c20796f7520646f81526020017f206e6f74206f776e00000000000000000000000000000000000000000000000081525060400191505060405180910390fd5b600382908060018154018082558091505090600182039060005260206000200160009091929091909150555060408051908101604052803373ffffffffffffffffffffffffffffffffffffffff168152602001828152506004600084815260200190815260200160002060008201518160000160006101000a81548173ffffffffffffffffffffffffffffffffffffffff021916908373ffffffffffffffffffffffffffffffffffffffff160217905550602082015181600101559050506000809054906101000a900473ffffffffffffffffffffffffffffffffffffffff1673ffffffffffffffffffffffffffffffffffffffff16639e88fd8133846040518363ffffffff167c0100000000000000000000000000000000000000000000000000000000028152600401808373ffffffffffffffffffffffffffffffffffffffff1673ffffffffffffffffffffffffffffffffffffffff16815260200182815260200192505050600060405180830381600087803b15801561176957600080fd5b505af115801561177d573d6000803e3d6000fd5b505050505050565b600080600160009054906101000a900473ffffffffffffffffffffffffffffffffffffffff1673ffffffffffffffffffffffffffffffffffffffff166309c95e10336040518263ffffffff167c0100000000000000000000000000000000000000000000000000000000028152600401808273ffffffffffffffffffffffffffffffffffffffff1673ffffffffffffffffffffffffffffffffffffffff168152602001915050602060405180830381600087803b15801561184557600080fd5b505af1158015611859573d6000803e3d6000fd5b505050506040513d602081101561186f57600080fd5b8101908080519060200190929190505050151561191a576040517f08c379a00000000000000000000000000000000000000000000000000000000081526004018080602001828103825260288152602001807f596f75206d757374206f776e20612073706163657368697020666f722074686981526020017f7320616374696f6e00000000000000000000000000000000000000000000000081525060400191505060405180910390fd5b60ff600160009054906101000a900473ffffffffffffffffffffffffffffffffffffffff1673ffffffffffffffffffffffffffffffffffffffff1663e769c691336040518263ffffffff167c0100000000000000000000000000000000000000000000000000000000028152600401808273ffffffffffffffffffffffffffffffffffffffff1673ffffffffffffffffffffffffffffffffffffffff168152602001915050602060405180830381600087803b1580156119d957600080fd5b505af11580156119ed573d6000803e3d6000fd5b505050506040513d6020811015611a0357600080fd5b810190808051906020019092919050505060ff16141515611ab2576040517f08c379a00000000000000000000000000000000000000000000000000000000081526004018080602001828103825260218152602001807f596f7520617265206e6f74206f6e2074686520636f727265637420706c616e6581526020017f740000000000000000000000000000000000000000000000000000000000000081525060400191505060405180910390fd5b600460008481526020019081526020016000206001015434141515611b65576040517f08c379a000000000000000000000000000000000000000000000000000000000815260040180806020018281038252602f8152602001807f596f7520646964206e6f742070726f766964652074686520636f72726563742081526020017f616d6f756e74206f66206574686572000000000000000000000000000000000081525060400191505060405180910390fd5b6003805490509150600090505b81811015611c1d5782600382815481101515611b8a57fe5b90600052602060002001541415611c1057600360018303815481101515611bad57fe5b9060005260206000200154600382815481101515611bc757fe5b9060005260206000200181905550600360018303815481101515611be757fe5b90600052602060002001600090556003805480919060019003611c0a9190611ed5565b50611c1d565b8080600101915050611b72565b6004600084815260200190815260200160002060000160009054906101000a900473ffffffffffffffffffffffffffffffffffffffff1673ffffffffffffffffffffffffffffffffffffffff166108fc349081150290604051600060405180830381858888f19350505050158015611c99573d6000803e3d6000fd5b506000809054906101000a900473ffffffffffffffffffffffffffffffffffffffff1673ffffffffffffffffffffffffffffffffffffffff1663283760fa33856040518363ffffffff167c0100000000000000000000000000000000000000000000000000000000028152600401808373ffffffffffffffffffffffffffffffffffffffff1673ffffffffffffffffffffffffffffffffffffffff16815260200182815260200192505050600060405180830381600087803b158015611d5e57600080fd5b505af1158015611d72573d6000803e3d6000fd5b50505050505050565b60606000809054906101000a900473ffffffffffffffffffffffffffffffffffffffff1673ffffffffffffffffffffffffffffffffffffffff1663c87b56dd836040518263ffffffff167c010000000000000000000000000000000000000000000000000000000002815260040180828152602001915050600060405180830381600087803b158015611e0d57600080fd5b505af1158015611e21573d6000803e3d6000fd5b505050506040513d6000823e3d601f19601f820116820180604052506020811015611e4b57600080fd5b810190808051640100000000811115611e6357600080fd5b82810190506020810184811115611e7957600080fd5b8151856001820283011164010000000082111715611e9657600080fd5b50509291905050509050919050565b6040805190810160405280600073ffffffffffffffffffffffffffffffffffffffff168152602001600081525090565b815481835581811115611efc57818360005260206000209182019101611efb9190611f01565b5b505050565b611f2391905b80821115611f1f576000816000905550600101611f07565b5090565b905600a165627a7a72305820c79fdecdbba7fadfadbf8e79da1f0162920c5532faebcfc980173585648042480029",
  "source": "pragma solidity ^0.4.24;\n\nimport \"openzeppelin-solidity/contracts/token/ERC721/ERC721Full.sol\";\nimport \"openzeppelin-solidity/contracts/math/SafeMath.sol\";\nimport \"./interfaces/IByzantianCrystal.sol\";\nimport \"./interfaces/IGalacticTransitAuthority.sol\";\nimport \"./interfaces/ICommodities.sol\";\n\n/**\n * @title Temple Authority\n *\n * @notice This contract handles Byzantian Crystal forging and trading\n */\ncontract TempleAuthority {\n  using SafeMath for uint;\n\n  IByzantianCrystal bCrystal;\n  IGalacticTransitAuthority gta;\n  ICommodities commodities;\n\n  // Units of each commodity required to forge a crystal\n  uint public constant forgingAmount = 10000;\n\n  // Array storing IDs of all crystals that are for sale\n  uint[] public crystalsForSale;\n\n  // Mapping of token IDs to SellData struct\n  mapping(uint => SellData) tokenIdToSellData;\n\n  struct SellData {\n    address seller;\n    uint price;\n  }\n\n  constructor(address _commodities, address _gta, address _bCrystal) public {\n    commodities = ICommodities(_commodities);\n    gta = IGalacticTransitAuthority(_gta);\n    bCrystal = IByzantianCrystal(_bCrystal);\n  }\n\n  modifier onlyPlayerAtTemple() {\n    require(gta.isPlayer(msg.sender), \"You must own a spaceship for this action\");\n    require(gta.getCurrentPlanet(msg.sender) == 255, \"You are not on the correct planet\");\n    _;\n  }\n\n  /**\n   * @notice Creates a new crystal, requires forgingAmount in all 7 commodities\n   * @dev Burns a quantity of all 7 of an account's commodities\n   * @return tokenId of newly created crystal\n   */\n  function forge() external onlyPlayerAtTemple returns (uint) {\n    uint8 i;\n\n    // Check balance of every commodity to make sure there is enough\n    for (i = 0; i <= 6; i++) {\n      require(\n        commodities.getInterface(i).balanceOf(msg.sender) >= forgingAmount,\n        \"You do not have enough commodities to forge\"\n      );\n    }\n\n    // Burn x amount of all 7 of user's commodities\n    for (i = 0; i <= 6; i++) {\n      require(\n        commodities.getInterface(i).burn(msg.sender, forgingAmount),\n        \"Error burning commodity\"\n      );\n    }\n\n    uint _tokenId = bCrystal.create(msg.sender);\n    return _tokenId;\n  }\n\n  /**\n   * @notice Returns a list of all token IDs owned by an account\n   * @param _owner Address of account to look up\n   */\n  function crystalsOfOwner(address _owner) external view returns (uint[] ownedCrystals) {\n    uint tokenCount = bCrystal.balanceOf(_owner);\n\n    if (tokenCount == 0) {\n      // Return an empty array\n      return new uint[](0);\n    } else {\n      uint[] memory result = new uint[](tokenCount);\n      uint totalCrystals = bCrystal.totalSupply();\n      uint resultIndex = 0;\n      uint crystalId;\n\n      for (crystalId = 1; crystalId <= totalCrystals; crystalId++) {\n        if (bCrystal.ownerOf(crystalId) == _owner) {\n          result[resultIndex] = crystalId;\n          resultIndex++;\n        }\n      }\n\n      return result;\n    }\n  }\n\n  /**\n   * @notice Put a crystal up for sale\n   * @param _tokenId Id of crystal to sell\n   * @param _price Price in wei to sell crystal for\n   */\n  function sell(uint _tokenId, uint _price) external onlyPlayerAtTemple {\n    require(bCrystal.ownerOf(_tokenId) == msg.sender, \"You cannot sell a crystal you do not own\");\n\n    // Add crystal to list of crystals for sale\n    crystalsForSale.push(_tokenId);\n    // Store seller address and price in mapping\n    tokenIdToSellData[_tokenId] = SellData(msg.sender, _price);\n    // Transfer token from owner to this contract (acting as escrow)\n    bCrystal.transferToEscrow(msg.sender, _tokenId);\n  }\n\n  /**\n   * @notice Purchase a crystal\n   * @param _tokenId Id of crystal to purchase\n   */\n  function buy(uint _tokenId) external payable onlyPlayerAtTemple {\n    require(msg.value == tokenIdToSellData[_tokenId].price, \"You did not provide the correct amount of ether\");\n\n    // Remove crystal from list of crystals for sale\n    uint numForSale = crystalsForSale.length;\n    for (uint i = 0; i < numForSale; i++) {\n      if (crystalsForSale[i] == _tokenId) {\n        // If in here then we found the index this token is at, now for array management:\n        // Move last crystal in list to bought token's spot\n        crystalsForSale[i] = crystalsForSale[numForSale - 1];\n        // Delete last item\n        delete crystalsForSale[numForSale - 1];\n        // Shorten list of crystals for sale by 1\n        crystalsForSale.length--;\n        break;\n      }\n    }\n\n    // Transfer money to seller\n    tokenIdToSellData[_tokenId].seller.transfer(msg.value);\n    // Transfer token ownership to buyer\n    bCrystal.transferFromEscrow(msg.sender, _tokenId);\n  }\n\n  /**\n   * @notice Getter function for crystalsForSale array\n   */\n  function getCrystalsForSale() external view returns (uint[]) {\n    return crystalsForSale;\n  }\n\n  /**\n   * @notice Returns URI of ERC-721 token\n   * @param _tokenId Address of account to look up\n   * @dev This function exists so the front-end doesn't have to import\n   *  the B. Crystal contract just to get the crystal's URI\n   */\n  function crystalURI(uint _tokenId) external view returns (string) {\n    return bCrystal.tokenURI(_tokenId);\n  }\n\n  /**\n   * @notice Returns seller and price of crystal that is for sale\n   * @param _tokenId Address of account to look up\n   */\n  function getCrystalSellData(uint _tokenId) external view returns (address seller, uint price) {\n    SellData memory sellData = tokenIdToSellData[_tokenId];\n    return (sellData.seller, sellData.price);\n  }\n\n  function() external payable {}\n}\n",
  "sourcePath": "/Users/jongaspar/Documents/coding/galactonomics/contracts/TempleAuthority.sol",
  "compiler": {
    "name": "solc",
    "version": "0.4.24+commit.e67f0147.Emscripten.clang"
  },
  "schemaVersion": "2.0.1",
  "updatedAt": "2018-11-24T03:45:26.835Z"
}